:100000000C9462000C948A000C948A000C948A0070
:100010000C948A000C948A000C948A000C948A0038
:100020000C948A000C948A000C948A000C948A0028
:100030000C948A000C948A000C948A000C948A0018
:100040000C946A050C948A000C94DA050C94B4059F
:100050000C948A000C948A000C948A000C948A00F8
:100060000C948A000C948A000000000024002700F1
:100070002A0000000000250028002B0000000000DE
:1000800023002600290004040404040404040202DA
:100090000202020203030303030301020408102007
:1000A0004080010204081020010204081020000012
:1000B0000008000201000003040700000000000027
:1000C00000000C0611241FBECFEFD8E0DEBFCDBF6D
:1000D00011E0A0E0B1E0E4EDF4E102C005900D9282
:1000E000AC37B107D9F722E0ACE7B1E001C01D920F
:1000F000AA33B207E1F710E0C2E6D0E004C02197CE
:10010000FE010E94620AC136D107C9F70E94560655
:100110000C94680A0C940000833081F028F481303C
:1001200099F08230A9F008958730A9F08830C9F09D
:100130008430B1F4809180008F7D03C08091800075
:100140008F7780938000089584B58F7784BD08955C
:1001500084B58F7DFBCF8091B0008F778093B00006
:1001600008958091B0008F7DF9CFCF93DF93282F32
:1001700030E0F901E255FF4F8491F901E656FF4F57
:10018000D491F901EA57FF4FC491CC23A1F081111A
:100190000E948C00EC2FF0E0EE0FFF1FE458FF4FA1
:1001A000A591B491EC91ED2381E090E009F480E019
:1001B000DF91CF91089580E090E0FACF1F93CF9325
:1001C000DF93282F30E0F901E255FF4F8491F901C8
:1001D000E656FF4FD491F901EA57FF4FC491CC2363
:1001E000A9F0162F81110E948C00EC2FF0E0EE0F89
:1001F000FF1FEE58FF4FA591B4918FB7F894EC9183
:10020000111108C0D095DE23DC938FBFDF91CF9111
:100210001F910895DE2BF8CFCF93DF9390E0FC0180
:10022000E656FF4F24918A579F4FFC018491882303
:10023000D1F090E0880F991FFC01E859FF4FA5917C
:10024000B491FC01EE58FF4FC591D49161110EC0DD
:100250009FB7F8948C91E22FE0958E238C932881A0
:10026000E223E8839FBFDF91CF9108958FB7F89481
:10027000EC91E22BEC938FBFF6CF8E3008F08E50CE
:100280008770806480937C0080917A008064809382
:100290007A0080917A0086FDFCCF80917800909161
:1002A000790008953FB7F89480918101909182017F
:1002B000A0918301B091840126B5A89B05C02F3F72
:1002C00019F00196A11DB11D3FBFBA2FA92F982F7C
:1002D0008827BC01CD01620F711D811D911D42E077
:1002E000660F771F881F991F4A95D1F708958F923F
:1002F0009F92AF92BF92CF92DF92EF92FF924B010B
:100300005C010E9452016B017C010E9452016C1938
:100310007D098E099F09683E734081059105A8F308
:1003200021E0821A9108A108B10888EEC80E83E086
:10033000D81EE11CF11C81149104A104B10429F719
:10034000FF90EF90DF90CF90BF90AF909F908F90F5
:100350000895AF92BF92CF92DF92EF92FF920F93E8
:100360001F93CF93DF936C017B018B01040F151F4B
:10037000EB015E01AE18BF08C017D10759F06991B3
:10038000D601ED91FC910190F081E02DC601099517
:10039000892B79F7C501DF91CF911F910F91FF90C4
:1003A000EF90DF90CF90BF90AF900895FC01538DF8
:1003B000448D252F30E0842F90E0821B930B54173F
:1003C00010F0CF96089501970895FC01918D828DCC
:1003D000981761F0A28DAE0FBF2FB11D5D968C9165
:1003E000928D9F5F9F73928F90E008958FEF9FEFA4
:1003F0000895FC01918D828D981731F0828DE80F60
:10040000F11D858D90E008958FEF9FEF0895FC0119
:10041000918D228D892F90E0805C9F4F821B9109E6
:100420008F739927089585E891E00E94070221E0E3
:10043000892B09F420E0822F089580E090E0892B39
:1004400029F00E94130281110C9400000895FC0110
:10045000A48DA80FB92FB11DA35ABF4F2C91848D25
:1004600090E001968F739927848FA689B7892C9382
:10047000A089B1898C91837080648C93938D848DD5
:10048000981306C00288F389E02D80818F7D8083D8
:100490000895EF92FF920F931F93CF93DF93EC0198
:1004A00081E0888F9B8D8C8D98131AC0E889F9891B
:1004B000808185FF15C09FB7F894EE89FF8960831E
:1004C000E889F98980818370806480839FBF81E09F
:1004D00090E0DF91CF911F910F91FF90EF900895E1
:1004E000F62E0B8D10E00F5F1F4F0F731127E02EBC
:1004F0008C8D8E110CC00FB607FCFACFE889F989F4
:10050000808185FFF5CFCE010E942702F1CFEB8DD0
:10051000EC0FFD2FF11DE35AFF4FF0829FB7F894C7
:100520000B8FEA89FB8980818062CFCFCF93DF93E5
:10053000EC01888D8823B9F0AA89BB89E889F989FB
:100540008C9185FD03C0808186FD0DC00FB607FC30
:10055000F7CF8C9185FFF2CF808185FFEDCFCE0163
:100560000E942702E9CFDF91CF910895089590E08E
:1005700080E00895CF93DF93EC0160E08E810E94CC
:10058000DE0061E08E810E94DE0060E08E810E94CC
:10059000DE008BE891E00197F1F7DF91CF910895AC
:1005A000CF92DF92EF92FF920F931F93CF93DF933F
:1005B0006C017C0187E0E80EF11CD0E0C0E0062F62
:1005C00010E0B8010C2E02C0759567950A94E2F709
:1005D0006170F70181917F010E94DE002196C43095
:1005E000D10579F7C601DF91CF911F910F91FF904F
:1005F000EF90DF90CF900C94BA02CF92DF92EF92FF
:10060000FF920F931F93CF93DF93EC01F62E642F8D
:100610008C810E94DE008D818F3F19F060E00E9486
:10062000DE000F2D10E08F8584FF25C06E0187E06E
:10063000C80ED11CF12CE12CB8010E2C02C075950E
:1006400067950A94E2F76170F60181916F010E944B
:10065000DE00FFEFEF1AFF0A88E0E816F10461F709
:10066000CE01DF91CF911F910F91FF90EF90DF901E
:10067000CF900C94BA02B80184E0759567958A957D
:10068000E1F7CE010E94D0026F2DCE01DF91CF9114
:100690001F910F91FF90EF90DF90CF900C94D002BC
:1006A00040E0682F82E292E00C94FD0281E00E941B
:1006B00050038BE39FE10197F1F70895CF93DF9308
:1006C000823029F4909131029860909331028093A6
:1006D00035021092360280E48093370280E18093E5
:1006E000380280E58093390261E0809126020E9401
:1006F0000C01809127028F3F19F061E00E940C01EC
:1007000061E0809128020E940C01C2E2D2E09E01C9
:10071000225232408091310284FD0BC084E090E08F
:1007200021962817390744F461E08E810E940C015C
:10073000EECF88E090E0F4CF8BE39DE00197F1F7F6
:1007400060E0809126020E94DE0060E08091280235
:100750000E94DE00809127028F3F19F060E00E9426
:10076000DE008091310284FD34C063E082E292E0D9
:100770000E94D002CBE4D6E4CE010197F1F763E00A
:1007800082E292E00E94D0022197F1F763E082E2D8
:1007900092E00E94D00283E592E00197F1F762E0D7
:1007A00082E292E00E94D0028091310280620E9437
:1007B000500384E0809332028CE00E9450030E9438
:1007C000560382E08093330286E0DF91CF910C9450
:1007D000500380620E9450038BE496E40197F1F786
:1007E0008091310280620E94500383E592E001977C
:1007F000F1F78091310280620E945003D5CF41E031
:100800000E94FD0281E090E00895FB01019000202C
:10081000E9F73197AF01461B570BDC01ED91FC91D5
:100820000280F381E02D09948F929F92AF92BF9244
:100830000F931F93CF93DF93CDB7DEB7A1970FB67A
:10084000F894DEBF0FBECDBF19A2423008F44AE0D3
:100850008E010F5D1F4F842E912CB12CA12CA50170
:1008600094010E94400AE62FB901CA01EA3004F55A
:10087000E05DD801EE938D01232B242B252B79F7F6
:1008800090E080E0109729F0BD0182E292E00E94A2
:100890000504A1960FB6F894DEBF0FBECDBFDF9161
:1008A000CF911F910F91BF90AF909F908F9008951F
:1008B000E95CDFCF4F925F926F927F928F929F920F
:1008C000AF92BF92CF92DF92EF92FF920F931F935E
:1008D000CF936B017C01742EAC019B010E943B0AFB
:1008E0006EE171E0811126C046015701E894B7F826
:1008F0002FEF3FEF4FE75FE7C501B4010E943B0ACE
:1009000081110CC02FEF3FEF4FE75FE7C501B40146
:100910000E94710862E271E0181664F02FEF3FEF59
:100920004FE75FE4C701B6010E94C9091816ACF48D
:1009300066E271E082E292E0CF911F910F91FF9009
:10094000EF90DF90CF90BF90AF909F908F907F906F
:100950006F905F904F900C9405042FEF3FEF4FE79F
:100960005FECC701B6010E94710887FDE1CF20E06E
:1009700030E0A901C701B6010E94710810E000E053
:1009800087FF0CC041E06DE282E292E00E94FD022E
:10099000F7FAF094F7F8F09401E010E0C0E060E0BE
:1009A00070E080E09FE37C1641F020E030E040E220
:1009B00051E40E947608CF5FF6CFA70196010E940E
:1009C00005084B015C010E94E8082B013C014AE04C
:1009D0000E941404080F191FCC23C9F1C301B201EE
:1009E0000E9417099B01AC01C501B4010E940408D3
:1009F0004B015C0141E06EE282E292E00E94FD0266
:100A00000F5F1F4FC15018F120E030E040E251E489
:100A1000C501B4010E94CE092B013C010E94E808E7
:100A20004B01B12CA12C4AE0C501B4010E94140471
:100A3000080F191FC501B4010E9417099B01AC01E1
:100A4000C301B2010E9404084B015C01DBCFC80165
:100A5000CF911F910F91FF90EF90DF90CF90BF90BB
:100A6000AF909F908F907F906F905F904F90089580
:100A7000CF93C82F0E94B500019789F460E08C2FB6
:100A80000E94DE006AE271E085E891E00E940504C0
:100A90006AE371E085E891E0CF910C940504CF9171
:100AA0000895CF93C82F0E94B500892B89F461E087
:100AB0008C2F0E94DE006DE371E085E891E00E94DA
:100AC00005046AE371E085E891E0CF910C94050498
:100AD000CF9108951F920F920FB60F9211242F936A
:100AE0003F938F939F93AF93BF9380917D0190919C
:100AF0007E01A0917F01B091800130917C0123E0C3
:100B0000230F2D3758F50196A11DB11D20937C01AF
:100B100080937D0190937E01A0937F01B09380012B
:100B20008091810190918201A0918301B091840113
:100B30000196A11DB11D8093810190938201A09324
:100B40008301B0938401BF91AF919F918F913F91A9
:100B50002F910F900FBE0F901F90189526E8230F2E
:100B60000296A11DB11DD2CF1F920F920FB60F9208
:100B700011242F933F934F935F936F937F938F93A2
:100B80009F93AF93BF93EF93FF9385E891E00E940B
:100B90002702FF91EF91BF91AF919F918F917F912C
:100BA0006F915F914F913F912F910F900FBE0F90DA
:100BB0001F9018951F920F920FB60F9211242F932A
:100BC0008F939F93EF93FF93E0919501F09196019E
:100BD0008081E0919B01F0919C0182FD1BC090817E
:100BE00080919E018F5F8F7320919F01821741F04A
:100BF000E0919E01F0E0EB57FE4F958F80939E01B0
:100C0000FF91EF919F918F912F910F900FBE0F90B9
:100C10001F9018958081F4CFE5E8F1E013821282ED
:100C200088EE93E0A0E0B0E084839583A683B78349
:100C300084E091E09183808385EC90E095878487C0
:100C400084EC90E09787868780EC90E0918B808B96
:100C500081EC90E0938B828B82EC90E0958B848B7F
:100C600086EC90E0978B868B118E128E138E148EED
:100C7000E2E2F2E01382128286E191E091838083C6
:100C80008CE084838FEF85838BE0868385E0878388
:100C900084E0808783E0818782E0828713861486E0
:100CA00015861686178681E00C945E03789484B5C9
:100CB000826084BD84B5816084BD85B5826085BD58
:100CC00085B5816085BD80916E00816080936E00E6
:100CD00010928100809181008260809381008091D8
:100CE0008100816080938100809180008160809389
:100CF00080008091B10084608093B1008091B00049
:100D000081608093B00080917A00846080937A0043
:100D100080917A00826080937A0080917A0081606D
:100D200080937A0080917A00806880937A00109294
:100D3000C100E0919501F091960182E08083E091FD
:100D40009101F09192011082E0919301F091940150
:100D50008FEC808310929D01E0919901F0919A01AE
:100D600086E08083E0919701F09198018081806115
:100D70008083E0919701F091980180818860808361
:100D8000E0919701F0919801808180688083E091E3
:100D90009701F091980180818F7D808382E00E948D
:100DA0005E0361E08FE00E940C0161E083E10E943C
:100DB0000C0160E08EE00E940C0160E080E10E9486
:100DC0000C0160E081E10E940C01C0E0D0E080E114
:100DD0000E943D01BC01990F880B990B0E941909D3
:100DE0002AE038E240EA5BE30E94CE0920E030E0EE
:100DF00040EF52E40E94040820E030E049E353E46D
:100E00000E9476084B015C0120E030E0A9010E94BD
:100E1000C909181624F0B7FAB094B7F8B09481E174
:100E20000E943D01BC01990F880B990B0E94190982
:100E30002AE038E240EA5BE30E94CE0920E030E09D
:100E400040EF52E40E94040820E030E049E353E41C
:100E50000E9476086B017C0120E030E0A9010E942D
:100E6000C909181624F0F7FAF094F7F8F0940E94E4
:100E700056036FE471E082E292E00E94050420E0F4
:100E800030E040E753E4C501B4010E94CE0920E000
:100E900030E04AE754E40E94CE0942E00E945A043E
:100EA00069E571E082E292E00E940504E09135027A
:100EB000E23008F09BC0E150F0E0EE5DFD4F848928
:100EC00080680E9450036EE571E082E292E00E9429
:100ED000050420E030E040E753E4C701B6010E947A
:100EE000CE0920E030E04AE754E40E94CE0942E017
:100EF0000E945A0469E571E082E292E00E940504D2
:100F000068E873E180E090E00E9477010E94560358
:100F100068E671E082E292E00E940504A501940176
:100F2000C701B6010E94050820E030E040E753E425
:100F30000E94CE0920E030E04AE754E40E94CE0946
:100F40002B013C0142E00E945A0469E571E082E213
:100F500092E00E940504E0913502E23008F048C0BA
:100F6000E150F0E0EE5DFD4F848980680E945003FF
:100F700065E771E082E292E00E94050442E0C3016D
:100F8000B2010E945A0469E571E082E292E00E9497
:100F900005042DEC3CEC4CEC5DE3C501B4010E9472
:100FA000C90918163CF58FE090E00E9438052DEC39
:100FB0003CEC4CE45EE3C701B6010E94C909181677
:100FC000F4F483E190E00E94380560E875E280E087
:100FD00090E00E947701209709F4F9CE0E94130255
:100FE000882309F4F4CE0E940000F1CEE1E064CF42
:100FF000E1E0B7CF8FE090E00E945105D8CF83E1C8
:1010000090E00E945105E1CF5058BB27AA270E94CB
:101010001C080C948F090E94810938F00E948809ED
:1010200020F039F49F3F19F426F40C947E090EF455
:10103000E095E7FB0C947809E92F0E94A00958F38A
:10104000BA17620773078407950720F079F4A6F5AD
:101050000C94C2090EF4E0950B2EBA2FA02D0B01B3
:10106000B90190010C01CA01A0011124FF27591BED
:1010700099F0593F50F4503E68F11A16F040A22FF3
:10108000232F342F4427585FF3CF46953795279564
:10109000A795F0405395C9F77EF41F16BA0B620B63
:1010A000730B840BBAF09150A1F0FF0FBB1F661FAA
:1010B000771F881FC2F70EC0BA0F621F731F841FED
:1010C00048F4879577956795B795F7959E3F08F013
:1010D000B0CF9395880F08F09927EE0F97958795D5
:1010E00008950E94540908F481E008950E948A0836
:1010F0000C948F090E94880958F00E94810940F0E1
:1011000029F45F3F29F00C94780951110C94C3091C
:101110000C947E090E94A00968F39923B1F355232A
:1011200091F3951B550BBB27AA27621773078407FA
:1011300038F09F5F5F4F220F331F441FAA1FA9F390
:1011400035D00E2E3AF0E0E832D091505040E6957E
:10115000001CCAF72BD0FE2F29D0660F771F881FDF
:10116000BB1F261737074807AB07B0E809F0BB0BD2
:10117000802DBF01FF2793585F4F3AF09E3F5105E6
:1011800078F00C9478090C94C3095F3FE4F3983E1F
:10119000D4F3869577956795B795F7959F5FC9F7CF
:1011A000880F911D9695879597F90895E1E0660F50
:1011B000771F881FBB1F621773078407BA0720F0C9
:1011C000621B730B840BBA0BEE1F88F7E095089532
:1011D0000E94A80988F09F5798F0B92F9927B75116
:1011E000B0F0E1F0660F771F881F991F1AF0BA95CB
:1011F000C9F714C0B13091F00E94C209B1E008955E
:101200000C94C209672F782F8827B85F39F0B93F4F
:10121000CCF3869577956795B395D9F73EF490957D
:101220008095709561957F4F8F4F9F4F0895E894FB
:1012300009C097FB3EF490958095709561957F4F1E
:101240008F4F9F4F9923A9F0F92F96E9BB279395CC
:10125000F695879577956795B795F111F8CFFAF4DC
:10126000BB0F11F460FF1BC06F5F7F4F8F4F9F4F0D
:1012700016C0882311F096E911C0772321F09EE86B
:10128000872F762F05C0662371F096E8862F70E0D1
:1012900060E02AF09A95660F771F881FDAF7880FAB
:1012A0009695879597F90895990F0008550FAA0B01
:1012B000E0E8FEEF16161706E807F907C0F0121669
:1012C0001306E407F50798F0621B730B840B950B6C
:1012D00039F40A2661F0232B242B252B21F40895C1
:1012E0000A2609F4A140A6958FEF811D811D08955E
:1012F00097F99F6780E870E060E008959FEF80ECC9
:10130000089500240A94161617061806090608956B
:1013100000240A9412161306140605060895092ED1
:101320000394000C11F4882352F0BB0F40F4BF2B40
:1013300011F460FF04C06F5F7F4F8F4F9F4F089580
:1013400057FD9058440F551F59F05F3F71F0479576
:10135000880F97FB991F61F09F3F79F0879508955B
:10136000121613061406551FF2CF4695F1DF08C07A
:10137000161617061806991FF1CF86957105610597
:1013800008940895E894BB2766277727CB0197F93F
:1013900008950E94540908F48FEF08950E94E1090E
:1013A0000C948F090E94810938F00E94880920F06E
:1013B000952311F00C9478090C947E0911240C9457
:1013C000C3090E94A00970F3959FC1F3950F50E0E7
:1013D000551F629FF001729FBB27F00DB11D639FE7
:1013E000AA27F00DB11DAA1F649F6627B00DA11D8D
:1013F000661F829F2227B00DA11D621F739FB00D33
:10140000A11D621F839FA00D611D221F749F3327A2
:10141000A00D611D231F849F600D211D822F762F3B
:101420006A2F11249F5750409AF0F1F088234AF018
:10143000EE0FFF1FBB1F661F771F881F9150504084
:10144000A9F79E3F510580F00C9478090C94C309CC
:101450005F3FE4F3983ED4F3869577956795B7950B
:10146000F795E7959F5FC1F7FE2B880F911D969525
:10147000879597F908950E945409880B990B089550
:10148000A1E21A2EAA1BBB1BFD010DC0AA1FBB1F88
:10149000EE1FFF1FA217B307E407F50720F0A21BFA
:1014A000B30BE40BF50B661F771F881F991F1A9467
:1014B00069F760957095809590959B01AC01BD0191
:1014C000CF010895EE0FFF1F0590F491E02D0994D0
:0414D000F894FFCFBE
:1014D400000000004902A901D60196020702E501B5
:1014E400F90100000000FF03A901B702B6026E6112
:1014F4006E00696E66006F76660052656C617920D5
:10150400416374697661746564000D0A0052656C08
:101514006179204465616374697661746564004827
:101524006F75736520413A2000206D564100486F65
:1015340075736520423A20004D61696E204D6574D3
:0C15440065723A200053756D3A200000DB
:00000001FF
