:100000000C9462000C948A000C948A000C948A0070
:100010000C948A000C948A000C948A000C948A0038
:100020000C948A000C948A000C948A000C948A0028
:100030000C948A000C948A000C948A000C948A0018
:100040000C9482050C948A000C94F2050C94CC0557
:100050000C948A000C948A000C948A000C948A00F8
:100060000C948A000C948A000000000024002700F1
:100070002A0000000000250028002B0000000000DE
:1000800023002600290004040404040404040202DA
:100090000202020203030303030301020408102007
:1000A0004080010204081020010204081020000012
:1000B0000008000201000003040700000000000027
:1000C0000000240611241FBECFEFD8E0DEBFCDBF55
:1000D00011E0A0E0B1E0ECE7F5E102C005900D927F
:1000E000A03AB107D9F722E0A0EAB1E001C01D9221
:1000F000AE35B207E1F710E0C2E6D0E004C02197C8
:10010000FE010E94B60AC136D107C9F70E946E06E9
:100110000C94BC0A0C940000833081F028F48130E8
:1001200099F08230A9F008958730A9F08830C9F09D
:100130008430B1F4809180008F7D03C08091800075
:100140008F7780938000089584B58F7784BD08955C
:1001500084B58F7DFBCF8091B0008F778093B00006
:1001600008958091B0008F7DF9CFCF93DF93282F32
:1001700030E0F901E255FF4F8491F901E656FF4F57
:10018000D491F901EA57FF4FC491CC23A1F081111A
:100190000E948C00EC2FF0E0EE0FFF1FE458FF4FA1
:1001A000A591B491EC91ED2381E090E009F480E019
:1001B000DF91CF91089580E090E0FACF1F93CF9325
:1001C000DF93282F30E0F901E255FF4F8491F901C8
:1001D000E656FF4FD491F901EA57FF4FC491CC2363
:1001E000A9F0162F81110E948C00EC2FF0E0EE0F89
:1001F000FF1FEE58FF4FA591B4918FB7F894EC9183
:10020000111108C0D095DE23DC938FBFDF91CF9111
:100210001F910895DE2BF8CFCF93DF9390E0FC0180
:10022000E656FF4F24918A579F4FFC018491882303
:10023000D1F090E0880F991FFC01E859FF4FA5917C
:10024000B491FC01EE58FF4FC591D49161110EC0DD
:100250009FB7F8948C91E22FE0958E238C932881A0
:10026000E223E8839FBFDF91CF9108958FB7F89481
:10027000EC91E22BEC938FBFF6CF8E3008F08E50CE
:100280008770806480937C0080917A008064809382
:100290007A0080917A0086FDFCCF80917800909161
:1002A000790008953FB7F8948091A5019091A60137
:1002B000A091A701B091A80126B5A89B05C02F3F2A
:1002C00019F00196A11DB11D3FBFBA2FA92F982F7C
:1002D0008827BC01CD01620F711D811D911D42E077
:1002E000660F771F881F991F4A95D1F708958F923F
:1002F0009F92AF92BF92CF92DF92EF92FF924B010B
:100300005C010E9452016B017C010E9452016C1938
:100310007D098E099F09683E734081059105A8F308
:1003200021E0821A9108A108B10888EEC80E83E086
:10033000D81EE11CF11C81149104A104B10429F719
:10034000FF90EF90DF90CF90BF90AF909F908F90F5
:100350000895AF92BF92CF92DF92EF92FF920F93E8
:100360001F93CF93DF936C017B018B01040F151F4B
:10037000EB015E01AE18BF08C017D10759F06991B3
:10038000D601ED91FC910190F081E02DC601099517
:10039000892B79F7C501DF91CF911F910F91FF90C4
:1003A000EF90DF90CF90BF90AF900895FC01538DF8
:1003B000448D252F30E0842F90E0821B930B54173F
:1003C00010F0CF96089501970895FC01918D828DCC
:1003D000981761F0A28DAE0FBF2FB11D5D968C9165
:1003E000928D9F5F9F73928F90E008958FEF9FEFA4
:1003F0000895FC01918D828D981731F0828DE80F60
:10040000F11D858D90E008958FEF9FEF0895FC0119
:10041000918D228D892F90E0805C9F4F821B9109E6
:100420008F739927089589EA91E00E94070221E0DD
:10043000892B09F420E0822F089580E090E0892B39
:1004400029F00E94130281110C9400000895FC0110
:10045000A48DA80FB92FB11DA35ABF4F2C91848D25
:1004600090E001968F739927848FA689B7892C9382
:10047000A089B1898C91837080648C93938D848DD5
:10048000981306C00288F389E02D80818F7D8083D8
:100490000895EF92FF920F931F93CF93DF93EC0198
:1004A00081E0888F9B8D8C8D98131AC0E889F9891B
:1004B000808185FF15C09FB7F894EE89FF8960831E
:1004C000E889F98980818370806480839FBF81E09F
:1004D00090E0DF91CF911F910F91FF90EF900895E1
:1004E000F62E0B8D10E00F5F1F4F0F731127E02EBC
:1004F0008C8D8E110CC00FB607FCFACFE889F989F4
:10050000808185FFF5CFCE010E942702F1CFEB8DD0
:10051000EC0FFD2FF11DE35AFF4FF0829FB7F894C7
:100520000B8FEA89FB8980818062CFCFCF93DF93E5
:10053000EC01888D8823B9F0AA89BB89E889F989FB
:100540008C9185FD03C0808186FD0DC00FB607FC30
:10055000F7CF8C9185FFF2CF808185FFEDCFCE0163
:100560000E942702E9CFDF91CF910895089590E08E
:1005700080E00895FB0101900020E9F73197AF0179
:10058000461B570BDC01ED91FC910280F381E02DBD
:1005900009948F929F92AF92BF92EF92FF920F9326
:1005A0001F93CF93DF93CDB7DEB7A1970FB6F89423
:1005B000DEBF0FBECDBF7C01FA01CB0119A22230F4
:1005C00008F42AE08E010F5D1F4F822E912CB12C72
:1005D000A12CBF01A50194010E94940AF901CA014E
:1005E0006A300CF5605DD8016E938D01232B242BAE
:1005F000252B79F790E080E0109721F0BD01C7012D
:100600000E94BA02A1960FB6F894DEBF0FBECDBF0E
:10061000DF91CF911F910F91FF90EF90BF90AF901E
:100620009F908F900895695CDECF0C94BA02CF93AF
:10063000C82F0E94B500019789F460E08C2F0E94BA
:10064000DE006EE171E089EA91E00E94BA0260E3A7
:1006500071E089EA91E0CF910C94BA02CF910895AC
:10066000CF93C82F0E94B500892B89F461E08C2FAD
:100670000E94DE0063E371E089EA91E00E94BA0221
:1006800060E371E089EA91E0CF910C94BA02CF91D6
:1006900008952F923F924F925F926F927F928F9226
:1006A0009F92AF92BF92CF92DF92EF92FF921F93F1
:1006B000CF93DF93EC016A017B01722EAB019601AF
:1006C000CB01B6010E948F0A63E471E0811126C05C
:1006D00046015701E894B7F82FEF3FEF4FE75FE788
:1006E000C501B4010E948F0A81110CC02FEF3FEFAA
:1006F0004FE75FE7C501B4010E94C50867E471E0F8
:10070000181664F02FEF3FEF4FE75FE4C701B60123
:100710000E941D0A1816B4F46BE471E0CE01DF915B
:10072000CF911F91FF90EF90DF90CF90BF90AF904F
:100730009F908F907F906F905F904F903F902F9001
:100740000C94BA022FEF3FEF4FE75FECC701B60101
:100750000E94C50887FDE0CF20E030E0A901C70175
:10076000B6010E94C508312C212C87FF0DC0E881FD
:10077000F9810190F081E02D6DE2CE0109951C0117
:10078000F7FAF094F7F8F09410E060E070E080E0A1
:100790009FE3711641F020E030E040E251E40E9416
:1007A000CA081F5FF6CFA70196010E9459082B01C6
:1007B0003C010E943C094B015C012AE0BC01A40100
:1007C000CE010E94C9027C01E20CF31C1123E1F16D
:1007D000C501B4010E946B099B01AC01C301B201C8
:1007E0000E9458084B015C01E881F9810190F08179
:1007F000E02D6EE2CE010995E80EF91E115020F1B0
:1008000020E030E040E251E4C501B4010E94220A38
:100810002B013C010E943C094B01B12CA12C2AE088
:10082000B501A401CE010E94C902E80EF91EC5015E
:10083000B4010E946B099B01AC01C301B2010E948B
:1008400058084B015C01DACFC701DF91CF911F91AE
:10085000FF90EF90DF90CF90BF90AF909F908F90E0
:100860007F906F905F904F903F902F900895CF931F
:10087000DF93EC0160E08E810E94DE0061E08E81FA
:100880000E94DE0060E08E810E94DE008BE891E035
:100890000197F1F7DF91CF910895CF92DF92EF9218
:1008A000FF920F931F93CF93DF936C017C0187E03E
:1008B000E80EF11CD0E0C0E0062F10E0B8010C2ECD
:1008C00002C0759567950A94E2F76170F70181910E
:1008D0007F010E94DE002196C430D10579F7C60160
:1008E000DF91CF911F910F91FF90EF90DF90CF900C
:1008F0000C943704CF92DF92EF92FF920F931F93E5
:10090000CF93DF93EC01F62E642F8C810E94DE00E2
:100910008D818F3F19F060E00E94DE000F2D10E006
:100920008F8584FF25C06E0187E0C80ED11CF12C95
:10093000E12CB8010E2C02C0759567950A94E2F778
:100940006170F60181916F010E94DE00FFEFEF1AE6
:10095000FF0A88E0E816F10461F7CE01DF91CF913C
:100960001F910F91FF90EF90DF90CF900C94370480
:10097000B80184E0759567958A95E1F7CE010E94EC
:100980004D046F2DCE01DF91CF911F910F91FF90FC
:10099000EF90DF90CF900C944D0440E0682F86E4F8
:1009A00092E00C947A0481E00E94CD048BE39FE1F5
:1009B0000197F1F70895CF93DF93823029F4909156
:1009C00055029860909355028093590210925A02F2
:1009D00080E480935B0280E180935C0280E58093F9
:1009E0005D0261E080914A020E940C0180914B02FD
:1009F0008F3F19F061E00E940C0161E080914C0290
:100A00000E940C01C6E4D2E09E012654324080913F
:100A1000550284FD0BC084E090E021962817390729
:100A200044F461E08E810E940C01EECF88E090E0FA
:100A3000F4CF8BE39DE00197F1F760E080914A02EB
:100A40000E94DE0060E080914C020E94DE008091F6
:100A50004B028F3F19F060E00E94DE00809155024A
:100A600084FD34C063E086E492E00E944D04CBE450
:100A7000D6E4CE010197F1F763E086E492E00E94AC
:100A80004D042197F1F763E086E492E00E944D0463
:100A900083E592E00197F1F762E086E492E00E943C
:100AA0004D048091550280620E94CD0484E08093C1
:100AB00056028CE00E94CD040E94D30482E0809311
:100AC000570286E0DF91CF910C94CD0480620E94A2
:100AD000CD048BE496E40197F1F780915502806292
:100AE0000E94CD0483E592E00197F1F780915502D1
:100AF00080620E94CD04D5CF41E00E947A0481E05B
:100B000090E008951F920F920FB60F9211242F9329
:100B10003F938F939F93AF93BF938091A101909147
:100B2000A201A091A301B091A4013091A00123E002
:100B3000230F2D3758F50196A11DB11D2093A0015B
:100B40008093A1019093A201A093A301B093A4016B
:100B50008091A5019091A601A091A701B091A80153
:100B60000196A11DB11D8093A5019093A601A093AC
:100B7000A701B093A801BF91AF919F918F913F9131
:100B80002F910F900FBE0F901F90189526E8230FFE
:100B90000296A11DB11DD2CF1F920F920FB60F92D8
:100BA00011242F933F934F935F936F937F938F9372
:100BB0009F93AF93BF93EF93FF9389EA91E00E94D5
:100BC0002702FF91EF91BF91AF919F918F917F91FC
:100BD0006F915F914F913F912F910F900FBE0F90AA
:100BE0001F9018951F920F920FB60F9211242F93FA
:100BF0008F939F93EF93FF93E091B901F091BA0126
:100C00008081E091BF01F091C00182FD1BC0908105
:100C10008091C2018F5F8F732091C301821741F0D1
:100C2000E091C201F0E0E755FE4F958F8093C2013D
:100C3000FF91EF919F918F912F910F900FBE0F9089
:100C40001F9018958081F4CFE9EAF1E013821282B7
:100C500088EE93E0A0E0B0E084839583A683B78319
:100C600084E091E09183808385EC90E09587848790
:100C700084EC90E09787868780EC90E0918B808B66
:100C800081EC90E0938B828B82EC90E0958B848B4F
:100C900086EC90E0978B868B118E128E138E148EBD
:100CA000E6E4F2E01382128286E191E09183808390
:100CB0008CE084838FEF85838BE0868385E0878358
:100CC00084E0808783E0818782E0828713861486B0
:100CD00015861686178681E00C94DB04789484B51B
:100CE000826084BD84B5816084BD85B5826085BD28
:100CF00085B5816085BD80916E00816080936E00B6
:100D000010928100809181008260809381008091A7
:100D10008100816080938100809180008160809358
:100D200080008091B10084608093B1008091B00018
:100D300081608093B00080917A00846080937A0013
:100D400080917A00826080937A0080917A0081603D
:100D500080937A0080917A00806880937A00109264
:100D6000C100E091B901F091BA0182E08083E09185
:100D7000B501F091B6011082E091B701F091B80190
:100D80008FEC80831092C101E091BD01F091BE0112
:100D900086E08083E091BB01F091BC01808180619D
:100DA0008083E091BB01F091BC01808188608083E9
:100DB000E091BB01F091BC01808180688083E0916B
:100DC000BB01F091BC0180818F7D808382E00E9415
:100DD000DB0461E081E10E940C0161E082E10E949C
:100DE0000C0160E081E10E94DE0060E082E10E948F
:100DF000DE0060E08FE00E940C0160E080E10E9474
:100E00000C0160E083E10E940C01C0E0D0E080E1D1
:100E10000E943D01BC01990F880B990B0E946D093E
:100E20002AE038E240EA5BE30E94220A20E030E058
:100E300040EF52E40E94580820E030E049E353E4D8
:100E40000E94CA084B015C0120E030E0A9010E9429
:100E50001D0A181624F0B7FAB094B7F8B09483E1DD
:100E60000E943D01BC01990F880B990B0E946D09EE
:100E70002AE038E240EA5BE30E94220A20E030E008
:100E800040EF52E40E94580820E030E049E353E488
:100E90000E94CA086B017C0120E030E0A9010E9499
:100EA0001D0A181624F0F7FAF094F7F8F0946FE49E
:100EB00071E089EA91E00E94150322E0B501A401E6
:100EC00089EA91E00E94490360E371E089EA91E0D8
:100ED0000E94BA0261E671E089EA91E00E9415037E
:100EE00022E0B701A60189EA91E00E94490360E38C
:100EF00071E089EA91E00E94BA020E94D30463E79C
:100F000071E086E492E00E94150320E030E040E7C3
:100F100053E4C501B4010E94220A20E030E04AE710
:100F200054E40E94220AAB01BC0122E086E492E074
:100F30000E9449036DE771E086E492E00E94150388
:100F4000E0915902E23008F0A5C0E150F0E0EA5B20
:100F5000FD4F848980680E94CD0462E871E086E4D8
:100F600092E00E94150320E030E040E753E4C7011F
:100F7000B6010E94220A20E030E04AE754E40E94D1
:100F8000220AAB01BC0122E086E492E00E94490300
:100F90006DE771E086E492E00E94150368E873E172
:100FA00080E090E00E9477010E94D3046CE871E039
:100FB00086E492E00E941503A5019401C701B601E1
:100FC0000E94590820E030E040E753E40E94220AE2
:100FD00020E030E04AE754E40E94220A2B013C0161
:100FE00022E0BC01A20186E492E00E9449036DE781
:100FF00071E086E492E00E941503E0915902E2302C
:1010000008F04AC0E150F0E0EA5BFD4F8489806857
:101010000E94CD0469E971E086E492E00E94150324
:1010200022E0B301A20186E492E00E9449036DE749
:1010300071E086E492E00E94150320E030E44CE980
:1010400055E4C501B4010E941D0A18163CF581E162
:1010500090E00E94300320E030E84BEB55E4C701FC
:10106000B6010E941D0A1816F4F482E190E00E9475
:10107000300368EE73E080E090E00E9477012097F3
:1010800009F4C5CE0E941302882309F4C0CE0E9441
:101090000000BDCEE1E05ACFE1E0B5CF81E190E0C4
:1010A0000E941703D8CF82E190E00E941703E1CF9E
:1010B0005058BB27AA270E9470080C94E3090E948D
:1010C000D50938F00E94DC0920F039F49F3F19F46B
:1010D00026F40C94D2090EF4E095E7FB0C94CC09AD
:1010E000E92F0E94F40958F3BA17620773078407BF
:1010F000950720F079F4A6F50C94160A0EF4E09505
:101100000B2EBA2FA02D0B01B90190010C01CA01C1
:10111000A0011124FF27591B99F0593F50F4503E6C
:1011200068F11A16F040A22F232F342F4427585F5E
:10113000F3CF469537952795A795F0405395C9F776
:101140007EF41F16BA0B620B730B840BBAF091502E
:10115000A1F0FF0FBB1F661F771F881FC2F70EC0CD
:10116000BA0F621F731F841F48F4879577956795A0
:10117000B795F7959E3F08F0B0CF9395880F08F08C
:101180009927EE0F9795879508950E94A80908F46E
:1011900081E008950E94DE080C94E3090E94DC09B6
:1011A00058F00E94D50940F029F45F3F29F00C94D3
:1011B000CC0951110C94170A0C94D2090E94F4091D
:1011C00068F39923B1F3552391F3951B550BBB2776
:1011D000AA2762177307840738F09F5F5F4F220FBB
:1011E000331F441FAA1FA9F335D00E2E3AF0E0E8B2
:1011F00032D091505040E695001CCAF72BD0FE2FFC
:1012000029D0660F771F881FBB1F2617370748078F
:10121000AB07B0E809F0BB0B802DBF01FF27935847
:101220005F4F3AF09E3F510578F00C94CC090C9436
:10123000170A5F3FE4F3983ED4F386957795679558
:10124000B795F7959F5FC9F7880F911D969587957C
:1012500097F90895E1E0660F771F881FBB1F62179B
:1012600073078407BA0720F0621B730B840BBA0B59
:10127000EE1F88F7E09508950E94FC0988F09F57BB
:1012800098F0B92F9927B751B0F0E1F0660F771FAA
:10129000881F991F1AF0BA95C9F714C0B13091F0A0
:1012A0000E94160AB1E008950C94160A672F782F51
:1012B0008827B85F39F0B93FCCF386957795679565
:1012C000B395D9F73EF490958095709561957F4FD1
:1012D0008F4F9F4F0895E89409C097FB3EF4909577
:1012E0008095709561957F4F8F4F9F4F9923A9F0FF
:1012F000F92F96E9BB279395F6958795779567958E
:10130000B795F111F8CFFAF4BB0F11F460FF1BC0D1
:101310006F5F7F4F8F4F9F4F16C0882311F096E964
:1013200011C0772321F09EE8872F762F05C0662312
:1013300071F096E8862F70E060E02AF09A95660FCB
:10134000771F881FDAF7880F9695879597F9089584
:10135000990F0008550FAA0BE0E8FEEF16161706C6
:10136000E807F907C0F012161306E407F50798F02E
:10137000621B730B840B950B39F40A2661F0232B47
:10138000242B252B21F408950A2609F4A140A695C3
:101390008FEF811D811D089597F99F6780E870E0A8
:1013A00060E008959FEF80EC089500240A941616DB
:1013B000170618060906089500240A941216130643
:1013C000140605060895092E0394000C11F48823D1
:1013D00052F0BB0F40F4BF2B11F460FF04C06F5FED
:1013E0007F4F8F4F9F4F089557FD9058440F551FC3
:1013F00059F05F3F71F04795880F97FB991F61F097
:101400009F3F79F087950895121613061406551F0D
:10141000F2CF4695F1DF08C0161617061806991F79
:10142000F1CF86957105610508940895E894BB276E
:1014300066277727CB0197F908950E94A80908F439
:101440008FEF08950E94350A0C94E3090E94D50994
:1014500038F00E94DC0920F0952311F00C94CC099F
:101460000C94D20911240C94170A0E94F40970F309
:10147000959FC1F3950F50E0551F629FF001729F39
:10148000BB27F00DB11D639FAA27F00DB11DAA1F48
:10149000649F6627B00DA11D661F829F2227B00D95
:1014A000A11D621F739FB00DA11D621F839FA00D20
:1014B000611D221F749F3327A00D611D231F849F70
:1014C000600D211D822F762F6A2F11249F575040C7
:1014D0009AF0F1F088234AF0EE0FFF1FBB1F661F42
:1014E000771F881F91505040A9F79E3F510580F00B
:1014F0000C94CC090C94170A5F3FE4F3983ED4F3A4
:10150000869577956795B795F795E7959F5FC1F7AE
:10151000FE2B880F911D9695879597F908950E9447
:10152000A809880B990B0895A1E21A2EAA1BBB1BD0
:10153000FD010DC0AA1FBB1FEE1FFF1FA217B3079F
:10154000E407F50720F0A21BB30BE40BF50B661FB5
:10155000771F881F991F1A9469F760957095809579
:1015600090959B01AC01BD01CF010895EE0FFF1FC7
:0C1570000590F491E02D0994F894FFCF51
:10157C00000000004902A901D60196020702E5010C
:10158C00F901000000007C05A901B702B602526502
:10159C006C6179204465616374697661746564007B
:1015AC000D0A0052656C617920416374697661742F
:1015BC006564006E616E00696E66006F7666004849
:1015CC006F75736520412043757272656E743A2095
:1015DC0000486F75736520422043757272656E7496
:1015EC003A2000486F75736520413A2000206D56F3
:1015FC004100486F75736520423A20004D61696E59
:10160C00204D657465723A200053756D3A200000C8
:00000001FF
