:100000000C9463000C948B000C948B000C9474057E
:100010000C9474050C9474050C948B000C948B0058
:100020000C948B000C948B000C948B000C948B0024
:100030000C948B000C948B000C948B000C948B0014
:100040000C942A050C948B000C948B000C948B0060
:100050000C948B000C948B000C948B000C948B00F4
:100060000C948B000C948B000000000023002600F1
:10007000290000000000240027002A0000000000E2
:10008000250028002B0004040404040404040202D4
:100090000202020203030303030301020408102007
:1000A0004080010204081020010204081020000012
:1000B0000008000201000003040700000000000027
:1000C00000004909E10911241FBECFEFD8E0DEBFCF
:1000D000CDBF12E0A0E0B1E0ECEDF8E102C0059088
:1000E0000D92A437B107D9F722E0A4E7B2E001C02E
:1000F0001D92AE3FB207E1F710E0C2E6D0E004C0C7
:100100002197FE010E945B0CC136D107C9F70E94FE
:1001100031060C94610C0C94000090E0FC01E25557
:10012000FF4F2491FC01E656FF4F3491FC01EA5742
:10013000FF4FE491EE23C9F0222339F0233001F17F
:10014000A8F4213019F1223029F1F0E0EE0FFF1F61
:10015000E458FF4FA591B4918FB7F894EC916111D9
:1001600026C030953E233C938FBF08952730A9F0D9
:100170002830C9F0243049F7809180008F7D03C07A
:10018000809180008F7780938000DFCF84B58F7758
:1001900084BDDBCF84B58F7DFBCF8091B0008F779E
:1001A0008093B000D2CF8091B0008F7DF9CF3E2BED
:1001B000DACFCF93DF9390E0FC01E656FF4F249116
:1001C0008A579F4FFC0184918823D1F090E0880FDB
:1001D000991FFC01EE58FF4FA591B491FC01E45822
:1001E000FF4FC591D49161110EC09FB7F8948C91C7
:1001F000E22FE0958E238C932881E223E8839FBF32
:10020000DF91CF9108958FB7F894EC91E22BEC93A6
:100210008FBFF6CF8E3008F08E5087708064809349
:100220007C0080917A00806480937A0080917A00CB
:1002300086FDFCCF809178009091790008953FB7BA
:10024000F8948091C3029091C402A091C502B0912C
:10025000C60226B5A89B05C02F3F19F00196A11D27
:10026000B11D3FBFBA2FA92F982F8827BC01CD0100
:10027000620F711D811D911D42E0660F771F881F5F
:10028000991F4A95D1F708958F929F92AF92BF928E
:10029000CF92DF92EF92FF924B015C010E941F010F
:1002A0006B017C010E941F016C197D098E099F0959
:1002B000683E734081059105A8F321E0821A9108F8
:1002C000A108B10888EEC80E83E0D81EE11CF11C1D
:1002D00081149104A104B10429F7FF90EF90DF90FD
:1002E000CF90BF90AF909F908F900895AF92BF92A4
:1002F000CF92DF92EF92FF920F931F93CF93DF93F2
:100300006C017B018B01040F151FEB015E01AE1820
:10031000BF08C017D10759F06991D601ED91FC9142
:100320000190F081E02DC6010995892B79F7C5016F
:10033000DF91CF911F910F91FF90EF90DF90CF90C1
:10034000BF90AF9008952091B6023091B702281760
:10035000390771F49091B4028091B502981741F079
:10036000E091B402F0E0EC58FD4F808190E00895F8
:100370008FEF9FEF08950895EF92FF920F931F93D1
:10038000CF93DF93DC015C96ED90FC905D97E114D8
:10039000F10479F481E090E013969C938E93129788
:1003A00090E080E0DF91CF911F910F91FF90EF904F
:1003B00008955196ED91FC91529750968C915097DB
:1003C000982F90950FB75E962C915E97122F127012
:1003D00021FD6095F8942081112319F1282B2083A9
:1003E000E7012197F1F728E0462F50E0308160FFC8
:1003F0001AC0382B3083E7012197F1F7BA017595C0
:100400006795215089F7112381F0808189238083AA
:100410000FBF5C968D919C910197F1F781E090E080
:10042000C1CF2923DCCF3923E5CF9081892BEFCFB2
:100430002091B6023091B7022817390761F48091F4
:10044000B5022091B40290E0805C9F4F821B91091D
:100450008F739927089590E080E008952091B60267
:100460003091B70228173907B9F49091B4028091FE
:10047000B502981789F0E091B402F0E0EC58FD4F16
:1004800080812091B40230E02F5F3F4F2F733327DC
:100490002093B40290E008958FEF9FEF08950895A0
:1004A00090E080E00895CF93DF93EC0160E08E81CF
:1004B0000E948D0061E08E810E948D0060E08E813F
:1004C0000E948D008BE891E00197F1F7DF91CF91C9
:1004D0000895CF92DF92EF92FF920F931F93CF93E5
:1004E000DF936C017C0187E0E80EF11CD0E0C0E0F6
:1004F000062F10E0B8010C2E02C0759567950A947E
:10050000E2F76170F70181917F010E948D002196D1
:10051000C430D10579F7C601DF91CF911F910F91BA
:10052000FF90EF90DF90CF900C945302CF92DF9228
:10053000EF92FF920F931F93CF93DF93EC01F62E70
:10054000642F8C810E948D008D818F3F19F060E0B7
:100550000E948D000F2D10E08F8584FF25C06E0155
:1005600087E0C80ED11CF12CE12CB8010E2C02C082
:10057000759567950A94E2F76170F60181916F01B4
:100580000E948D00FFEFEF1AFF0A88E0E816F104E1
:1005900061F7CE01DF91CF911F910F91FF90EF9006
:1005A000DF90CF900C945302B80184E07595679565
:1005B0008A95E1F7CE010E9469026F2DCE01DF918D
:1005C000CF911F910F91FF90EF90DF90CF900C94FF
:1005D000690240E0682F86EE92E00C94960281E07A
:1005E0000E94E9028BE39FE10197F1F70895CF9311
:1005F000DF93823029F49091F50298609093F50290
:100600008093F9021092FA0280E48093FB0280E169
:100610008093FC0280E58093FD0261E08091EA0214
:100620000E94D9008091EB028F3F19F061E00E9497
:10063000D90061E08091EC020E94D900C6EED2E0C0
:100640009E01265E32408091F50284FD0BC084E05D
:1006500090E021962817390744F461E08E810E94CA
:10066000D900EECF88E090E0F4CF8BE39DE00197D6
:10067000F1F760E08091EA020E948D0060E08091D5
:10068000EC020E948D008091EB028F3F19F060E038
:100690000E948D008091F50284FD34C063E086EEF7
:1006A00092E00E946902CBE4D6E4CE010197F1F713
:1006B00063E086EE92E00E9469022197F1F763E021
:1006C00086EE92E00E94690283E592E00197F1F7DD
:1006D00062E086EE92E00E9469028091F5028062FB
:1006E0000E94E90284E08093F6028CE00E94E90215
:1006F0000E94EF0282E08093F70286E0DF91CF91C3
:100700000C94E90280620E94E9028BE496E401976E
:10071000F1F78091F50280620E94E90283E592E0A0
:100720000197F1F78091F50280620E94E902D5CF2E
:100730009091F902891710F08FEF890FE82FF0E000
:10074000EA51FD4F848980680C94E90241E00E94DF
:10075000960281E090E00895FB0101900020E9F706
:100760003197AF01461B570BDC01ED91FC910280E4
:10077000F381E02D09948F929F92AF92BF920F93D5
:100780001F93CF93DF93CDB7DEB7A1970FB6F89441
:10079000DEBF0FBECDBF19A2423008F44AE08E0181
:1007A0000F5D1F4F842E912CB12CA12CA50194011B
:1007B0000E94390CE62FB901CA01EA3004F5E05D68
:1007C000D801EE938D01232B242B252B79F790E074
:1007D00080E0109729F0BD0186EE92E00E94AC0304
:1007E000A1960FB6F894DEBF0FBECDBFDF91CF91BB
:1007F0001F910F91BF90AF909F908F900895E95CEB
:10080000DFCFCF93DF93BC0187EC92E00E94AC0373
:10081000EC016EE171E087EC92E00E94AC038C0F7A
:100820009D1FDF91CF910895CF93DF93EC0181E27B
:1008300091E00E9401046AE070E080E090E00E9494
:1008400044018BE291E00E9401046AE070E080E0E4
:1008500090E00E944401CE010E9401046AE070E031
:1008600080E090E00E9444016AE187EC92E00E94FF
:10087000BC016EE171E087EC92E00E94AC0362E3A0
:1008800070E080E090E0DF91CF910C944401BC01D6
:1008900086EE92E00C94AC034F925F926F927F923F
:1008A0008F929F92AF92BF92CF92DF92EF92FF9280
:1008B0000F931F93CF936B017C01742EAC019B01AE
:1008C0000E94340C67E471E0811126C04601570193
:1008D000E894B7F82FEF3FEF4FE75FE7C501B401AA
:1008E0000E94340C81110CC02FEF3FEF4FE75FE700
:1008F000C501B4010E946A0A6BE471E0181664F045
:100900002FEF3FEF4FE75FE4C701B6010E94C20B34
:100910001816ACF46FE471E086EE92E0CF911F916F
:100920000F91FF90EF90DF90CF90BF90AF909F908E
:100930008F907F906F905F904F900C94AC032FEF4F
:100940003FEF4FE75FECC701B6010E946A0A87FDDF
:10095000E1CF20E030E0A901C701B6010E946A0A98
:1009600010E000E087FF0CC041E06DE286EE92E00F
:100970000E949602F7FAF094F7F8F09401E010E084
:10098000C0E060E070E080E09FE37C1641F020E092
:1009900030E040E251E40E946F0ACF5FF6CFA7013A
:1009A00096010E94FE094B015C010E94E10A2B01A5
:1009B0003C014AE00E94BB03080F191FCC23C9F178
:1009C000C301B2010E94100B9B01AC01C501B4012F
:1009D0000E94FD094B015C0141E06EE286EE92E06F
:1009E0000E9496020F5F1F4FC15018F120E030E0C7
:1009F00040E251E4C501B4010E94C70B2B013C0148
:100A00000E94E10A4B01B12CA12C4AE0C501B401BE
:100A10000E94BB03080F191FC501B4010E94100BEF
:100A20009B01AC01C301B2010E94FD094B015C01B5
:100A3000DBCFC801CF911F910F91FF90EF90DF9016
:100A4000CF90BF90AF909F908F907F906F905F906E
:100A50004F9008951F920F920FB60F9211242F936B
:100A60003F938F939F93AF93BF938091BF029091D9
:100A7000C002A091C102B091C2023091BE0223E037
:100A8000230F2D3758F50196A11DB11D2093BE02ED
:100A90008093BF029093C002A093C102B093C202A0
:100AA0008091C3029091C402A091C502B091C60288
:100AB0000196A11DB11D8093C3029093C402A0931F
:100AC000C502B093C602BF91AF919F918F913F91A4
:100AD0002F910F900FBE0F901F90189526E8230FAF
:100AE0000296A11DB11DD2CF1F920F920FB60F9289
:100AF00011242F933F934F935F936F937F938F9323
:100B00009F93AF93BF93EF93FF93E091B602F09161
:100B1000B702309749F0A685B7858585968D91FFF8
:100B200014C09C918923A1F4FF91EF91BF91AF91E3
:100B30009F918F917F916F915F914F913F912F91F5
:100B40000F900FBE0F901F9018959C91892361F70D
:100B5000A389B4899C918589809589238C93868902
:100B600097890197F1F7608D718DA685B7855585B9
:100B700038E020E0CB010197F1F7822F90E09595C6
:100B80008795282F4C91452309F02068315091F723
:100B9000868D81FD20958091B50290E001968F733E
:100BA00099273091B402381799F0A091B502B0E0BE
:100BB000AC58BD4F2C938093B502828D938D0197D5
:100BC000F1F7A389B4898C919589892B8C93ACCF4B
:100BD000868D8160868FF1CFCF92DF92EF92FF9268
:100BE0000F931F93E82FF92F05C001501109210918
:100BF000310961F1908196239417B9F305C0015032
:100C000011092109310911F1908196239413F7CF2D
:100C1000C12CD12CE12CF12C0AC08FEFC81AD80AB4
:100C2000E80AF80A0C151D052E053F0579F08081AC
:100C30008623841791F36C2D7D2D8E2D9F2D1F9172
:100C40000F91FF90EF90DF90CF90089560E070E0FB
:100C500080E090E01F910F91FF90EF90DF90CF9098
:100C60000895CF93DF93CDB7DEB728970FB6F894EA
:100C7000DEBF0FBECDBF789484B5826084BD84B5DD
:100C8000816084BD85B5826085BD85B5816085BD87
:100C900080916E00816080936E001092810080913F
:100CA00081008260809381008091810081608093C7
:100CB0008100809180008160809380008091B100EC
:100CC00084608093B1008091B00081608093B00017
:100CD00080917A00846080937A0080917A008260AB
:100CE00080937A0080917A00816080937A0080916D
:100CF0007A00806880937A001092C10061E08DE0F4
:100D00000E94D90061E089E00E94D90060E08AE099
:100D10000E94D90082E00E94F70283E591E00E94E0
:100D2000470481E00E94980387E691E00E9447040F
:100D300064E670E080E090E00E9444010E94EF02CF
:100D40001092E2021092E1021092E0021092DF0291
:100D50001092DE021092DD028DE991E09093E402A0
:100D60008093E3029091D302963108F047C02DEBB7
:100D700030E03093DE022093DD022BE931E0309346
:100D8000E0022093DF022CE231E03093E202209374
:100D9000E1022091680084E0983048F031E09E3014
:100DA00008F430E081E001C0880F3A95EAF7822B21
:100DB000809368002DE630E0983050F02BE630E06C
:100DC0009E3030F02CE630E0963110F030E020E03C
:100DD0003093DB022093DA02292F30E0983008F0BC
:100DE00021C281E001C0880F9A95EAF78093DC0266
:100DF0008091E3029091E4020197F1F78091E10282
:100E00009091E202892B49F1E091B602F091B7028C
:100E100082E0E73CF80709F1309739F0A389B489FB
:100E20009C918589809589238C938091E5028E7FA2
:100E30008093E5021092B5021092B40287EC92E022
:100E40009093B7028093B602E091DA02F091DB0250
:100E500080819091DC02892B80836AE070E080E0E1
:100E600090E00E9444018AE791E00E94140493E21A
:100E7000292E312C61E08DE00E948D0081E080936D
:100E8000BD028FE00E940A01BC01990F880B990BEB
:100E90000E94120B20E030E040EA5BE30E94C70BA7
:100EA00024EA30E74DED50E40E94C70B24EA30E716
:100EB0004DE35EE30E946F0A6B017C0180E10E94BA
:100EC0000A01BC01990F880B990B0E94120B20E0BC
:100ED00030E84BEB55E40E94C70B20E030EC4FE7C5
:100EE00054E40E946F0A2B013C018EE00E940A012B
:100EF000BC01990F880B990B0E94120B20E030E087
:100F000040EA5BE30E94C70B20E030E048EC52E48B
:100F10000E94C70B6D837E838F83988760E089E092
:100F20000E948D0083E090E00197F1F761E089E095
:100F30000E948D00C1010197F1F760E089E00E94F5
:100F40008D00E4EAF0E06491E0E9F0E08491E82FBC
:100F5000F0E0EE0FFF1FE859FF4F8591949100E4F8
:100F600012E42FE030E0462F0E94EC056115710578
:100F70008105910529F06F5F7F4F8F4F9F4F9F70C5
:100F80000E94120B26E933E44BE05DE30E94C70B9D
:100F900020E030E040E05FE30E94C70B69837A8382
:100FA0008B839C8320E030E049E353E4C701B60122
:100FB0000E946F0A20E030E048EC52E40E94C70B28
:100FC0004B015C0111E020E030E049E353E4C7014C
:100FD000B6010E94C20B18160CF010E01093BC0270
:100FE00020E030EA4CE855E4C301B2010E946A0AED
:100FF000881F8827881F8093BB0211E020E030E023
:1010000048EC52E46D817E818F8198850E94C20BED
:1010100018160CF010E01093BA0220E030E040E225
:1010200052E469817A818B819C810E946A0A881FBF
:101030008827881F8093B90211E020E030E04EEB52
:1010400052E4C501B4010E94C20B18160CF010E066
:101050001093B8020E94EF0280E00E9498038DE88E
:1010600091E00E94470442E0C701B6010E944C048F
:1010700087E991E00E94470481E00E9498038AE991
:1010800091E00E94470442E0C301B2010E944C0477
:1010900084EA91E00E94470468EE73E080E090E00B
:1010A0000E9444010E94EF0280E00E94980387EAB8
:1010B00091E00E94470442E06D817E818F81988596
:1010C0000E944C048EEA91E00E94470481E00E9455
:1010D000980381EB91E00E94470442E069817A81A4
:1010E0008B819C810E944C048BEB91E00E94470411
:1010F00068EE73E080E090E00E9444010E94EF02FD
:1011000080E00E9498038FEB91E00E94470442E048
:10111000C501B4010E944C048BEC91E00E9447048D
:1011200068EE73E080E090E00E9444018091BC0290
:10113000882381F00E94EF028EEC91E00E94470428
:101140008BED91E00E94140468EE73E080E090E083
:101150000E9444018091BB02882381F00E94EF022B
:101160008EEE91E00E9447048AEF91E00E94140401
:1011700068EE73E080E090E00E9444018091BA0242
:10118000882381F00E94EF028CE092E00E944704E5
:101190008DE192E00E94140468EE73E080E090E03C
:1011A0000E9444018091B902882381F00E94EF02DD
:1011B00084E392E00E94470482E492E00E941404D7
:1011C00068EE73E080E090E00E9444018091B802F4
:1011D000882381F00E94EF0286E592E00E94470496
:1011E00082E692E00E94140468E873E180E090E0F7
:1011F0000E9444011091BC028091BD0211111FC0D8
:101200009091B802911142C09091BB0291113EC0E1
:10121000811123C061E08DE00E948D0081E0809308
:10122000BD0217C09E3040F42850310981E001C052
:10123000880F2A95EAF7DACD2E503109F7CF8823A7
:10124000B9F060E08DE00E948D001092BD02111196
:101250000FC08091B80281110BC08091BD02811135
:1012600007C061E08DE00E948D0081E08093BD02A7
:1012700064E670E080E090E00E94440180E090E04D
:10128000892B09F4F7CD0E940000F4CD882309F3DF
:10129000D8CF1092CA021092C90288EE93E0A0E063
:1012A000B0E08093CB029093CC02A093CD02B09398
:1012B000CE0280E191E09093C8028093C702109221
:1012C000DE021092DD021092E0021092DF02109214
:1012D000E2021092E1021092E4021092E3026091A5
:1012E000E5026E7F6D7F6093E5026695617081E037
:1012F000682780E00E948D0061E080E00E94D900B4
:10130000EAE9F0E0E491E093D702E6E8F0E0E49166
:10131000F0E0EE0FFF1FE458FF4F859194919093FA
:10132000D9028093D80260E081E00E94D9008091C8
:10133000E50281FD04C061E081E00E948D0081E052
:101340008093D302EBE9F0E0E491E093D402E7E884
:10135000F0E0E491F0E0EE0FFF1FE859FF4F8591B8
:1013600094919093D6028093D5021092E902109244
:10137000E80284E091E09093E7028093E60287E040
:101380008093EA028FEF8093EB0286E08093EC0279
:1013900085E08093ED0284E08093EE0283E0809309
:1013A000EF0282E08093F0021092F1021092F202BA
:1013B0001092F3021092F4021092F50281E00C9464
:1013C000F70280E191E09093C8028093C702809178
:1013D000B6029091B702875C924071F4E091DA0214
:1013E000F091DB0290818091DC02809589238083DB
:1013F0001092B7021092B60208955058BB27AA2740
:101400000E94150A0C94880B0E947A0B38F00E94F7
:10141000810B20F039F49F3F19F426F40C94770BDC
:101420000EF4E095E7FB0C94710BE92F0E94990BE9
:1014300058F3BA17620773078407950720F079F409
:10144000A6F50C94BB0B0EF4E0950B2EBA2FA02D35
:101450000B01B90190010C01CA01A0011124FF2761
:10146000591B99F0593F50F4503E68F11A16F0405C
:10147000A22F232F342F4427585FF3CF469537955B
:101480002795A795F0405395C9F77EF41F16BA0B20
:10149000620B730B840BBAF09150A1F0FF0FBB1FCE
:1014A000661F771F881FC2F70EC0BA0F621F731F17
:1014B000841F48F4879577956795B795F7959E3F74
:1014C00008F0B0CF9395880F08F09927EE0F979505
:1014D000879508950E944D0B08F481E008950E94BD
:1014E000830A0C94880B0E94810B58F00E947A0B9F
:1014F00040F029F45F3F29F00C94710B51110C94CA
:10150000BC0B0C94770B0E94990B68F39923B1F3F1
:10151000552391F3951B550BBB27AA276217730719
:10152000840738F09F5F5F4F220F331F441FAA1FAD
:10153000A9F335D00E2E3AF0E0E832D09150504069
:10154000E695001CCAF72BD0FE2F29D0660F771F17
:10155000881FBB1F261737074807AB07B0E809F0FD
:10156000BB0B802DBF01FF2793585F4F3AF09E3F82
:10157000510578F00C94710B0C94BC0B5F3FE4F3B5
:10158000983ED4F3869577956795B795F7959F5FC5
:10159000C9F7880F911D9695879597F90895E1E011
:1015A000660F771F881FBB1F621773078407BA0770
:1015B00020F0621B730B840BBA0BEE1F88F7E095CB
:1015C00008950E94A10B88F09F5798F0B92F992792
:1015D000B751B0F0E1F0660F771F881F991F1AF01E
:1015E000BA95C9F714C0B13091F00E94BB0BB1E0BD
:1015F00008950C94BB0B672F782F8827B85F39F0BC
:10160000B93FCCF3869577956795B395D9F73EF4B6
:1016100090958095709561957F4F8F4F9F4F08955E
:10162000E89409C097FB3EF490958095709561957C
:101630007F4F8F4F9F4F9923A9F0F92F96E9BB2732
:101640009395F695879577956795B795F111F8CFAE
:10165000FAF4BB0F11F460FF1BC06F5F7F4F8F4F19
:101660009F4F16C0882311F096E911C0772321F00F
:101670009EE8872F762F05C0662371F096E8862FA7
:1016800070E060E02AF09A95660F771F881FDAF7FE
:10169000880F9695879597F90895990F0008550F2B
:1016A000AA0BE0E8FEEF16161706E807F907C0F0E8
:1016B00012161306E407F50798F0621B730B840BF0
:1016C000950B39F40A2661F0232B242B252B21F4CA
:1016D00008950A2609F4A140A6958FEF811D811D6A
:1016E000089597F99F6780E870E060E008959FEFA4
:1016F00080EC089500240A941616170618060906A9
:10170000089500240A941216130614060506089577
:10171000092E0394000C11F4882352F0BB0F40F4FF
:10172000BF2B11F460FF04C06F5F7F4F8F4F9F4F3F
:10173000089557FD9058440F551F59F05F3F71F0C1
:101740004795880F97FB991F61F09F3F79F0879528
:101750000895121613061406551FF2CF4695F1DFB1
:1017600008C0161617061806991FF1CF8695710541
:10177000610508940895E894BB2766277727CB0175
:1017800097F908950E944D0B08F48FEF08950E9479
:10179000DA0B0C94880B0E947A0B38F00E94810BB4
:1017A00020F0952311F00C94710B0C94770B1124FD
:1017B0000C94BC0B0E94990B70F3959FC1F3950F8D
:1017C00050E0551F629FF001729FBB27F00DB11DC5
:1017D000639FAA27F00DB11DAA1F649F6627B00D55
:1017E000A11D661F829F2227B00DA11D621F739F3E
:1017F000B00DA11D621F839FA00D611D221F749F4C
:101800003327A00D611D231F849F600D211D822F92
:10181000762F6A2F11249F5750409AF0F1F08823B9
:101820004AF0EE0FFF1FBB1F661F771F881F9150E6
:101830005040A9F79E3F510580F00C94710B0C9419
:10184000BC0B5F3FE4F3983ED4F38695779567959C
:10185000B795F795E7959F5FC1F7FE2B880F911D10
:101860009695879597F908950E944D0B880B990BD3
:101870000895A1E21A2EAA1BBB1BFD010DC0AA1FD1
:10188000BB1FEE1FFF1FA217B307E407F50720F0E9
:10189000A21BB30BE40BF50B661F771F881F991F64
:1018A0001A9469F760957095809590959B01AC01AD
:1018B000BD01CF010895EE0FFF1F0590F491E02DBB
:1018C000099410E0C2E6D0E004C0FE010E945B0C67
:0C18D0002196C336D107C9F7F894FFCF6A
:1018DC0000000000A603760150024F020000000039
:1018EC00BC0176015002BB0118022E02A3010D0AA5
:1018FC000041542B434D47463D310041542B434D41
:10190C0047533D22504552534F4E454C20494E4370
:10191C00484152474522006E616E00696E66006F49
:10192C007666005472616E73666F726D6572204DCF
:10193C006F6E69746F7200616E6420436F6E7472A7
:10194C006F6C2053797374656D0053797374656D86
:10195C0020696E697469616C697A6564004375729B
:10196C0072656E743A2000204100566F6C7461678A
:10197C00653A200020560054656D703A20002043D3
:10198C00004F696C204C766C3A200020636D004C43
:10199C006F6164696E6720253A20002025004F7620
:1019AC0065722D43757272656E74004F7665722D7B
:1019BC0043757272656E74204661756C74004C6F61
:1019CC007720566F6C74616765004C6F7720566F8B
:1019DC006C74616765204661756C74004869676852
:1019EC002054656D70657261747572650048696725
:1019FC00682054656D7065726174757265204661FE
:101A0C00756C74004C6F77204F696C204C65766553
:101A1C006C004C6F77204F696C204C6576656C20A0
:101A2C004661756C74004F7665726C6F6164696E9B
:101A3C0067004F7665726C6F6164696E67204661F2
:041A4C00756C740041
:00000001FF
