:020000040000FA
:100000000C945D000C9485000C9485000C94850084
:100010000C9485000C9485000C9485000C9485004C
:100020000C9485000C9485000C9485000C9485003C
:100030000C9485000C9485000C9485000C9485002C
:100040000C946C030C9485000C94DC030C94B603A4
:100050000C9485000C9485000C9485000C9485000C
:100060000C9485000C9485000000000024002700FB
:100070002A0000000000250028002B0004040404CE
:100080000404040402020202020203030303030342
:10009000010204081020408001020408102001021F
:1000A00004081020000000080002010000030407FB
:1000B00000000000000000000E0411241FBECFEF5E
:1000C000D8E0DEBFCDBF11E0A0E0B1E0E6EFF9E09F
:1000D00002C005900D92AE31B107D9F721E0AEE133
:1000E000B1E001C01D92AC3DB207E1F710E0CDE5F3
:1000F000D0E004C02197FE010E94F304CC35D10763
:10010000C9F70E9458040C94F9040C94000090E084
:10011000FC01EC55FF4F2491FC01E057FF4F349157
:10012000FC01E458FF4FE491EE23C9F0222339F09B
:10013000233001F1A8F4213019F1223029F1F0E047
:10014000EE0FFF1FEE58FF4FA591B4918FB7F894B3
:10015000EC91611126C030953E233C938FBF0895EA
:100160002730A9F02830C9F0243049F78091800069
:100170008F7D03C0809180008F7780938000DFCFD8
:1001800084B58F7784BDDBCF84B58F7DFBCF809125
:10019000B0008F778093B000D2CF8091B0008F7D78
:1001A000F9CF3E2BDACFCF93DF9390E0FC01E057FD
:1001B000FF4F249184589F4FFC0184918823D1F0F4
:1001C00090E0880F991FFC01E859FF4FA591B49169
:1001D000FC01EE58FF4FC591D49161110EC09FB73D
:1001E000F8948C91E22FE0958E238C932881E22362
:1001F000E8839FBFDF91CF9108958FB7F894EC917A
:10020000E22BEC938FBFF6CFAF92BF92CF92DF92EB
:10021000EF92FF920F931F93CF93DF936C017B01BB
:100220008B01040F151FEB015E01AE18BF08C0174C
:10023000D10759F06991D601ED91FC910190F081BF
:10024000E02DC6010995892B79F7C501DF91CF9182
:100250001F910F91FF90EF90DF90CF90BF90AF90E4
:100260000895FC01538D448D252F30E0842F90E0BC
:10027000821B930B541710F0CF96089501970895A1
:10028000FC01918D828D981761F0A28DAE0FBF2F6A
:10029000B11D5D968C91928D9F5F9F73928F90E0C0
:1002A00008958FEF9FEF0895FC01918D828D98172F
:1002B00031F0828DE80FF11D858D90E008958FEF6C
:1002C0009FEF0895FC01918D228D892F90E0805C35
:1002D0009F4F821B91098F739927089587E291E0C0
:1002E0000E94620121E0892B09F420E0822F089509
:1002F00080E090E0892B29F00E946E0181110C941E
:1003000000000895FC01A48DA80FB92FB11DA35AB8
:10031000BF4F2C91848D90E001968F739927848F25
:10032000A689B7892C93A089B1898C918370806448
:100330008C93938D848D981306C00288F389E02DE9
:1003400080818F7D80830895EF92FF920F931F939A
:10035000CF93DF93EC0181E0888F9B8D8C8D981378
:100360001AC0E889F989808185FF15C09FB7F89484
:10037000EE89FF896083E889F989808183708064D0
:1003800080839FBF81E090E0DF91CF911F910F911B
:10039000FF90EF900895F62E0B8D10E00F5F1F4F2A
:1003A0000F731127E02E8C8D8E110CC00FB607FC39
:1003B000FACFE889F989808185FFF5CFCE010E94C7
:1003C0008201F1CFEB8DEC0FFD2FF11DE35AFF4FB2
:1003D000F0829FB7F8940B8FEA89FB898081806255
:1003E000CFCFCF93DF93EC01888D8823B9F0AA8912
:1003F000BB89E889F9898C9185FD03C0808186FDE0
:100400000DC00FB607FCF7CF8C9185FFF2CF80812E
:1004100085FFEDCFCE010E948201E9CFDF91CF9120
:100420000895089590E080E00895CF93DF93EC0164
:1004300060E08E810E94870061E08E810E948700CB
:1004400060E08E810E9487008BE891E00197F1F7D0
:10045000DF91CF910895CF92DF92EF92FF920F93A9
:100460001F93CF93DF936C017C0187E0E80EF11CB2
:10047000D0E0C0E0062F10E0B8010C2E02C0759548
:1004800067950A94E2F76170F70181917F010E94FC
:1004900087002196C430D10579F7C601DF91CF914D
:1004A0001F910F91FF90EF90DF90CF900C94150269
:1004B000CF92DF92EF92FF920F931F93CF93DF9330
:1004C000EC01F62E642F8C810E9487008D818F3F76
:1004D00019F060E00E9487000F2D10E08F8584FFE7
:1004E00025C06E0187E0C80ED11CF12CE12CB801AB
:1004F0000E2C02C0759567950A94E2F76170F601BB
:1005000081916F010E948700FFEFEF1AFF0A88E0D8
:10051000E816F10461F7CE01DF91CF911F910F91A1
:10052000FF90EF90DF90CF900C941502B80184E01B
:10053000759567958A95E1F7CE010E942B026F2D84
:10054000CE01DF91CF911F910F91FF90EF90DF903F
:10055000CF900C942B02CF93DF93823029F49091AB
:10056000D30198609093D3018093D7011092D80162
:1005700080E48093D90180E18093DA0180E5809363
:10058000DB0161E08091C8010E94D3008091C90124
:100590008F3F19F061E00E94D30061E08091CA01B1
:1005A0000E94D300C4ECD1E09E01245C31408091D4
:1005B000D30184FD0BC084E090E021962817390711
:1005C00044F461E08E810E94D300EECF88E090E099
:1005D000F4CF8BE39DE00197F1F760E08091C801D3
:1005E0000E94870060E08091CA010E94870080918C
:1005F000C9018F3F19F060E00E9487006091D3012C
:1006000064FD45C063E084EC91E00E942B02CBE4E2
:10061000D6E4CE010197F1F763E084EC91E00E940B
:100620002B022197F1F763E084EC91E00E942B020A
:1006300083E592E00197F1F762E084EC91E00E949B
:100640002B026091D301606240E084EC91E00E9453
:10065000580284E08093D40140E06CE084EC91E0A7
:100660000E94580240E061E084EC91E00E94580250
:100670008BE39FE10197F1F782E08093D50140E0A1
:1006800066E084EC91E0DF91CF910C9458026062B7
:1006900040E084EC91E00E9458028BE496E40197DC
:1006A000F1F76091D301606240E084EC91E00E9438
:1006B000580283E592E00197F1F76091D3016062FF
:1006C00040E084EC91E00E945802BBCF41E00E94E0
:1006D000580281E090E008951F920F920FB60F929A
:1006E00011242F933F938F939F93AF93BF93809148
:1006F000230190912401A0912501B0912601309110
:10070000220123E0230F2D3758F50196A11DB11DBD
:10071000209322018093230190932401A09325012B
:10072000B093260180911E0190911F01A09120019C
:10073000B09121010196A11DB11D80931E019093DE
:100740001F01A0932001B0932101BF91AF919F9110
:100750008F913F912F910F900FBE0F901F90189582
:1007600026E8230F0296A11DB11DD2CF1F920F9232
:100770000FB60F9211242F933F934F935F936F9374
:100780007F938F939F93AF93BF93EF93FF9387E2F2
:1007900091E00E948201FF91EF91BF91AF919F91F3
:1007A0008F917F916F915F914F913F912F910F901A
:1007B0000FBE0F901F9018951F920F920FB60F92B9
:1007C00011242F938F939F93EF93FF93E091370121
:1007D000F09138018081E0913D01F0913E0182FD70
:1007E0001BC09081809140018F5F8F7320914101E8
:1007F000821741F0E0914001F0E0E95DFE4F958FF6
:1008000080934001FF91EF919F918F912F910F90D5
:100810000FBE0F901F9018958081F4CFE7E2F1E0B2
:100820001382128288EE93E0A0E0B0E08483958387
:10083000A683B78384E091E09183808385EC90E088
:100840009587848784EC90E09787868780EC90E09A
:10085000918B808B81EC90E0938B828B82EC90E08B
:10086000958B848B86EC90E0978B868B118E128E05
:10087000138E148EE4ECF1E01382128286E191E093
:10088000918380838CE084838FEF85838BE08683E4
:1008900085E0878384E0808783E0818782E08287A8
:1008A0001386148615861686178681E00C94AB0293
:1008B000789484B5826084BD84B5816084BD85B53B
:1008C000826085BD85B5816085BD80916E00816047
:1008D00080936E00109281008091810082608093ED
:1008E00081008091810081608093810080918000EF
:1008F0008160809380008091B10084608093B1001A
:100900008091B00081608093B00080917A00846013
:1009100080937A0080917A00826080937A0080913F
:100920007A00816080937A0080917A008068809359
:100930007A001092C100E0913701F091380182E015
:100940008083E0913301F09134018DE08083E09168
:100950003501F091360184E0808310923F01E091EF
:100960003B01F0913C0186E08083E0913901F091F8
:100970003A01808180618083E0913901F0913A01F0
:10098000808188608083E0913901F0913A01808113
:1009900080688083E0913901F0913A0180818F7DF8
:1009A000808382E00E94AB0261E088E00E94D30075
:1009B00061E089E00E94D30060E08EE00E94D300F5
:1009C00060E080E10E94D30060E082E10E94D300F9
:1009D000C0E0D0E02097F1F30E946E018823D1F3AC
:1009E0000E940000F7CFEE0FFF1F0590F491E02D5D
:1009F0000994F894FFCF00000000A4010401310124
:100A0000F10162014001540100000000660304018D
:040A100012021102BB
:107E0000112484B714BE81FFF0D085E080938100F7
:107E100082E08093C00088E18093C10086E0809377
:107E2000C20080E18093C4008EE0C9D0259A86E02C
:107E300020E33CEF91E0309385002093840096BBD3
:107E4000B09BFECF1D9AA8958150A9F7CC24DD24C4
:107E500088248394B5E0AB2EA1E19A2EF3E0BF2EE7
:107E6000A2D0813461F49FD0082FAFD0023811F036
:107E7000013811F484E001C083E08DD089C08234E0
:107E800011F484E103C0853419F485E0A6D080C0E4
:107E9000853579F488D0E82EFF2485D0082F10E0AE
:107EA000102F00270E291F29000F111F8ED06801E7
:107EB0006FC0863521F484E090D080E0DECF843638
:107EC00009F040C070D06FD0082F6DD080E0C81688
:107ED00080E7D80618F4F601B7BEE895C0E0D1E017
:107EE00062D089930C17E1F7F0E0CF16F0E7DF06D8
:107EF00018F0F601B7BEE89568D007B600FCFDCFD4
:107F0000A601A0E0B1E02C9130E011968C91119780
:107F100090E0982F8827822B932B1296FA010C0160
:107F200087BEE89511244E5F5F4FF1E0A038BF0790
:107F300051F7F601A7BEE89507B600FCFDCF97BE46
:107F4000E89526C08437B1F42ED02DD0F82E2BD052
:107F50003CD0F601EF2C8F010F5F1F4F84911BD097
:107F6000EA94F801C1F70894C11CD11CFA94CF0C13
:107F7000D11C0EC0853739F428D08EE10CD085E9AC
:107F80000AD08FE07ACF813511F488E018D01DD067
:107F900080E101D065CF982F8091C00085FFFCCF94
:107FA0009093C60008958091C00087FFFCCF809118
:107FB000C00084FD01C0A8958091C6000895E0E648
:107FC000F0E098E1908380830895EDDF803219F02E
:107FD00088E0F5DFFFCF84E1DECF1F93182FE3DFCA
:107FE0001150E9F7F2DF1F91089580E0E8DFEE27F6
:047FF000FF270994CA
:027FFE00040479
:00000001FF
