:100000000C945D000C9485000C9485000C94850084
:100010000C9485000C9485000C9485000C9485004C
:100020000C9485000C9485000C9485000C9485003C
:100030000C9485000C9485000C9485000C9485002C
:100040000C941B050C9485000C948B050C94650591
:100050000C9485000C9485000C9485000C9485000C
:100060000C9485000C9485000000000024002700FB
:100070002A0000000000250028002B0004040404CE
:100080000404040402020202020203030303030342
:10009000010204081020408001020408102001021F
:1000A00004081020000000080002010000030407FB
:1000B0000000000000000000BD0511241FBECFEFAE
:1000C000D8E0DEBFCDBF11E0A0E0B1E0E8E7F5E1A8
:1000D00002C005900D92AC37B107D9F722E0ACE72A
:1000E000B1E001C01D92A434B207E1F710E0CDE504
:1000F000D0E004C02197FE010E94B40ACC35D1079C
:10010000C9F70E9407060C94BA0A0C94000090E00C
:10011000FC01EC55FF4F2491FC01E057FF4F349157
:10012000FC01E458FF4FE491EE23C9F0222339F09B
:10013000233001F1A8F4213019F1223029F1F0E047
:10014000EE0FFF1FEE58FF4FA591B4918FB7F894B3
:10015000EC91611126C030953E233C938FBF0895EA
:100160002730A9F02830C9F0243049F78091800069
:100170008F7D03C0809180008F7780938000DFCFD8
:1001800084B58F7784BDDBCF84B58F7DFBCF809125
:10019000B0008F778093B000D2CF8091B0008F7D78
:1001A000F9CF3E2BDACFCF93DF9390E0FC01E057FD
:1001B000FF4F249184589F4FFC0184918823D1F0F4
:1001C00090E0880F991FFC01E859FF4FA591B49169
:1001D000FC01EE58FF4FC591D49161110EC09FB73D
:1001E000F8948C91E22FE0958E238C932881E22362
:1001F000E8839FBFDF91CF9108958FB7F894EC917A
:10020000E22BEC938FBFF6CF8E3008F08E508770C4
:10021000806480937C0080917A00806480937A006F
:1002200080917A0086FDFCCF8091780090917900D2
:1002300008953FB7F89480918B0190918C01A09123
:100240008D01B0918E0126B5A89B05C02F3F19F0F6
:100250000196A11DB11D3FBFBA2FA92F982F882746
:10026000BC01CD01620F711D811D911D42E0660F21
:10027000771F881F991F4A95D1F708958F929F92F3
:10028000AF92BF92CF92DF92EF92FF924B015C014F
:100290000E9419016B017C010E9419016C197D09F2
:1002A0008E099F09683E734081059105A8F321E0FE
:1002B000821A9108A108B10888EEC80E83E0D81E02
:1002C000E11CF11C81149104A104B10429F7FF90F1
:1002D000EF90DF90CF90BF90AF909F908F90089558
:1002E000AF92BF92CF92DF92EF92FF920F931F9344
:1002F000CF93DF936C017B018B01040F151FEB0182
:100300005E01AE18BF08C017D10759F06991D60138
:10031000ED91FC910190F081E02DC6010995892BAA
:1003200079F7C501DF91CF911F910F91FF90EF9069
:10033000DF90CF90BF90AF900895FC01538D448D16
:10034000252F30E0842F90E0821B930B541710F080
:10035000CF96089501970895FC01918D828D98178D
:1003600061F0A28DAE0FBF2FB11D5D968C91928D65
:100370009F5F9F73928F90E008958FEF9FEF089596
:10038000FC01918D828D981731F0828DE80FF11D5F
:10039000858D90E008958FEF9FEF0895FC01918D7A
:1003A000228D892F90E0805C9F4F821B91098F7373
:1003B000992708958FE891E00E94CE0121E0892BD2
:1003C00009F420E0822F089580E090E0892B29F045
:1003D0000E94DA0181110C9400000895FC01A48DA3
:1003E000A80FB92FB11DA35ABF4F2C91848D90E057
:1003F00001968F739927848FA689B7892C93A0893A
:10040000B1898C91837080648C93938D848D9813C3
:1004100006C00288F389E02D80818F7D8083089556
:10042000EF92FF920F931F93CF93DF93EC0181E044
:10043000888F9B8D8C8D98131AC0E889F9898081EB
:1004400085FF15C09FB7F894EE89FF896083E8891E
:10045000F98980818370806480839FBF81E090E010
:10046000DF91CF911F910F91FF90EF900895F62E9D
:100470000B8D10E00F5F1F4F0F731127E02E8C8D37
:100480008E110CC00FB607FCFACFE889F98980817C
:1004900085FFF5CFCE010E94EE01F1CFEB8DEC0F81
:1004A000FD2FF11DE35AFF4FF0829FB7F8940B8F99
:1004B000EA89FB8980818062CFCFCF93DF93EC0103
:1004C000888D8823B9F0AA89BB89E889F9898C913C
:1004D00085FD03C0808186FD0DC00FB607FCF7CFF8
:1004E0008C9185FFF2CF808185FFEDCFCE010E94F8
:1004F000EE01E9CFDF91CF910895089590E080E07B
:100500000895CF93DF93EC0160E08E810E94870015
:1005100061E08E810E94870060E08E810E948700EA
:100520008BE891E00197F1F7DF91CF910895CF9299
:10053000DF92EF92FF920F931F93CF93DF936C01A3
:100540007C0187E0E80EF11CD0E0C0E0062F10E04F
:10055000B8010C2E02C0759567950A94E2F7617098
:10056000F70181917F010E9487002196C430D10557
:1005700079F7C601DF91CF911F910F91FF90EF9016
:10058000DF90CF900C948102CF92DF92EF92FF9296
:100590000F931F93CF93DF93EC01F62E642F8C8182
:1005A0000E9487008D818F3F19F060E00E948700D4
:1005B0000F2D10E08F8584FF25C06E0187E0C80EE7
:1005C000D11CF12CE12CB8010E2C02C07595679559
:1005D0000A94E2F76170F60181916F010E94870031
:1005E000FFEFEF1AFF0A88E0E816F10461F7CE0189
:1005F000DF91CF911F910F91FF90EF90DF90CF90FF
:100600000C948102B80184E0759567958A95E1F7AD
:10061000CE010E9497026F2DCE01DF91CF911F91E5
:100620000F91FF90EF90DF90CF900C94970240E0F5
:10063000682F8CE292E00C94C40281E00E941703C0
:100640008BE39FE10197F1F70895CF93DF93823019
:1006500029F490913B02986090933B0280933F0273
:100660001092400280E48093410280E18093420234
:1006700080E58093430261E0809130020E94D300C4
:10068000809131028F3F19F061E00E94D30061E058
:10069000809132020E94D300CCE2D2E09E012C5223
:1006A000324080913B0284FD0BC084E090E02196B3
:1006B0002817390744F461E08E810E94D300EECF01
:1006C00088E090E0F4CF8BE39DE00197F1F760E0E4
:1006D000809130020E94870060E0809132020E9487
:1006E0008700809131028F3F19F060E00E948700FF
:1006F00080913B0284FD34C063E08CE292E00E9472
:100700009702CBE4D6E4CE010197F1F763E08CE2E7
:1007100092E00E9497022197F1F763E08CE292E069
:100720000E94970283E592E00197F1F762E08CE284
:1007300092E00E94970280913B0280620E94170320
:1007400084E080933C028CE00E9417030E941D030A
:1007500082E080933D0286E0DF91CF910C941703F5
:1007600080620E9417038BE496E40197F1F7809171
:100770003B0280620E94170383E592E00197F1F744
:1007800080913B0280620E941703D5CF41E00E9416
:10079000C40281E090E00895FB0101900020E9F798
:1007A0003197AF01461B570BDC01ED91FC910280A4
:1007B000F381E02D09948F929F92AF92BF920F9395
:1007C0001F93CF93DF93CDB7DEB7A1970FB6F89401
:1007D000DEBF0FBECDBF19A2423008F44AE08E0141
:1007E0000F5D1F4F842E912CB12CA12CA5019401DB
:1007F0000E94920AE62FB901CA01EA3004F5E05DD1
:10080000D801EE938D01232B242B252B79F790E033
:1008100080E0109729F0BD018CE292E00E94CC03A9
:10082000A1960FB6F894DEBF0FBECDBFDF91CF917A
:100830001F910F91BF90AF909F908F900895E95CAA
:10084000DFCF4F925F926F927F928F929F92AF9283
:10085000BF92CF92DF92EF92FF920F931F93CF93AD
:100860006B017C01742EAC019B010E948D0A6EE12C
:1008700071E0811126C046015701E894B7F82FEFC7
:100880003FEF4FE75FE7C501B4010E948D0A811178
:100890000CC02FEF3FEF4FE75FE7C501B4010E94A7
:1008A000C30862E271E0181664F02FEF3FEF4FE7E4
:1008B0005FE4C701B6010E941B0A1816ACF466E299
:1008C00071E08CE292E0CF911F910F91FF90EF9039
:1008D000DF90CF90BF90AF909F908F907F906F9060
:1008E0005F904F900C94CC032FEF3FEF4FE75FECFE
:1008F000C701B6010E94C30887FDE1CF20E030E0C8
:10090000A901C701B6010E94C30810E000E087FFFB
:100910000CC041E06DE28CE292E00E94C402F7FA62
:10092000F094F7F8F09401E010E0C0E060E070E0CF
:1009300080E09FE37C1641F020E030E040E251E4AB
:100940000E94C808CF5FF6CFA70196010E94570802
:100950004B015C010E943A092B013C014AE00E94D4
:10096000DB03080F191FCC23C9F1C301B2010E9498
:1009700069099B01AC01C501B4010E9456084B01F5
:100980005C0141E06EE28CE292E00E94C4020F5FE3
:100990001F4FC15018F120E030E040E251E4C501A2
:1009A000B4010E94200A2B013C010E943A094B012C
:1009B000B12CA12C4AE0C501B4010E94DB03080F51
:1009C000191FC501B4010E9469099B01AC01C30153
:1009D000B2010E9456084B015C01DBCFC801CF91E8
:1009E0001F910F91FF90EF90DF90CF90BF90AF904D
:1009F0009F908F907F906F905F904F900895CF93CE
:100A0000DF93FB019081911113C0EB0161E00E9423
:100A1000870018826AE271E08FE891E00E94CC03BF
:100A20006CE371E08FE891E0DF91CF910C94CC03FF
:100A3000DF91CF9108951F920F920FB60F9211245C
:100A40002F933F938F939F93AF93BF938091870191
:100A500090918801A0918901B0918A01309186011D
:100A600023E0230F2D3758F50196A11DB11D2093CA
:100A700086018093870190938801A0938901B093A8
:100A80008A0180918B0190918C01A0918D01B09190
:100A90008E010196A11DB11D80938B0190938C0155
:100AA000A0938D01B0938E01BF91AF919F918F91D3
:100AB0003F912F910F900FBE0F901F90189526E831
:100AC000230F0296A11DB11DD2CF1F920F920FB618
:100AD0000F9211242F933F934F935F936F937F93C4
:100AE0008F939F93AF93BF93EF93FF938FE891E022
:100AF0000E94EE01FF91EF91BF91AF919F918F9175
:100B00007F916F915F914F913F912F910F900FBE09
:100B10000F901F9018951F920F920FB60F921124ED
:100B20002F938F939F93EF93FF93E0919F01F09109
:100B3000A0018081E091A501F091A60182FD1BC07A
:100B400090818091A8018F5F8F732091A9018217F6
:100B500041F0E091A801F0E0E157FE4F958F8093BE
:100B6000A801FF91EF919F918F912F910F900FBE50
:100B70000F901F9018958081F4CFEFE8F1E0138279
:100B8000128288EE93E0A0E0B0E084839583A68390
:100B9000B78384E091E09183808385EC90E0958732
:100BA000848784EC90E09787868780EC90E0918B37
:100BB000808B81EC90E0938B828B82EC90E0958B24
:100BC000848B86EC90E0978B868B118E128E138E21
:100BD000148EECE2F2E01382128286E191E09183BE
:100BE00080838CE084838FEF85838BE0868385E030
:100BF000878384E0808783E0818782E08287138611
:100C0000148615861686178681E00C942503789441
:100C100084B5826084BD84B5816084BD85B5826001
:100C200085BD85B5816085BD80916E0081608093B2
:100C30006E0010928100809181008260809381001B
:100C4000809181008160809381008091800081602B
:100C5000809380008091B10084608093B100809186
:100C6000B00081608093B00080917A0084608093AE
:100C70007A0080917A00826080937A0080917A0075
:100C8000816080937A0080917A00806880937A00F6
:100C90001092C100E0919F01F091A00182E0808359
:100CA000E0919B01F0919C018DE08083E0919D019A
:100CB000F0919E0184E080831092A701E091A3014E
:100CC000F091A40186E08083E091A101F091A2015E
:100CD000808180618083E091A101F091A2018081F7
:100CE00088608083E091A101F091A20180818068F9
:100CF0008083E091A101F091A20180818F7D8083AA
:100D000082E00E94250361E088E00E94D30061E058
:100D100089E00E94D30060E08EE00E94D30060E092
:100D200080E10E94D30060E082E10E94D300C0E035
:100D3000D0E011E080E10E940401BC01990F880B12
:100D4000990B0E946B092AE038E240EA5BE30E94BB
:100D5000200A20E030E040EF52E40E94560820E0F4
:100D600030E049E353E40E94C8086B017C0120E0B5
:100D700030E0A9010E941B0A181624F0F7FAF0943B
:100D8000F7F8F094C0928201D0928301E09284013E
:100D9000F092850182E10E940401BC01990F880B49
:100DA000990B0E946B092AE038E240EA5BE30E945B
:100DB000200A20E030E040EF52E40E94560820E094
:100DC00030E049E353E40E94C8086B017C0120E055
:100DD00030E0A9010E941B0A181624F0F7FAF094DB
:100DE000F7F8F094C0927E01D0927F01E0928001EA
:100DF000F09281010E941D036FE371E08CE292E0AA
:100E00000E94CC0320E030E040E753E4609182018F
:100E10007091830180918401909185010E94200A44
:100E200020E030E04AE754E40E94200A42E00E94B9
:100E3000210469E471E08CE292E00E94CC03E0912D
:100E40003F02E23008F00BC1E150F0E0E45DFD4FFD
:100E5000848980680E9417036EE471E08CE292E05E
:100E60000E94CC0320E030E040E753E460917E0133
:100E700070917F0180918001909181010E94200AF0
:100E800020E030E04AE754E40E94200A42E00E9459
:100E9000210469E471E08CE292E00E94CC0364EFEB
:100EA00071E080E090E00E943E010E941D0368E531
:100EB00071E08CE292E00E94CC0320917E0130919F
:100EC0007F01409180015091810160918201709178
:100ED000830180918401909185010E94570820E050
:100EE00030E040E753E40E94200A20E030E04AE787
:100EF00054E40E94200A6B017C0142E00E9421041C
:100F000069E471E08CE292E00E94CC03E0913F0240
:100F1000E23008F0A6C0E150F0E0E45DFD4F8489C6
:100F200080680E94170365E671E08CE292E00E94FF
:100F3000CC0342E0C701B6010E94210469E471E0DC
:100F40008CE292E00E94CC0320E030E040E753E4E2
:100F5000609182017091830180918401909185015B
:100F60000E94200A20E030E04AE754E40E94200A70
:100F70006B017C0120E03CE742E158E40E941B0A3F
:100F800018160CF07BC080917D0181116CC060E06F
:100F900088E00E94870010937D016BE671E08FE886
:100FA00091E00E94CC036CE371E08FE891E00E9435
:100FB000CC0310928201109283011092840110924E
:100FC000850120E030E040E753E460917E017091BC
:100FD0007F0180918001909181010E94200A20E090
:100FE00030E04AE754E40E94200A6B017C0120E0D3
:100FF0003BED47E158E40E941B0A18160CF04FC065
:1010000080917C01811141C060E089E00E948700ED
:1010100010937C016BE671E08FE891E00E94CC03B5
:101020006CE371E08FE891E00E94CC0310927E01A6
:1010300010927F01109280011092810168E572E0A8
:1010400080E090E00E943E01209709F473CE0E9458
:10105000DA01882309F46ECE0E9400006BCEE1E035
:10106000F4CEE1E059CF20E03CE742E158E4C7018B
:10107000B6010E94C30818160CF4A3CF6DE771E007
:1010800088E090E00E94FF049CCF20E03BED47E128
:1010900058E4C701B6010E94C30818167CF26CE739
:1010A00071E089E090E00E94FF04C8CF5058BB2750
:1010B000AA270E946E080C94E1090E94D30938F017
:1010C0000E94DA0920F039F49F3F19F426F40C94B9
:1010D000D0090EF4E095E7FB0C94CA09E92F0E94B1
:1010E000F20958F3BA17620773078407950720F0CF
:1010F00079F4A6F50C94140A0EF4E0950B2EBA2F91
:10110000A02D0B01B90190010C01CA01A00111240D
:10111000FF27591B99F0593F50F4503E68F11A16B9
:10112000F040A22F232F342F4427585FF3CF46954A
:1011300037952795A795F0405395C9F77EF41F166C
:10114000BA0B620B730B840BBAF09150A1F0FF0F36
:10115000BB1F661F771F881FC2F70EC0BA0F621F22
:10116000731F841F48F4879577956795B795F79512
:101170009E3F08F0B0CF9395880F08F09927EE0FA7
:101180009795879508950E94A60908F481E008952F
:101190000E94DC080C94E1090E94DA0958F00E94D0
:1011A000D30940F029F45F3F29F00C94CA0951118A
:1011B0000C94150A0C94D0090E94F20968F3992343
:1011C000B1F3552391F3951B550BBB27AA27621743
:1011D0007307840738F09F5F5F4F220F331F441F50
:1011E000AA1FA9F335D00E2E3AF0E0E832D0915084
:1011F0005040E695001CCAF72BD0FE2F29D0660F71
:10120000771F881FBB1F261737074807AB07B0E8B3
:1012100009F0BB0B802DBF01FF2793585F4F3AF0B9
:101220009E3F510578F00C94CA090C94150A5F3F53
:10123000E4F3983ED4F3869577956795B795F7953F
:101240009F5FC9F7880F911D9695879597F9089527
:10125000E1E0660F771F881FBB1F621773078407C3
:10126000BA0720F0621B730B840BBA0BEE1F88F7D2
:10127000E09508950E94FA0988F09F5798F0B92FD9
:101280009927B751B0F0E1F0660F771F881F991FBB
:101290001AF0BA95C9F714C0B13091F00E94140A3F
:1012A000B1E008950C94140A672F782F8827B85F4F
:1012B00039F0B93FCCF3869577956795B395D9F713
:1012C0003EF490958095709561957F4F8F4F9F4F1D
:1012D0000895E89409C097FB3EF490958095709529
:1012E00061957F4F8F4F9F4F9923A9F0F92F96E972
:1012F000BB279395F695879577956795B795F111E7
:10130000F8CFFAF4BB0F11F460FF1BC06F5F7F4F83
:101310008F4F9F4F16C0882311F096E911C0772395
:1013200021F09EE8872F762F05C0662371F096E89E
:10133000862F70E060E02AF09A95660F771F881F6D
:10134000DAF7880F9695879597F90895990F000811
:10135000550FAA0BE0E8FEEF16161706E807F90787
:10136000C0F012161306E407F50798F0621B730B22
:10137000840B950B39F40A2661F0232B242B252BA3
:1013800021F408950A2609F4A140A6958FEF811D46
:10139000811D089597F99F6780E870E060E00895E7
:1013A0009FEF80EC089500240A941616170618067D
:1013B0000906089500240A94121613061406050659
:1013C0000895092E0394000C11F4882352F0BB0FEA
:1013D00040F4BF2B11F460FF04C06F5F7F4F8F4F4D
:1013E0009F4F089557FD9058440F551F59F05F3F88
:1013F00071F04795880F97FB991F61F09F3F79F037
:1014000087950895121613061406551FF2CF4695B8
:10141000F1DF08C0161617061806991FF1CF86953A
:101420007105610508940895E894BB27662777271E
:10143000CB0197F908950E94A60908F48FEF08954B
:101440000E94330A0C94E1090E94D30938F00E94EB
:10145000DA0920F0952311F00C94CA090C94D009F4
:1014600011240C94150A0E94F20970F3959FC1F3A0
:10147000950F50E0551F629FF001729FBB27F00D42
:10148000B11D639FAA27F00DB11DAA1F649F662797
:10149000B00DA11D661F829F2227B00DA11D621FE6
:1014A000739FB00DA11D621F839FA00D611D221FA0
:1014B000749F3327A00D611D231F849F600D211D84
:1014C000822F762F6A2F11249F5750409AF0F1F007
:1014D00088234AF0EE0FFF1FBB1F661F771F881F70
:1014E00091505040A9F79E3F510580F00C94CA09D5
:1014F0000C94150A5F3FE4F3983ED4F386957795F4
:101500006795B795F795E7959F5FC1F7FE2B880F15
:10151000911D9695879597F908950E94A609880BC5
:10152000990B0895A1E21A2EAA1BBB1BFD010DC049
:10153000AA1FBB1FEE1FFF1FA217B307E407F50783
:1015400020F0A21BB30BE40BF50B661F771F881F5F
:10155000991F1A9469F760957095809590959B01F5
:10156000AC01BD01CF010895EE0FFF1F0590F4916E
:08157000E02D0994F894FFCF6F
:1015780000000000100270019D015D02CE01AC0167
:10158800C00100000000C60370017E027D026E618A
:101598006E00696E66006F76660052656C61792030
:1015A8004465616374697661746564000D0A004876
:1015B8006F75736520413A2000206D564100486FD1
:1015C80075736520423A20004D61696E204D65743F
:1015D80065723A200053756D3A200052656C617946
:0C15E80020416374697661746564000042
:00000001FF
