:020000040000FA
:100000000C945D000C9485000C9485000C94850084
:100010000C9485000C9485000C9485000C9485004C
:100020000C9485000C9485000C9485000C9485003C
:100030000C9485000C9485000C9485000C9485002C
:100040000C9427050C9485000C9497050C9471056D
:100050000C9485000C9485000C9485000C9485000C
:100060000C9485000C9485000000000024002700FB
:100070002A0000000000250028002B0004040404CE
:100080000404040402020202020203030303030342
:10009000010204081020408001020408102001021F
:1000A00004081020000000080002010000030407FB
:1000B0000000000000000000C90511241FBECFEFA2
:1000C000D8E0DEBFCDBF11E0A0E0B1E0EEE5F3E1A6
:1000D00002C005900D92A035B107D9F722E0A0E546
:1000E000B1E001C01D92AE30B207E1F710E0CDE5FE
:1000F000D0E004C02197FE010E94A709CC35D107AA
:10010000C9F70E9413060C94AD090C94000090E00E
:10011000FC01EC55FF4F2491FC01E057FF4F349157
:10012000FC01E458FF4FE491EE23C9F0222339F09B
:10013000233001F1A8F4213019F1223029F1F0E047
:10014000EE0FFF1FEE58FF4FA591B4918FB7F894B3
:10015000EC91611126C030953E233C938FBF0895EA
:100160002730A9F02830C9F0243049F78091800069
:100170008F7D03C0809180008F7780938000DFCFD8
:1001800084B58F7784BDDBCF84B58F7DFBCF809125
:10019000B0008F778093B000D2CF8091B0008F7D78
:1001A000F9CF3E2BDACFCF93DF9390E0FC01E057FD
:1001B000FF4F249184589F4FFC0184918823D1F0F4
:1001C00090E0880F991FFC01E859FF4FA591B49169
:1001D000FC01EE58FF4FC591D49161110EC09FB73D
:1001E000F8948C91E22FE0958E238C932881E22362
:1001F000E8839FBFDF91CF9108958FB7F894EC917A
:10020000E22BEC938FBFF6CF3FB7F8948091550166
:1002100090915601A0915701B091580126B5A89B25
:1002200005C02F3F19F00196A11DB11D3FBFBA2F88
:10023000A92F982F8827BC01CD01620F711D811D48
:10024000911D42E0660F771F881F991F4A95D1F7CD
:1002500008958F929F92AF92BF92CF92DF92EF92CA
:10026000FF924B015C010E9404016B017C010E9422
:1002700004016C197D098E099F09683E7340810550
:100280009105A8F321E0821A9108A108B10888EE2F
:10029000C80E83E0D81EE11CF11C81149104A10456
:1002A000B10429F7FF90EF90DF90CF90BF90AF900F
:1002B0009F908F900895AF92BF92CF92DF92EF926E
:1002C000FF920F931F93CF93DF936C017B018B0100
:1002D000040F151FEB015E01AE18BF08C017D10750
:1002E00059F06991D601ED91FC910190F081E02DDA
:1002F000C6010995892B79F7C501DF91CF911F912F
:100300000F91FF90EF90DF90CF90BF90AF90089546
:10031000FC01538D448D252F30E0842F90E0821B0B
:10032000930B541710F0CF96089501970895FC0190
:10033000918D828D981761F0A28DAE0FBF2FB11DE8
:100340005D968C91928D9F5F9F73928F90E0089540
:100350008FEF9FEF0895FC01918D828D981731F0FA
:10036000828DE80FF11D858D90E008958FEF9FEF4E
:100370000895FC01918D228D892F90E0805C9F4F24
:10038000821B91098F739927089589E591E00E9456
:10039000B90121E0892B09F420E0822F089580E043
:1003A00090E0892B29F00E94C50181110C94000076
:1003B0000895FC01A48DA80FB92FB11DA35ABF4FFA
:1003C0002C91848D90E001968F739927848FA68954
:1003D000B7892C93A089B1898C91837080648C93A8
:1003E000938D848D981306C00288F389E02D808157
:1003F0008F7D80830895EF92FF920F931F93CF9389
:10040000DF93EC0181E0888F9B8D8C8D98131AC04F
:10041000E889F989808185FF15C09FB7F894EE8936
:10042000FF896083E889F989808183708064808393
:100430009FBF81E090E0DF91CF911F910F91FF90DE
:10044000EF900895F62E0B8D10E00F5F1F4F0F7386
:100450001127E02E8C8D8E110CC00FB607FCFACF41
:10046000E889F989808185FFF5CFCE010E94D90105
:10047000F1CFEB8DEC0FFD2FF11DE35AFF4FF08212
:100480009FB7F8940B8FEA89FB8980818062CFCF78
:10049000CF93DF93EC01888D8823B9F0AA89BB89BB
:1004A000E889F9898C9185FD03C0808186FD0DC0A6
:1004B0000FB607FCF7CF8C9185FFF2CF808185FFC7
:1004C000EDCFCE010E94D901E9CFDF91CF91089500
:1004D000089590E080E00895CF92DF92EF92FF922E
:1004E0008E50806480937C0080917A008064809339
:1004F0007A0080917A0086FDFCCF6091780070913F
:100500007900072E000C880B990B0E945E082AE0E8
:1005100038E240EA5BE30E94130920E030E040EF5C
:1005200052E40E94490720E030E049E353E40E948E
:10053000BB076B017C0120E030E0A9010E940E099D
:10054000181624F0F7FAF094F7F8F094C701B60102
:10055000FF90EF90DF90CF900895FC010190002074
:10056000E9F73197AF01481B590BBC0186EF91E0C9
:100570000C945B018F929F92AF92BF920F931F9347
:10058000CF93DF93CDB7DEB7A1970FB6F894DEBF58
:100590000FBECDBF19A2423008F44AE08E010F5DB4
:1005A0001F4F842E912CB12CA12CA50194010E94E7
:1005B0008509E62FB901CA01EA30F4F4E05DD801FB
:1005C000EE938D01232B242B252B79F790E080E0EF
:1005D000109719F0CD010E94AD02A1960FB6F894C4
:1005E000DEBF0FBECDBFDF91CF911F910F91BF90A6
:1005F000AF909F908F900895E95CE1CFCF93DF9308
:10060000EC0160E08E810E94870061E08E810E9493
:10061000870060E08E810E9487008BE891E001975F
:10062000F1F7DF91CF910895CF92DF92EF92FF9291
:100630000F931F93CF93DF936C017C0187E0E80E4B
:10064000F11CD0E0C0E0062F10E0B8010C2E02C073
:10065000759567950A94E2F76170F70181917F01C2
:100660000E9487002196C430D10579F7C601DF9139
:10067000CF911F910F91FF90EF90DF90CF900C944E
:10068000FE02CF92DF92EF92FF920F931F93CF93D0
:10069000DF93EC01F62E642F8C810E9487008D8100
:1006A0008F3F19F060E00E9487000F2D10E08F85CA
:1006B00084FF25C06E0187E0C80ED11CF12CE12C0F
:1006C000B8010E2C02C0759567950A94E2F7617027
:1006D000F60181916F010E948700FFEFEF1AFF0A78
:1006E00088E0E816F10461F7CE01DF91CF911F9108
:1006F0000F91FF90EF90DF90CF900C94FE02B80125
:1007000084E0759567958A95E1F7CE010E94140300
:100710006F2DCE01DF91CF911F910F91FF90EF9040
:10072000DF90CF900C94140340E0682F86EF91E0A7
:100730000C94410381E00E9494038BE39FE10197B5
:10074000F1F70895CF93DF93823029F49091050259
:100750009860909305028093090210920A0280E447
:1007600080930B0280E180930C0280E580930D0260
:1007700061E08091FA010E94D3008091FB018F3FDC
:1007800019F061E00E94D30061E08091FC010E94B9
:10079000D300C6EFD1E09E01265F31408091050273
:1007A00084FD0BC084E090E021962817390744F4BB
:1007B00061E08E810E94D300EECF88E090E0F4CF1C
:1007C0008BE39DE00197F1F760E08091FA010E94D0
:1007D000870060E08091FC010E9487008091FB010E
:1007E0008F3F19F060E00E9487008091050284FD30
:1007F00034C063E086EF91E00E941403CBE4D6E4BA
:10080000CE010197F1F763E086EF91E00E941403B7
:100810002197F1F763E086EF91E00E94140383E5EE
:1008200092E00197F1F762E086EF91E00E941403F5
:100830008091050280620E94940384E08093060206
:100840008CE00E9494030E949A0382E08093070246
:1008500086E0DF91CF910C94940380620E94940310
:100860008BE496E40197F1F78091050280620E9483
:10087000940383E592E00197F1F78091050280628D
:100880000E949403D5CF41E00E94410381E090E0B3
:1008900008954F925F926F927F928F929F92AF9244
:1008A000BF92CF92DF92EF92FF920F931F93CF935D
:1008B0006B017C01742EAC019B010E94800988238E
:1008C00099F08EE191E0CF911F910F91FF90EF9001
:1008D000DF90CF90BF90AF909F908F907F906F9060
:1008E0005F904F900C94AD0246015701E894B7F821
:1008F0002FEF3FEF4FE75FE7C501B4010E9480098A
:1009000081110DC02FEF3FEF4FE75FE7C501B40145
:100910000E94B60718161CF482E291E0D4CF2FEFA4
:100920003FEF4FE75FE4C701B6010E940E091816BA
:100930001CF486E291E0C7CF2FEF3FEF4FE75FEC6B
:10094000C701B6010E94B60787FDF3CF20E030E073
:10095000A901C701B6010E94B60710E000E087FFB9
:100960000CC041E06DE286EF91E00E944103F7FA8E
:10097000F094F7F8F09401E010E0C0E060E070E07F
:1009800080E09FE37C1641F020E030E040E251E45B
:100990000E94BB07CF5FF6CFA70196010E944A07CE
:1009A0004B015C010E942D082B013C014AE00E9492
:1009B000BA02080F191FCC23C9F1C301B2010E946A
:1009C0005C089B01AC01C501B4010E9449074B01C1
:1009D0005C0141E06EE286EF91E00E9441030F5F0F
:1009E0001F4FC15018F120E030E040E251E4C50152
:1009F000B4010E9413092B013C010E942D084B01F8
:100A0000B12CA12C4AE0C501B4010E94BA02080F22
:100A1000191FC501B4010E945C089B01AC01C30110
:100A2000B2010E9449074B015C01DBCFC801CF91A5
:100A30001F910F91FF90EF90DF90CF90BF90AF90FC
:100A40009F908F907F906F905F904F9008951F922E
:100A50000F920FB60F9211242F933F938F939F9372
:100A6000AF93BF938091510190915201A091530196
:100A7000B09154013091500123E0230F2D3758F5E8
:100A80000196A11DB11D20935001809351019093B7
:100A90005201A0935301B09354018091550190915C
:100AA0005601A0915701B09158010196A11DB11DA9
:100AB0008093550190935601A0935701B09358012C
:100AC000BF91AF919F918F913F912F910F900FBE4A
:100AD0000F901F90189526E8230F0296A11DB11DB7
:100AE000D2CF1F920F920FB60F9211242F933F93E4
:100AF0004F935F936F937F938F939F93AF93BF9326
:100B0000EF93FF9389E591E00E94D901FF91EF9166
:100B1000BF91AF919F918F917F916F915F914F9115
:100B20003F912F910F900FBE0F901F9018951F921D
:100B30000F920FB60F9211242F938F939F93EF93E1
:100B4000FF93E0916901F0916A018081E0916F016A
:100B5000F091700182FD1BC09081809172018F5FC6
:100B60008F7320917301821741F0E0917201F0E0E0
:100B7000E75AFE4F958F80937201FF91EF919F91FD
:100B80008F912F910F900FBE0F901F90189580811D
:100B9000F4CFE9E5F1E01382128288EE93E0A0E061
:100BA000B0E084839583A683B78384E091E091834A
:100BB000808385EC90E09587848784EC90E097872C
:100BC000868780EC90E0918B808B81EC90E0938B1A
:100BD000828B82EC90E0958B848B86EC90E0978BF7
:100BE000868B118E128E138E148EE6EFF1E0138237
:100BF000128286E191E0918380838CE084838FEF81
:100C000085838BE0868385E0878384E0808783E02B
:100C1000818782E08287138614861586168617865A
:100C200081E00C94A203789484B5826084BD84B57D
:100C3000816084BD85B5826085BD85B5816085BDD7
:100C400080916E00816080936E001092810080918F
:100C50008100826080938100809181008160809317
:100C60008100809180008160809380008091B1003C
:100C700084608093B1008091B00081608093B00067
:100C800080917A00846080937A0080917A008260FB
:100C900080937A0080917A00816080937A008091BD
:100CA0007A00806880937A001092C100E091690117
:100CB000F0916A0182E08083E0916501F091660124
:100CC0001082E0916701F09168018FEC80831092AF
:100CD0007101E0916D01F0916E0186E08083E091F9
:100CE0006B01F0916C01808180618083E0916B01E8
:100CF000F0916C01808188608083E0916B01F091BC
:100D00006C01808180688083E0916B01F0916C01BF
:100D100080818F7D808382E00E94A20361E088E071
:100D20000E94D30061E089E00E94D30060E08EE081
:100D30000E94D30060E080E10E94D30060E08FE079
:100D40000E94D300C0E0D0E08EE090E00E946C02F0
:100D50002B013C0180E190E00E946C024B015C01A0
:100D60008FE090E00E946C026B017C010E949A036C
:100D70008AE291E00E94AD0220E030E040E753E4D7
:100D8000C301B2010E94130920E030E04AE754E4B5
:100D90000E94BB0742E00E94490487E391E00E9461
:100DA000AD0268E873E180E090E00E9429010E94B2
:100DB0009A038CE391E00E94AD0220E030E040E72E
:100DC00053E4C501B4010E94130920E030E04AE772
:100DD00054E40E94BB0742E00E94490487E391E08B
:100DE0000E94AD02E0910902E23008F050C0E150EB
:100DF000F0E0EA50FE4F848980680E94940386E404
:100E000091E00E94AD0220E030E040E753E4C701EA
:100E1000B6010E94130920E030E04AE754E40E9442
:100E2000BB0742E00E94490487E391E00E94AD02C3
:100E300020E030E040EA50E4C501B4010E940E0910
:100E400061E018160CF060E088E00E94870020E066
:100E500030E040EA50E4C701B6010E940E0961E0AB
:100E600018160CF060E089E00E94870068EE73E0DD
:100E700080E090E00E942901209709F465CF0E944C
:100E8000C501882309F460CF0E9400005DCFE1E036
:100E9000AFCF5058BB27AA270E9461070C94D408F3
:100EA0000E94C60838F00E94CD0820F039F49F3F18
:100EB00019F426F40C94C3080EF4E095E7FB0C94A7
:100EC000BD08E92F0E94E50858F3BA1762077307B7
:100ED0008407950720F079F4A6F50C9407090EF421
:100EE000E0950B2EBA2FA02D0B01B90190010C013A
:100EF000CA01A0011124FF27591B99F0593F50F452
:100F0000503E68F11A16F040A22F232F342F4427A9
:100F1000585FF3CF469537952795A795F0405395A1
:100F2000C9F77EF41F16BA0B620B730B840BBAF071
:100F30009150A1F0FF0FBB1F661F771F881FC2F7DC
:100F40000EC0BA0F621F731F841F48F487957795F0
:100F50006795B795F7959E3F08F0B0CF9395880FAA
:100F600008F09927EE0F9795879508950E949908A4
:100F700008F481E008950E94CF070C94D4080E94E1
:100F8000CD0858F00E94C60840F029F45F3F29F0D0
:100F90000C94BD0851110C9408090C94C3080E94CC
:100FA000E50868F39923B1F3552391F3951B550B8D
:100FB000BB27AA2762177307840738F09F5F5F4F2C
:100FC000220F331F441FAA1FA9F335D00E2E3AF06B
:100FD000E0E832D091505040E695001CCAF72BD083
:100FE000FE2F29D0660F771F881FBB1F26173707D4
:100FF0004807AB07B0E809F0BB0B802DBF01FF2706
:1010000093585F4F3AF09E3F510578F00C94BD081D
:101010000C9408095F3FE4F3983ED4F386957795E6
:101020006795B795F7959F5FC9F7880F911D9695BE
:10103000879597F90895E1E0660F771F881FBB1F1A
:10104000621773078407BA0720F0621B730B840BC7
:10105000BA0BEE1F88F7E09508950E94ED0888F01E
:101060009F5798F0B92F9927B751B0F0E1F0660F6C
:10107000771F881F991F1AF0BA95C9F714C0B130AD
:1010800091F00E940709B1E008950C940709672FB9
:10109000782F8827B85F39F0B93FCCF386957795DC
:1010A0006795B395D9F73EF49095809570956195C5
:1010B0007F4F8F4F9F4F0895E89409C097FB3EF4F0
:1010C00090958095709561957F4F8F4F9F4F992395
:1010D000A9F0F92F96E9BB279395F6958795779513
:1010E0006795B795F111F8CFFAF4BB0F11F460FFD3
:1010F0001BC06F5F7F4F8F4F9F4F16C0882311F02B
:1011000096E911C0772321F09EE8872F762F05C03E
:10111000662371F096E8862F70E060E02AF09A95D9
:10112000660F771F881FDAF7880F9695879597F9CE
:101130000895990F0008550FAA0BE0E8FEEF161668
:101140001706E807F907C0F012161306E407F507BB
:1011500098F0621B730B840B950B39F40A2661F02F
:10116000232B242B252B21F408950A2609F4A140D2
:10117000A6958FEF811D811D089597F99F6780E8DF
:1011800070E060E008959FEF80EC089500240A94D9
:101190001616170618060906089500240A94121652
:1011A0001306140605060895092E0394000C11F485
:1011B000882352F0BB0F40F4BF2B11F460FF04C032
:1011C0006F5F7F4F8F4F9F4F089557FD9058440F8B
:1011D000551F59F05F3F71F04795880F97FB991F96
:1011E00061F09F3F79F08795089512161306140653
:1011F000551FF2CF4695F1DF08C0161617061806E0
:10120000991FF1CF86957105610508940895E894BA
:10121000BB2766277727CB0197F908950E94990885
:1012200008F48FEF08950E9426090C94D4080E94B8
:10123000C60838F00E94CD0820F0952311F00C94D8
:10124000BD080C94C30811240C9408090E94E508F9
:1012500070F3959FC1F3950F50E0551F629FF00109
:10126000729FBB27F00DB11D639FAA27F00DB11D22
:10127000AA1F649F6627B00DA11D661F829F2227AB
:10128000B00DA11D621F739FB00DA11D621F839F32
:10129000A00D611D221F749F3327A00D611D231F08
:1012A000849F600D211D822F762F6A2F11249F5756
:1012B00050409AF0F1F088234AF0EE0FFF1FBB1F59
:1012C000661F771F881F91505040A9F79E3F510518
:1012D00080F00C94BD080C9408095F3FE4F3983E3D
:1012E000D4F3869577956795B795F795E7959F5FC2
:1012F000C1F7FE2B880F911D9695879597F9089554
:101300000E949908880B990B0895A1E21A2EAA1B36
:10131000BB1BFD010DC0AA1FBB1FEE1FFF1FA217A5
:10132000B307E407F50720F0A21BB30BE40BF50BA2
:10133000661F771F881F991F1A9469F7609570952B
:10134000809590959B01AC01BD01CF010895EE0FF2
:10135000FF1F0590F491E02D0994F894FFCF000051
:101360000000FB015B0188014802B9019701AB0154
:101370000000000043045B01690268026E616E00B8
:10138000696E66006F7666004D61696E204D65740A
:1013900065723A2000204B564100486F75736520F6
:0E13A000413A2000486F75736520423A2000E4
:107E0000112484B714BE81FFF0D085E080938100F7
:107E100082E08093C00088E18093C10086E0809377
:107E2000C20080E18093C4008EE0C9D0259A86E02C
:107E300020E33CEF91E0309385002093840096BBD3
:107E4000B09BFECF1D9AA8958150A9F7CC24DD24C4
:107E500088248394B5E0AB2EA1E19A2EF3E0BF2EE7
:107E6000A2D0813461F49FD0082FAFD0023811F036
:107E7000013811F484E001C083E08DD089C08234E0
:107E800011F484E103C0853419F485E0A6D080C0E4
:107E9000853579F488D0E82EFF2485D0082F10E0AE
:107EA000102F00270E291F29000F111F8ED06801E7
:107EB0006FC0863521F484E090D080E0DECF843638
:107EC00009F040C070D06FD0082F6DD080E0C81688
:107ED00080E7D80618F4F601B7BEE895C0E0D1E017
:107EE00062D089930C17E1F7F0E0CF16F0E7DF06D8
:107EF00018F0F601B7BEE89568D007B600FCFDCFD4
:107F0000A601A0E0B1E02C9130E011968C91119780
:107F100090E0982F8827822B932B1296FA010C0160
:107F200087BEE89511244E5F5F4FF1E0A038BF0790
:107F300051F7F601A7BEE89507B600FCFDCF97BE46
:107F4000E89526C08437B1F42ED02DD0F82E2BD052
:107F50003CD0F601EF2C8F010F5F1F4F84911BD097
:107F6000EA94F801C1F70894C11CD11CFA94CF0C13
:107F7000D11C0EC0853739F428D08EE10CD085E9AC
:107F80000AD08FE07ACF813511F488E018D01DD067
:107F900080E101D065CF982F8091C00085FFFCCF94
:107FA0009093C60008958091C00087FFFCCF809118
:107FB000C00084FD01C0A8958091C6000895E0E648
:107FC000F0E098E1908380830895EDDF803219F02E
:107FD00088E0F5DFFFCF84E1DECF1F93182FE3DFCA
:107FE0001150E9F7F2DF1F91089580E0E8DFEE27F6
:047FF000FF270994CA
:027FFE00040479
:00000001FF
