:020000040000FA
:100000000C9463000C948B000C948B000C948B006C
:100010000C948B000C948B000C948B000C94A1031B
:100020000C948B000C948B000C948B000C948B0024
:100030000C948B000C948B000C948B000C948B0014
:100040000C9457030C948B000C948B000C948B0035
:100050000C948B000C948B000C948B000C948B00F4
:100060000C948B000C948B000000000023002600F1
:1000700029000200000000240027002A00000000E0
:1000800000250028002B00040404040404040402D6
:100090000202020202030303030303010204081025
:1000A00020408001020408102001020408102000F2
:1000B0000000080002010000030407000000000027
:1000C00000000000F60511241FBECFEFD8E0DEBF10
:1000D000CDBF11E0A0E0B1E0ECE7FCE002C005908C
:1000E0000D92AE31B107D9F721E0AEE1B1E001C028
:1000F0001D92A635B207E1F710E0C3E6D0E004C0D8
:100100002197FE010E943606C236D107C9F70E9428
:1001100023040C943C060C940000833081F028F4F6
:10012000813099F08230A9F008958730A9F08830A5
:10013000C9F08430B1F4809180008F7D03C080913C
:1001400080008F7780938000089584B58F7784BD79
:10015000089584B58F7DFBCF8091B0008F77809319
:10016000B00008958091B0008F7DF9CF1F93CF9399
:10017000DF93282F30E0F901E155FF4F8491F90119
:10018000E556FF4FD491F901E957FF4FC491CC23B5
:10019000A9F0162F81110E948D00EC2FF0E0EE0FD8
:1001A000FF1FE358FF4FA591B4918FB7F894EC91DE
:1001B000111108C0D095DE23DC938FBFDF91CF9162
:1001C0001F910895DE2BF8CFCF93DF9390E0FC01D1
:1001D000E556FF4F249189579F4FFC018491882356
:1001E000D1F090E0880F991FFC01ED58FF4FA591C9
:1001F000B491FC01E358FF4FC591D491623071F482
:100200009FB7F8943C91822F809583238C93E8814B
:100210002E2B28839FBFDF91CF9108958FB7F8943D
:10022000EC912E2B2C938FBFF6CF3FB7F894809193
:100230003A0190913B01A0913C01B0913D0126B55E
:10024000A89B05C02F3F19F00196A11DB11D3FBF0E
:10025000BA2FA92F982F8827BC01CD01620F711DDD
:10026000811D911D42E0660F771F881F991F4A95D7
:10027000D1F708958F929F92AF92BF92CF92DF9263
:10028000EF92FF924B015C010E9415016B017C0112
:100290000E9415016C197D098E099F09683E734003
:1002A00081059105A8F321E0821A9108A108B108FF
:1002B00088EEC80E83E0D81EE11CF11C8114910465
:1002C000A104B10429F7FF90EF90DF90CF90BF9089
:1002D000AF909F908F900895AF92BF92CF92DF9290
:1002E000EF92FF920F931F93CF93DF936C017B01EB
:1002F0008B01040F151FEB015E01AE18BF08C0177C
:10030000D10759F06991D601ED91FC910190F081EE
:10031000E02DC6010995892B79F7C501DF91CF91B1
:100320001F910F91FF90EF90DF90CF90BF90AF9013
:100330000895089590E080E008958F929F92AF9283
:10034000BF920F931F93CF93DF93CDB7DEB7A197E3
:100350000FB6F894DEBF0FBECDBF19A2423008F42D
:100360004AE08E010F5D1F4F842E912CB12CA12CE1
:10037000A50194010E941406E62FB901CA01EA30D2
:1003800044F5E05DD801EE938D01232B242B252B22
:1003900079F790E080E0109769F0FD01019000206E
:1003A000E9F73197AF014A1B5B0BBD018EE391E08A
:1003B0000E946C01A1960FB6F894DEBF0FBECDBFB0
:1003C000DF91CF911F910F91BF90AF909F908F9031
:1003D0000895E95CD7CF4FE050E06DE071E08EE327
:1003E00091E00C946C01CF93DF93EC0160E08E817F
:1003F0000E94B60061E08E810E94B60060E08E81AE
:100400000E94B6008BE891E00197F1F7DF91CF9160
:100410000895CF92DF92EF92FF920F931F93CF93A5
:10042000DF936C017C0187E0E80EF11CD0E0C0E0B6
:10043000062F10E0B8010C2E02C0759567950A943E
:10044000E2F76170F70181917F010E94B600219669
:10045000C430D10579F7C601DF91CF911F910F917B
:10046000FF90EF90DF90CF900C94F301CF92DF924A
:10047000EF92FF920F931F93CF93DF93EC01F62E31
:10048000642F8C810E94B6008D818F3F19F060E04F
:100490000E94B6000F2D10E08F8584FF25C06E01ED
:1004A00087E0C80ED11CF12CE12CB8010E2C02C043
:1004B000759567950A94E2F76170F60181916F0175
:1004C0000E94B600FFEFEF1AFF0A88E0E816F10479
:1004D00061F7CE01DF91CF911F910F91FF90EF90C7
:1004E000DF90CF900C94F301B80184E07595679587
:1004F0008A95E1F7CE010E9409026F2DCE01DF91AE
:10050000CF911F910F91FF90EF90DF90CF900C94BF
:10051000090240E0682F8EE391E00C943602CF93FD
:10052000DF93823029F490914D01986090934D01B2
:10053000809351011092520180E48093530180E135
:100540008093540180E58093550161E080914201E0
:100550000E94E400809143018F3F19F061E00E9406
:10056000E40061E0809144010E94E400CEE3D1E028
:100570009E012E53314080914D0184FD0BC084E0DB
:1005800090E021962817390744F461E08E810E949B
:10059000E400EECF88E090E0F4CF8BE39DE001979C
:1005A000F1F760E0809142010E94B60060E0809126
:1005B00044010E94B600809143018F3F19F060E032
:1005C0000E94B60080914D0184FD39C063E08EE346
:1005D00091E00E940902CBE4D6E4CE010197F1F745
:1005E00063E08EE391E00E9409022197F1F763E056
:1005F0008EE391E00E94090283E592E00197F1F712
:1006000062E08EE391E00E94090280914D018062D8
:100610000E94890284E080934E018CE00E9489024E
:1006200081E00E9489028BE39FE10197F1F782E06C
:1006300080934F0186E0DF91CF910C948902806214
:100640000E9489028BE496E40197F1F780914D01B5
:1006500080620E94890283E592E00197F1F7809120
:100660004D0180620E948902D0CF41E00E94360293
:1006700081E090E00895CF92DF92EF92FF926B01BC
:100680007C0141E06DE28EE391E00E943602662734
:100690007727CB016C197D098E099F094AE00E94DA
:1006A0009D010196FF90EF90DF90CF9008951F92EB
:1006B0000F920FB60F9211242F933F938F939F9316
:1006C000AF93BF938091360190913701A09138018B
:1006D000B09139013091350123E0230F2D3758F5C2
:1006E0000196A11DB11D2093350180933601909391
:1006F0003701A0933801B093390180913A0190916C
:100700003B01A0913C01B0913D010196A11DB11D9D
:1007100080933A0190933B01A0933C01B0933D013B
:10072000BF91AF919F918F913F912F910F900FBEED
:100730000F901F90189526E8230F0296A11DB11D5A
:10074000D2CF1F920F920FB60F9211242F933F9387
:100750004F935F936F937F938F939F93AF93BF93C9
:10076000EF93FF938091230190912401A0912501A3
:10077000B0912601892B8A2B8B2BD1F190911E01F0
:10078000E0911F01F0912001808189278083809171
:10079000230190912401A0912501B0912601181602
:1007A00019061A061B069CF48091230190912401DE
:1007B000A0912501B09126010197A109B10980936B
:1007C000230190932401A0932501B0932601FF916A
:1007D000EF91BF91AF919F918F917F916F915F91B9
:1007E0004F913F912F910F900FBE0F901F90189532
:1007F00080910001E2E7F0E0E4919FEF9093000127
:10080000E13051F030F0E23069F060E00E94B60073
:10081000DECF10926E00F9CF90916F009D7F909384
:100820006F00F3CF909170009D7F9093700091E0E6
:100830009093B0009091B100987F94609093B10034
:100840001092B300E2CF789484B5826084BD84B501
:10085000816084BD85B5826085BD85B5816085BDBB
:1008600080916E00816080936E0010928100809173
:1008700081008260809381008091810081608093FB
:100880008100809180008160809380008091B10020
:1008900084608093B1008091B00081608093B0004B
:1008A00080917A00846080937A0080917A008260DF
:1008B00080937A0080917A00816080937A008091A1
:1008C0007A00806880937A001092C10062E088E02C
:1008D0000E94E40061E08DE00E94E40061E08CE0B1
:1008E0000E94E40082E00E948F020E94EB01E091EE
:1008F0005101E23008F04FC0E150F0E0E25CFE4F01
:10090000848980680E94890260912F017091300172
:10091000072E000C880B990B97FF3FC00E943B03EA
:1009200068EE73E080E090E00E943A014BE3242EF1
:100930004FE1342E5FE3C52E5FE1D52E63E9E62E4D
:1009400060E0F62EAA24A394B12CE0E94E2E5524A3
:100950005394612C712C07EA10E0E7EBF0E08491EE
:10096000E3EAF0E08490EFE8F0E09490911019C091
:10097000109234011092330180913301909134012F
:10098000909332018093310180E090E0892B29F32C
:100990000E940000E0CFE1E0B0CF4AE00E949D015C
:1009A000BFCF81110E948D00E92DF0E0EE0FFF1FF7
:1009B000E859FF4FA591B4918C918822C9F2B09269
:1009C0003401A09233018091310190913201892B41
:1009D00099F680912F01909130010196909330010A
:1009E00080932F0181E00E948902C1010197F1F7F4
:1009F0000E94EB01E0915101E23008F04CC0E1505F
:100A0000F0E0E25CFE4F848980680E948902609178
:100A10002F0170913001072E000C880B990B97FF66
:100A20003CC00E943B0361E08DE00E94B60064E69A
:100A300070E080E090E00E943A0160E08DE00E946A
:100A4000B600809100018C3061F5E2E7F0E0C491DE
:100A5000C7FD92CF61E08CE00E94E400CC2309F452
:100A60008FC0C23009F0A0C08091B100887F836040
:100A70008093B10089EF8093B3004092230150929C
:100A8000240160922501709226018091700082609D
:100A90008093700071CFE1E0B3CF4AE00E949D01E6
:100AA000C2CF8F3F09F068CF8CE080930001E2E76E
:100AB000F0E0C491CF3F09F45FCFC13019F150F09D
:100AC000C23009F43CC0C7FD57CF61E08CE00E9402
:100AD000E400C7CF14BC15BC84B5826084BD85B565
:100AE000816085BDF7018491E82FF0E0EE0FFF1FD4
:100AF000E358FF4F85919491F801849180932201EE
:100B0000C0E0A8CF109280001092810080918100F7
:100B10008860809381008091810081608093810052
:100B2000F7018491E82FF0E0EE0FFF1FE358FF4F2D
:100B300085919491F8018491809321018BCF10923B
:100B4000B0001092B1008091B00082608093B0003C
:100B50008091B10081608093B100F7018491E82F0A
:100B6000F0E0EE0FFF1FE358FF4F859194919093B3
:100B7000200180931F01F801849180931E016ACFA8
:100B800085B5887F836085BD8CE787BD40922B014A
:100B900050922C0160922D0170922E0180916E0076
:100BA000826080936E00E8CEC130C1F480918100F4
:100BB000887F816080938100D0928900C0928800F4
:100BC00040922701509228016092290170922A01D7
:100BD00080916F00826080936F00CECEC23021F092
:100BE000C111CACE8FE3D1CF8FE345CFEEE3F1E061
:100BF0001382128285E091E09183808387E0848371
:100C00008FEF858386E0868385E0878384E0808715
:100C100083E0818782E08287138614861586168694
:100C2000178681E00C948F02A1E21A2EAA1BBB1B2F
:100C3000FD010DC0AA1FBB1FEE1FFF1FA217B307A8
:100C4000E407F50720F0A21BB30BE40BF50B661FBE
:100C5000771F881F991F1A9469F760957095809582
:100C600090959B01AC01BD01CF010895EE0FFF1FD0
:100C70000590F491E02D0994F894FFCFFF00000057
:100C80000035036C019A01990150726F64756374A9
:0A0C900020436F756E743A200000D7
:107E0000112484B714BE81FFF0D085E080938100F7
:107E100082E08093C00088E18093C10086E0809377
:107E2000C20080E18093C4008EE0C9D0259A86E02C
:107E300020E33CEF91E0309385002093840096BBD3
:107E4000B09BFECF1D9AA8958150A9F7CC24DD24C4
:107E500088248394B5E0AB2EA1E19A2EF3E0BF2EE7
:107E6000A2D0813461F49FD0082FAFD0023811F036
:107E7000013811F484E001C083E08DD089C08234E0
:107E800011F484E103C0853419F485E0A6D080C0E4
:107E9000853579F488D0E82EFF2485D0082F10E0AE
:107EA000102F00270E291F29000F111F8ED06801E7
:107EB0006FC0863521F484E090D080E0DECF843638
:107EC00009F040C070D06FD0082F6DD080E0C81688
:107ED00080E7D80618F4F601B7BEE895C0E0D1E017
:107EE00062D089930C17E1F7F0E0CF16F0E7DF06D8
:107EF00018F0F601B7BEE89568D007B600FCFDCFD4
:107F0000A601A0E0B1E02C9130E011968C91119780
:107F100090E0982F8827822B932B1296FA010C0160
:107F200087BEE89511244E5F5F4FF1E0A038BF0790
:107F300051F7F601A7BEE89507B600FCFDCF97BE46
:107F4000E89526C08437B1F42ED02DD0F82E2BD052
:107F50003CD0F601EF2C8F010F5F1F4F84911BD097
:107F6000EA94F801C1F70894C11CD11CFA94CF0C13
:107F7000D11C0EC0853739F428D08EE10CD085E9AC
:107F80000AD08FE07ACF813511F488E018D01DD067
:107F900080E101D065CF982F8091C00085FFFCCF94
:107FA0009093C60008958091C00087FFFCCF809118
:107FB000C00084FD01C0A8958091C6000895E0E648
:107FC000F0E098E1908380830895EDDF803219F02E
:107FD00088E0F5DFFFCF84E1DECF1F93182FE3DFCA
:107FE0001150E9F7F2DF1F91089580E0E8DFEE27F6
:047FF000FF270994CA
:027FFE00040479
:00000001FF
