:100000000C9463000C948B000C948B000C944105B1
:100010000C9441050C9441050C948B000C948B00BE
:100020000C948B000C948B000C948B000C948B0024
:100030000C948B000C948B000C948B000C948B0014
:100040000C94F7040C948B000C948B000C948B0094
:100050000C948B000C948B000C948B000C948B00F4
:100060000C948B000C948B000000000023002600F1
:10007000290000000000240027002A0000000000E2
:10008000250028002B0004040404040404040202D4
:100090000202020203030303030301020408102007
:1000A0004080010204081020010204081020000012
:1000B0000008000201000003040700000000000027
:1000C00000002609BE0911241FBECFEFD8E0DEBF15
:1000D000CDBF12E0A0E0B1E0E6E9F8E102C0059092
:1000E0000D92A431B107D9F722E0A4E1B2E001C03A
:1000F0001D92AD39B207E1F710E0C2E6D0E004C0CE
:100100002197FE010E94380CC136D107C9F70E9421
:10011000FE050C943E0C0C94000090E0FC01E255AE
:10012000FF4F2491FC01E656FF4F3491FC01EA5742
:10013000FF4FE491EE23C9F0222339F0233001F17F
:10014000A8F4213019F1223029F1F0E0EE0FFF1F61
:10015000E458FF4FA591B4918FB7F894EC916111D9
:1001600026C030953E233C938FBF08952730A9F0D9
:100170002830C9F0243049F7809180008F7D03C07A
:10018000809180008F7780938000DFCF84B58F7758
:1001900084BDDBCF84B58F7DFBCF8091B0008F779E
:1001A0008093B000D2CF8091B0008F7DF9CF3E2BED
:1001B000DACFCF93DF9390E0FC01E656FF4F249116
:1001C0008A579F4FFC0184918823D1F090E0880FDB
:1001D000991FFC01EE58FF4FA591B491FC01E45822
:1001E000FF4FC591D49161110EC09FB7F8948C91C7
:1001F000E22FE0958E238C932881E223E8839FBF32
:10020000DF91CF9108958FB7F894EC91E22BEC93A6
:100210008FBFF6CF8E3008F08E5087708064809349
:100220007C0080917A00806480937A0080917A00CB
:1002300086FDFCCF809178009091790008953FB7BA
:10024000F8948091620290916302A0916402B0914F
:10025000650226B5A89B05C02F3F19F00196A11D88
:10026000B11D3FBFBA2FA92F982F8827BC01CD0100
:10027000620F711D811D911D42E0660F771F881F5F
:10028000991F4A95D1F708958F929F92AF92BF928E
:10029000CF92DF92EF92FF924B015C010E941F010F
:1002A0006B017C010E941F016C197D098E099F0959
:1002B000683E734081059105A8F321E0821A9108F8
:1002C000A108B10888EEC80E83E0D81EE11CF11C1D
:1002D00081149104A104B10429F7FF90EF90DF90FD
:1002E000CF90BF90AF909F908F900895AF92BF92A4
:1002F000CF92DF92EF92FF920F931F93CF93DF93F2
:100300006C017B018B01040F151FEB015E01AE1820
:10031000BF08C017D10759F06991D601ED91FC9142
:100320000190F081E02DC6010995892B79F7C5016F
:10033000DF91CF911F910F91FF90EF90DF90CF90C1
:10034000BF90AF9008952091560230915702281720
:10035000390771F49091540280915502981741F039
:10036000E0915402F0E0EC5EFD4F808190E0089552
:100370008FEF9FEF08950895EF92FF920F931F93D1
:10038000CF93DF93DC015C96ED90FC905D97E114D8
:10039000F10479F481E090E013969C938E93129788
:1003A00090E080E0DF91CF911F910F91FF90EF904F
:1003B00008955196ED91FC91529750968C915097DB
:1003C000982F90950FB75E962C915E97122F127012
:1003D00021FD6095F8942081112319F1282B2083A9
:1003E000E7012197F1F728E0462F50E0308160FFC8
:1003F0001AC0382B3083E7012197F1F7BA017595C0
:100400006795215089F7112381F0808189238083AA
:100410000FBF5C968D919C910197F1F781E090E080
:10042000C1CF2923DCCF3923E5CF9081892BEFCFB2
:1004300020915602309157022817390761F48091B4
:1004400055022091540290E0805C9F4F821B9109DD
:100450008F739927089590E080E0089520915602C7
:100460003091570228173907B9F4909154028091BE
:100470005502981789F0E0915402F0E0EC5EFD4FD0
:1004800080812091540230E02F5F3F4F2F7333273C
:100490002093540290E008958FEF9FEF0895089500
:1004A00090E080E00895CF93DF93EC0160E08E81CF
:1004B0000E948D0061E08E810E948D0060E08E813F
:1004C0000E948D008BE891E00197F1F7DF91CF91C9
:1004D0000895CF92DF92EF92FF920F931F93CF93E5
:1004E000DF936C017C0187E0E80EF11CD0E0C0E0F6
:1004F000062F10E0B8010C2E02C0759567950A947E
:10050000E2F76170F70181917F010E948D002196D1
:10051000C430D10579F7C601DF91CF911F910F91BA
:10052000FF90EF90DF90CF900C945302CF92DF9228
:10053000EF92FF920F931F93CF93DF93EC01F62E70
:10054000642F8C810E948D008D818F3F19F060E0B7
:100550000E948D000F2D10E08F8584FF25C06E0155
:1005600087E0C80ED11CF12CE12CB8010E2C02C082
:10057000759567950A94E2F76170F60181916F01B4
:100580000E948D00FFEFEF1AFF0A88E0E816F104E1
:1005900061F7CE01DF91CF911F910F91FF90EF9006
:1005A000DF90CF900C945302B80184E07595679565
:1005B0008A95E1F7CE010E9469026F2DCE01DF918D
:1005C000CF911F910F91FF90EF90DF90CF900C94FF
:1005D000690240E0682F85E892E00C94960281E081
:1005E0000E94E9028BE39FE10197F1F70895CF9311
:1005F000DF93823029F49091940298609093940252
:10060000809398021092990280E480939A0280E18C
:1006100080939B0280E580939C0261E08091890237
:100620000E94D90080918A028F3F19F061E00E94F8
:10063000D90061E080918B020E94D900C5E8D2E028
:100640009E01255832408091940284FD0BC084E0C5
:1006500090E021962817390744F461E08E810E94CA
:10066000D900EECF88E090E0F4CF8BE39DE00197D6
:10067000F1F760E0809189020E948D0060E0809136
:100680008B020E948D0080918A028F3F19F060E0FA
:100690000E948D008091940284FD34C063E085E85F
:1006A00092E00E946902CBE4D6E4CE010197F1F713
:1006B00063E085E892E00E9469022197F1F763E028
:1006C00085E892E00E94690283E592E00197F1F7E4
:1006D00062E085E892E00E94690280919402806263
:1006E0000E94E90284E0809395028CE00E94E90276
:1006F0000E94EF0282E08093960286E0DF91CF9124
:100700000C94E90280620E94E9028BE496E401976E
:10071000F1F78091940280620E94E90283E592E001
:100720000197F1F78091940280620E94E902D5CF8F
:1007300090919802891710F08FEF890FE82FF0E061
:10074000EB57FD4F848980680C94E90241E00E94D8
:10075000960281E090E00895FB0101900020E9F706
:100760003197AF01461B570BDC01ED91FC910280E4
:10077000F381E02D09948F929F92AF92BF920F93D5
:100780001F93CF93DF93CDB7DEB7A1970FB6F89441
:10079000DEBF0FBECDBF19A2423008F44AE08E0181
:1007A0000F5D1F4F842E912CB12CA12CA50194011B
:1007B0000E94160CE62FB901CA01EA3004F5E05D8B
:1007C000D801EE938D01232B242B252B79F790E074
:1007D00080E0109729F0BD0185E892E00E94AC030B
:1007E000A1960FB6F894DEBF0FBECDBFDF91CF91BB
:1007F0001F910F91BF90AF909F908F900895E95CEB
:10080000DFCFCF93DF93BC0186E692E00E94AC037A
:10081000EC016FE171E086E692E00E94AC038C0F80
:100820009D1FDF91CF910895BC0185E892E00C9463
:10083000AC034F925F926F927F928F929F92AF9292
:10084000BF92CF92DF92EF92FF920F931F93CF93BD
:100850006B017C01742EAC019B010E94110C62E2C1
:1008600071E0811126C046015701E894B7F82FEFD7
:100870003FEF4FE75FE7C501B4010E94110C811102
:100880000CC02FEF3FEF4FE75FE7C501B4010E94B7
:10089000470A66E271E0181664F02FEF3FEF4FE76A
:1008A0005FE4C701B6010E949F0B1816ACF46AE220
:1008B00071E085E892E0CF911F910F91FF90EF904A
:1008C000DF90CF90BF90AF909F908F907F906F9070
:1008D0005F904F900C94AC032FEF3FEF4FE75FEC2E
:1008E000C701B6010E94470A87FDE1CF20E030E052
:1008F000A901C701B6010E94470A10E000E087FF86
:100900000CC041E06DE285E892E00E949602F7FAA1
:10091000F094F7F8F09401E010E0C0E060E070E0DF
:1009200080E09FE37C1641F020E030E040E251E4BB
:100930000E944C0ACF5FF6CFA70196010E94DB0907
:100940004B015C010E94BE0A2B013C014AE00E945F
:10095000BB03080F191FCC23C9F1C301B2010E94C8
:10096000ED0A9B01AC01C501B4010E94DA094B01FB
:100970005C0141E06EE285E892E00E9496020F5F22
:100980001F4FC15018F120E030E040E251E4C501B2
:10099000B4010E94A40B2B013C010E94BE0A4B0132
:1009A000B12CA12C4AE0C501B4010E94BB03080F81
:1009B000191FC501B4010E94ED0A9B01AC01C301DE
:1009C000B2010E94DA094B015C01DBCFC801CF9173
:1009D0001F910F91FF90EF90DF90CF90BF90AF905D
:1009E0009F908F907F906F905F904F9008951F928F
:1009F0000F920FB60F9211242F933F938F939F93D3
:100A0000AF93BF9380915E0290915F02A0916002CC
:100A1000B091610230915D0223E0230F2D3758F52C
:100A20000196A11DB11D20935D0280935E029093FB
:100A30005F02A0936002B093610280916202909184
:100A40006302A0916402B09165020196A11DB11DDF
:100A50008093620290936302A0936402B093650254
:100A6000BF91AF919F918F913F912F910F900FBEAA
:100A70000F901F90189526E8230F0296A11DB11D17
:100A8000D2CF1F920F920FB60F9211242F933F9344
:100A90004F935F936F937F938F939F93AF93BF9386
:100AA000EF93FF93E0915602F0915702309749F08F
:100AB000A685B7858585968D91FF14C09C91892365
:100AC000A1F4FF91EF91BF91AF919F918F917F9191
:100AD0006F915F914F913F912F910F900FBE0F90AB
:100AE0001F9018959C91892361F7A389B4899C91E3
:100AF0008589809589238C93868997890197F1F759
:100B0000608D718DA685B785558538E020E0CB01D5
:100B10000197F1F7822F90E095958795282F4C91BA
:100B2000452309F02068315091F7868D81FD20958D
:100B30008091550290E001968F739927309154026D
:100B4000381799F0A0915502B0E0AC5EBD4F2C93E0
:100B500080935502828D938D0197F1F7A389B48913
:100B60008C919589892B8C93ACCF868D8160868FF3
:100B7000F1CFCF92DF92EF92FF920F931F93E82F66
:100B8000F92F05C0015011092109310961F1908146
:100B900096239417B9F305C00150110921093109B1
:100BA00011F1908196239413F7CFC12CD12CE12C15
:100BB000F12C0AC08FEFC81AD80AE80AF80A0C15F7
:100BC0001D052E053F0579F080818623841791F35A
:100BD0006C2D7D2D8E2D9F2D1F910F91FF90EF90ED
:100BE000DF90CF90089560E070E080E090E01F918A
:100BF0000F91FF90EF90DF90CF900895CF93DF9308
:100C0000CDB7DEB728970FB6F894DEBF0FBECDBFC5
:100C1000789484B5826084BD84B5816084BD85B5D7
:100C2000826085BD85B5816085BD80916E008160E3
:100C300080936E0010928100809181008260809389
:100C4000810080918100816080938100809180008B
:100C50008160809380008091B10084608093B100B6
:100C60008091B00081608093B00080917A008460B0
:100C700080937A0080917A00826080937A008091DC
:100C80007A00816080937A0080917A0080688093F6
:100C90007A001092C10061E08DE00E94D90061E00D
:100CA00089E00E94D90060E08AE00E94D90082E0D9
:100CB0000E94F7028EE291E00E94140481E00E94FB
:100CC000980382E491E00E94140464E670E080E0FE
:100CD00090E00E9444010E94EF0210928102109263
:100CE000800210927F0210927E0210927D0210927A
:100CF0007C028DE991E0909383028093820290912F
:100D00007202963108F047C02DEB30E030937D023F
:100D100020937C022BE931E030937F0220937E0206
:100D20002CE231E030938102209380022091680010
:100D300084E0983048F031E09E3008F430E081E003
:100D400001C0880F3A95EAF7822B809368002DE660
:100D500030E0983050F02BE630E09E3030F02CE65A
:100D600030E0963110F030E020E030937A022093AA
:100D70007902292F30E0983008F031C281E001C0BB
:100D8000880F9A95EAF780937B0280918202909176
:100D900083020197F1F78091800290918102892B63
:100DA00049F1E0915602F091570282E0E636F807E9
:100DB00009F1309739F0A389B4899C918589809590
:100DC00089238C93809184028E7F80938402109279
:100DD00055021092540286E692E090935702809357
:100DE0005602E0917902F0917A02808190917B0223
:100DF000892B80836AE070E080E090E00E944401EB
:100E000085E591E00E9401046AE070E080E090E0F6
:100E10000E9444018FE591E00E9401046AE070E0C5
:100E200080E090E00E9444018BE791E00E94010481
:100E30006AE070E080E090E00E9444016AE186E6AA
:100E400092E00E94BC016FE171E086E692E00E94B0
:100E5000AC0362E370E080E090E00E94440193E222
:100E6000292E312C8FE00E940A01BC01990F880BBA
:100E7000990B0E94EF0A20E030E040EA5BE30E9419
:100E8000A40B24EA30E74DED50E40E94A40B24EAC1
:100E900030E74DE35EE30E944C0A6B017C0180E188
:100EA0000E940A01BC01990F880B990B0E94EF0A5E
:100EB00020E030E84BEB55E40E94A40B20E030EC3E
:100EC0004FE754E40E944C0A2B013C018EE00E9443
:100ED0000A01BC01990F880B990B0E94EF0A20E0D0
:100EE00030E040EA5BE30E94A40B20E030E048ECF5
:100EF00052E40E94A40B6D837E838F83988760E009
:100F000089E00E948D0083E090E00197F1F761E0B5
:100F100089E00E948D00C1010197F1F760E089E04E
:100F20000E948D00E4EAF0E06491E0E9F0E0849151
:100F3000E82FF0E0EE0FFF1FE859FF4F85919491E5
:100F400000E412E42FE030E0462F0E94B90561155D
:100F500071058105910529F06F5F7F4F8F4F9F4F7E
:100F60009F700E94EF0A26E933E44BE05DE30E94A4
:100F7000A40B20E030E040E05FE30E94A40B698313
:100F80007A838B839C8320E030E049E353E4C701FC
:100F9000B6010E944C0A20E030E048EC52E40E9486
:100FA000A40B4B015C0111E020E030E049E353E485
:100FB000C701B6010E949F0B18160CF010E01093A9
:100FC0005C0220E030EA4CE855E4C301B2010E9423
:100FD000470A881F8827881F80935B0211E020E062
:100FE00030E048EC52E46D817E818F8198850E94CB
:100FF0009F0B18160CF010E010935A0220E030E01E
:1010000040E252E469817A818B819C810E94470A87
:10101000881F8827881F8093590211E020E030E064
:101020004EEB52E4C501B4010E949F0B18160CF060
:1010300010E0109358020E94EF0280E00E94980393
:101040008EE891E00E94140442E0C701B6010E94BC
:10105000190488E991E00E94140481E00E94980339
:101060008BE991E00E94140442E0C301B2010E94A6
:10107000190485EA91E00E94140468EE73E080E0B0
:1010800090E00E9444010E94EF0280E00E949803D9
:1010900088EA91E00E94140442E06D817E818F8194
:1010A00098850E9419048FEA91E00E94140481E05F
:1010B0000E94980382EB91E00E94140442E069814F
:1010C0007A818B819C810E9419048CEB91E00E94B3
:1010D000140468EE73E080E090E00E9444010E94F6
:1010E000EF0280E00E94980380EC91E00E941404DB
:1010F00042E0C501B4010E9419048CEC91E00E9409
:10110000140468EE73E080E090E00E944401809156
:101110005C02882361F00E94EF028FEC91E00E9454
:10112000140468EE73E080E090E00E944401809136
:101130005B02882361F00E94EF028CED91E00E9437
:10114000140468EE73E080E090E00E944401809116
:101150005A02882361F00E94EF0288EE91E00E941B
:10116000140468EE73E080E090E00E9444018091F6
:101170005902882361F00E94EF0289EF91E00E94FA
:10118000140468EE73E080E090E00E9444018091D6
:101190005802882361F00E94EF0287E092E00E94EB
:1011A000140468E873E180E090E00E94440110912B
:1011B0005C028091000111111FC0909158029111A1
:1011C00042C090915B0291113EC0811123C061E049
:1011D0008DE00E948D0081E08093000117C09E3059
:1011E00040F42850310981E001C0880F2A95EAF7C0
:1011F000CACD2E503109F7CF8823B9F060E08DE0D9
:101200000E948D001092000111110FC080915802B0
:1012100081110BC080910001811107C061E08DE058
:101220000E948D0081E08093000168EE73E080E011
:1012300090E00E94440180E090E0892B09F412CEF6
:101240000E9400000FCE882309F3D8CF10926902C4
:101250001092680288EE93E0A0E0B0E080936A020A
:1012600090936B02A0936C02B0936D0281E191E0C8
:10127000909367028093660210927D0210927C0226
:1012800010927F0210927E021092810210928002D0
:101290001092830210928202609184026E7F6D7FB1
:1012A000609384026695617081E0682780E00E9407
:1012B0008D0061E080E00E94D900EAE9F0E0E4916D
:1012C000E0937602E6E8F0E0E491F0E0EE0FFF1F35
:1012D000E458FF4F85919491909378028093770220
:1012E00060E081E00E94D9008091840281FD04C009
:1012F00061E081E00E948D0081E080937202EBE961
:10130000F0E0E491E0937302E7E8F0E0E491F0E0CC
:10131000EE0FFF1FE859FF4F85919491909375024E
:1013200080937402109288021092870285E091E007
:10133000909386028093850287E0809389028FEFE5
:1013400080938A0286E080938B0285E080938C02F2
:1013500084E080938D0283E080938E0282E080930C
:101360008F021092900210929102109292021092AB
:1013700093021092940281E00C94F70281E191E0D3
:101380009093670280936602809156029091570273
:101390008656924071F4E0917902F0917A02908140
:1013A00080917B028095892380831092570210924E
:1013B000560208955058BB27AA270E94F2090C94A0
:1013C000650B0E94570B38F00E945E0B20F039F439
:1013D0009F3F19F426F40C94540B0EF4E095E7FBB0
:1013E0000C944E0BE92F0E94760B58F3BA17620744
:1013F00073078407950720F079F4A6F50C94980BF1
:101400000EF4E0950B2EBA2FA02D0B01B90190011F
:101410000C01CA01A0011124FF27591B99F0593F63
:1014200050F4503E68F11A16F040A22F232F342FAB
:101430004427585FF3CF469537952795A795F040F9
:101440005395C9F77EF41F16BA0B620B730B840B0E
:10145000BAF09150A1F0FF0FBB1F661F771F881FC6
:10146000C2F70EC0BA0F621F731F841F48F487951E
:1014700077956795B795F7959E3F08F0B0CF939510
:10148000880F08F09927EE0F9795879508950E9489
:101490002A0B08F481E008950E94600A0C94650B01
:1014A0000E945E0B58F00E94570B40F029F45F3FFA
:1014B00029F00C944E0B51110C94990B0C94540B75
:1014C0000E94760B68F39923B1F3552391F3951B92
:1014D000550BBB27AA2762177307840738F09F5F55
:1014E0005F4F220F331F441FAA1FA9F335D00E2EC2
:1014F0003AF0E0E832D091505040E695001CCAF72F
:101500002BD0FE2F29D0660F771F881FBB1F2617F1
:1015100037074807AB07B0E809F0BB0B802DBF01C8
:10152000FF2793585F4F3AF09E3F510578F00C9497
:101530004E0B0C94990B5F3FE4F3983ED4F38695E1
:1015400077956795B795F7959F5FC9F7880F911DB8
:101550009695879597F90895E1E0660F771F881FA4
:10156000BB1F621773078407BA0720F0621B730B57
:10157000840BBA0BEE1F88F7E09508950E947E0B4E
:1015800088F09F5798F0B92F9927B751B0F0E1F044
:10159000660F771F881F991F1AF0BA95C9F714C0F4
:1015A000B13091F00E94980BB1E008950C94980B23
:1015B000672F782F8827B85F39F0B93FCCF386952D
:1015C00077956795B395D9F73EF49095809570958A
:1015D00061957F4F8F4F9F4F0895E89409C097FB07
:1015E0003EF490958095709561957F4F8F4F9F4FFA
:1015F0009923A9F0F92F96E9BB279395F69587953E
:1016000077956795B795F111F8CFFAF4BB0F11F400
:1016100060FF1BC06F5F7F4F8F4F9F4F16C08823A7
:1016200011F096E911C0772321F09EE8872F762FDD
:1016300005C0662371F096E8862F70E060E02AF01E
:101640009A95660F771F881FDAF7880F969587950A
:1016500097F90895990F0008550FAA0BE0E8FEEFDF
:1016600016161706E807F907C0F012161306E40766
:10167000F50798F0621B730B840B950B39F40A265F
:1016800061F0232B242B252B21F408950A2609F43D
:10169000A140A6958FEF811D811D089597F99F6741
:1016A00080E870E060E008959FEF80EC08950024EA
:1016B0000A941616170618060906089500240A94B7
:1016C00012161306140605060895092E0394000C3D
:1016D00011F4882352F0BB0F40F4BF2B11F460FFCC
:1016E00004C06F5F7F4F8F4F9F4F089557FD9058F5
:1016F000440F551F59F05F3F71F04795880F97FBD6
:10170000991F61F09F3F79F087950895121613068F
:101710001406551FF2CF4695F1DF08C016161706BE
:101720001806991FF1CF86957105610508940895F3
:10173000E894BB2766277727CB0197F908950E9485
:101740002A0B08F48FEF08950E94B70B0C94650BD9
:101750000E94570B38F00E945E0B20F0952311F089
:101760000C944E0B0C94540B11240C94990B0E9466
:10177000760B70F3959FC1F3950F50E0551F629F54
:10178000F001729FBB27F00DB11D639FAA27F00DDA
:10179000B11DAA1F649F6627B00DA11D661F829F01
:1017A0002227B00DA11D621F739FB00DA11D621FE6
:1017B000839FA00D611D221F749F3327A00D611D03
:1017C000231F849F600D211D822F762F6A2F1124E5
:1017D0009F5750409AF0F1F088234AF0EE0FFF1F18
:1017E000BB1F661F771F881F91505040A9F79E3F6F
:1017F000510580F00C944E0B0C94990B5F3FE4F371
:10180000983ED4F3869577956795B795F795E795C4
:101810009F5FC1F7FE2B880F911D9695879597F9CD
:1018200008950E942A0B880B990B0895A1E21A2EA5
:10183000AA1BBB1BFD010DC0AA1FBB1FEE1FFF1F74
:10184000A217B307E407F50720F0A21BB30BE40BC4
:10185000F50B661F771F881F991F1A9469F760950B
:101860007095809590959B01AC01BD01CF010895C5
:10187000EE0FFF1F0590F491E02D099410E0C2E6F1
:10188000D0E004C0FE010E94380C2196C336D10777
:06189000C9F7F894FFCF38
:101896000100000000A603760150024F020000007E
:1018A60000BC0176015002BB0118022E02A3010DF5
:1018B6000A006E616E00696E66006F76660054728D
:1018C600616E73666F726D6572204D6F6E69746FAF
:1018D6007200616E6420436F6E74726F6C20537970
:1018E6007374656D0041542B434D47463D310041AD
:1018F600542B434D47533D22504552534F4E454C72
:1019060020494E4348415247452200537973746536
:101916006D20696E697469616C697A6564004375E6
:101926007272656E743A2000204100566F6C7461C5
:1019360067653A200020560054656D703A200020F5
:1019460043004F696C204C766C3A200020636D0092
:101956004C6F6164696E6720253A20002025004F90
:101966007665722D43757272656E74004C6F7720C2
:10197600566F6C7461676500486967682054656DC9
:101986007065726174757265004C6F77204F696C73
:10199600204C6576656C004F7665726C6F61646984
:0419A6006E67000068
:00000001FF
