:020000040000FA
:100000000C9463000C948B000C948B000C9474057E
:100010000C9474050C9474050C948B000C948B0058
:100020000C948B000C948B000C948B000C948B0024
:100030000C948B000C948B000C948B000C948B0014
:100040000C942A050C948B000C948B000C948B0060
:100050000C948B000C948B000C948B000C948B00F4
:100060000C948B000C948B000000000023002600F1
:10007000290000000000240027002A0000000000E2
:10008000250028002B0004040404040404040202D4
:100090000202020203030303030301020408102007
:1000A0004080010204081020010204081020000012
:1000B0000008000201000003040700000000000027
:1000C00000004809E00911241FBECFEFD8E0DEBFD1
:1000D000CDBF12E0A0E0B1E0EAEDF8E102C005908A
:1000E0000D92A23AB107D9F723E0A2EAB2E001C02B
:1000F0001D92AB32B207E1F710E0C2E6D0E004C0D7
:100100002197FE010E945A0CC136D107C9F70E94FF
:1001100031060C94600C0C94000090E0FC01E25558
:10012000FF4F2491FC01E656FF4F3491FC01EA5742
:10013000FF4FE491EE23C9F0222339F0233001F17F
:10014000A8F4213019F1223029F1F0E0EE0FFF1F61
:10015000E458FF4FA591B4918FB7F894EC916111D9
:1001600026C030953E233C938FBF08952730A9F0D9
:100170002830C9F0243049F7809180008F7D03C07A
:10018000809180008F7780938000DFCF84B58F7758
:1001900084BDDBCF84B58F7DFBCF8091B0008F779E
:1001A0008093B000D2CF8091B0008F7DF9CF3E2BED
:1001B000DACFCF93DF9390E0FC01E656FF4F249116
:1001C0008A579F4FFC0184918823D1F090E0880FDB
:1001D000991FFC01EE58FF4FA591B491FC01E45822
:1001E000FF4FC591D49161110EC09FB7F8948C91C7
:1001F000E22FE0958E238C932881E223E8839FBF32
:10020000DF91CF9108958FB7F894EC91E22BEC93A6
:100210008FBFF6CF8E3008F08E5087708064809349
:100220007C0080917A00806480937A0080917A00CB
:1002300086FDFCCF809178009091790008953FB7BA
:10024000F8948091F0029091F102A091F202B091A5
:10025000F30226B5A89B05C02F3F19F00196A11DFA
:10026000B11D3FBFBA2FA92F982F8827BC01CD0100
:10027000620F711D811D911D42E0660F771F881F5F
:10028000991F4A95D1F708958F929F92AF92BF928E
:10029000CF92DF92EF92FF924B015C010E941F010F
:1002A0006B017C010E941F016C197D098E099F0959
:1002B000683E734081059105A8F321E0821A9108F8
:1002C000A108B10888EEC80E83E0D81EE11CF11C1D
:1002D00081149104A104B10429F7FF90EF90DF90FD
:1002E000CF90BF90AF909F908F900895AF92BF92A4
:1002F000CF92DF92EF92FF920F931F93CF93DF93F2
:100300006C017B018B01040F151FEB015E01AE1820
:10031000BF08C017D10759F06991D601ED91FC9142
:100320000190F081E02DC6010995892B79F7C5016F
:10033000DF91CF911F910F91FF90EF90DF90CF90C1
:10034000BF90AF9008952091E4023091E502281704
:10035000390771F49091E2028091E302981741F01D
:10036000E091E202F0E0EE55FD4F808190E00895CB
:100370008FEF9FEF08950895EF92FF920F931F93D1
:10038000CF93DF93DC015C96ED90FC905D97E114D8
:10039000F10479F481E090E013969C938E93129788
:1003A00090E080E0DF91CF911F910F91FF90EF904F
:1003B00008955196ED91FC91529750968C915097DB
:1003C000982F90950FB75E962C915E97122F127012
:1003D00021FD6095F8942081112319F1282B2083A9
:1003E000E7012197F1F728E0462F50E0308160FFC8
:1003F0001AC0382B3083E7012197F1F7BA017595C0
:100400006795215089F7112381F0808189238083AA
:100410000FBF5C968D919C910197F1F781E090E080
:10042000C1CF2923DCCF3923E5CF9081892BEFCFB2
:100430002091E4023091E5022817390761F4809198
:10044000E3022091E20290E0805C9F4F821B9109C1
:100450008F739927089590E080E008952091E40239
:100460003091E50228173907B9F49091E2028091A2
:10047000E302981789F0E091E202F0E0EE55FD4FBB
:1004800080812091E20230E02F5F3F4F2F733327AE
:100490002093E20290E008958FEF9FEF0895089572
:1004A00090E080E00895CF93DF93EC0160E08E81CF
:1004B0000E948D0061E08E810E948D0060E08E813F
:1004C0000E948D008BE891E00197F1F7DF91CF91C9
:1004D0000895CF92DF92EF92FF920F931F93CF93E5
:1004E000DF936C017C0187E0E80EF11CD0E0C0E0F6
:1004F000062F10E0B8010C2E02C0759567950A947E
:10050000E2F76170F70181917F010E948D002196D1
:10051000C430D10579F7C601DF91CF911F910F91BA
:10052000FF90EF90DF90CF900C945302CF92DF9228
:10053000EF92FF920F931F93CF93DF93EC01F62E70
:10054000642F8C810E948D008D818F3F19F060E0B7
:100550000E948D000F2D10E08F8584FF25C06E0155
:1005600087E0C80ED11CF12CE12CB8010E2C02C082
:10057000759567950A94E2F76170F60181916F01B4
:100580000E948D00FFEFEF1AFF0A88E0E816F104E1
:1005900061F7CE01DF91CF911F910F91FF90EF9006
:1005A000DF90CF900C945302B80184E07595679565
:1005B0008A95E1F7CE010E9469026F2DCE01DF918D
:1005C000CF911F910F91FF90EF90DF90CF900C94FF
:1005D000690240E0682F83E193E00C94960281E089
:1005E0000E94E9028BE39FE10197F1F70895CF9311
:1005F000DF93823029F49091220398609093220334
:10060000809326031092270380E48093280380E1DF
:100610008093290380E580932A0361E0809117038A
:100620000E94D900809118038F3F19F061E00E9469
:10063000D90061E0809119030E94D900C3E1D3E0A1
:100640009E01235133408091220384FD0BC084E03E
:1006500090E021962817390744F461E08E810E94CA
:10066000D900EECF88E090E0F4CF8BE39DE00197D6
:10067000F1F760E0809117030E948D0060E08091A7
:1006800019030E948D00809118038F3F19F060E0DC
:100690000E948D008091220384FD34C063E083E1D9
:1006A00093E00E946902CBE4D6E4CE010197F1F712
:1006B00063E083E193E00E9469022197F1F763E030
:1006C00083E193E00E94690283E592E00197F1F7EC
:1006D00062E083E193E00E946902809122038062DC
:1006E0000E94E90284E0809323038CE00E94E902E7
:1006F0000E94EF0282E08093240386E0DF91CF9195
:100700000C94E90280620E94E9028BE496E401976E
:10071000F1F78091220380620E94E90283E592E072
:100720000197F1F78091220380620E94E902D5CF00
:1007300090912603891710F08FEF890FE82FF0E0D2
:10074000ED5EFC4F848980680C94E90241E00E94D0
:10075000960281E090E00895FB0101900020E9F706
:100760003197AF01461B570BDC01ED91FC910280E4
:10077000F381E02D09948F929F92AF92BF920F93D5
:100780001F93CF93DF93CDB7DEB7A1970FB6F89441
:10079000DEBF0FBECDBF19A2423008F44AE08E0181
:1007A0000F5D1F4F842E912CB12CA12CA50194011B
:1007B0000E94380CE62FB901CA01EA3004F5E05D69
:1007C000D801EE938D01232B242B252B79F790E074
:1007D00080E0109729F0BD0183E193E00E94AC0313
:1007E000A1960FB6F894DEBF0FBECDBFDF91CF91BB
:1007F0001F910F91BF90AF909F908F900895E95CEB
:10080000DFCFCF93DF93BC0184EF92E00E94AC0373
:10081000EC016FE171E084EF92E00E94AC038C0F79
:100820009D1FDF91CF910895CF93DF93EC0182E27A
:1008300091E00E9401046AE070E080E090E00E9494
:1008400044018CE291E00E9401046AE070E080E0E3
:1008500090E00E944401CE010E9401046AE070E031
:1008600080E090E00E9444016AE184EF92E00E94FF
:10087000BC016FE171E084EF92E00E94AC0362E39F
:1008800070E080E090E0DF91CF910C944401BC01D6
:1008900083E193E00C94AC034F925F926F927F924E
:1008A0008F929F92AF92BF92CF92DF92EF92FF9280
:1008B0000F931F93CF936B017C01742EAC019B01AE
:1008C0000E94330C68E471E0811126C04601570193
:1008D000E894B7F82FEF3FEF4FE75FE7C501B401AA
:1008E0000E94330C81110CC02FEF3FEF4FE75FE701
:1008F000C501B4010E94690A6CE471E0181664F045
:100900002FEF3FEF4FE75FE4C701B6010E94C10B35
:100910001816ACF460E571E083E193E0CF911F918C
:100920000F91FF90EF90DF90CF90BF90AF909F908E
:100930008F907F906F905F904F900C94AC032FEF4F
:100940003FEF4FE75FECC701B6010E94690A87FDE0
:10095000E1CF20E030E0A901C701B6010E94690A99
:1009600010E000E087FF0CC041E06DE283E193E01E
:100970000E949602F7FAF094F7F8F09401E010E084
:10098000C0E060E070E080E09FE37C1641F020E092
:1009900030E040E251E40E946E0ACF5FF6CFA7013B
:1009A00096010E94FD094B015C010E94E00A2B01A7
:1009B0003C014AE00E94BB03080F191FCC23C9F178
:1009C000C301B2010E940F0B9B01AC01C501B40130
:1009D0000E94FC094B015C0141E06EE283E193E07F
:1009E0000E9496020F5F1F4FC15018F120E030E0C7
:1009F00040E251E4C501B4010E94C60B2B013C0149
:100A00000E94E00A4B01B12CA12C4AE0C501B401BF
:100A10000E94BB03080F191FC501B4010E940F0BF0
:100A20009B01AC01C301B2010E94FC094B015C01B6
:100A3000DBCFC801CF911F910F91FF90EF90DF9016
:100A4000CF90BF90AF909F908F907F906F905F906E
:100A50004F9008951F920F920FB60F9211242F936B
:100A60003F938F939F93AF93BF938091EC029091AC
:100A7000ED02A091EE02B091EF023091EB0223E083
:100A8000230F2D3758F50196A11DB11D2093EB02C0
:100A90008093EC029093ED02A093EE02B093EF02EC
:100AA0008091F0029091F102A091F202B091F302D4
:100AB0000196A11DB11D8093F0029093F102A093C5
:100AC000F202B093F302BF91AF919F918F913F914A
:100AD0002F910F900FBE0F901F90189526E8230FAF
:100AE0000296A11DB11DD2CF1F920F920FB60F9289
:100AF00011242F933F934F935F936F937F938F9323
:100B00009F93AF93BF93EF93FF93E091E402F09133
:100B1000E502309749F0A685B7858585968D91FFCA
:100B200014C09C918923A1F4FF91EF91BF91AF91E3
:100B30009F918F917F916F915F914F913F912F91F5
:100B40000F900FBE0F901F9018959C91892361F70D
:100B5000A389B4899C918589809589238C93868902
:100B600097890197F1F7608D718DA685B7855585B9
:100B700038E020E0CB010197F1F7822F90E09595C6
:100B80008795282F4C91452309F02068315091F723
:100B9000868D81FD20958091E30290E001968F7310
:100BA00099273091E202381799F0A091E302B0E062
:100BB000AE55BD4F2C938093E302828D938D0197A8
:100BC000F1F7A389B4898C919589892B8C93ACCF4B
:100BD000868D8160868FF1CFCF92DF92EF92FF9268
:100BE0000F931F93E82FF92F05C001501109210918
:100BF000310961F1908196239417B9F305C0015032
:100C000011092109310911F1908196239413F7CF2D
:100C1000C12CD12CE12CF12C0AC08FEFC81AD80AB4
:100C2000E80AF80A0C151D052E053F0579F08081AC
:100C30008623841791F36C2D7D2D8E2D9F2D1F9172
:100C40000F91FF90EF90DF90CF90089560E070E0FB
:100C500080E090E01F910F91FF90EF90DF90CF9098
:100C60000895CF93DF93CDB7DEB728970FB6F894EA
:100C7000DEBF0FBECDBF789484B5826084BD84B5DD
:100C8000816084BD85B5826085BD85B5816085BD87
:100C900080916E00816080936E001092810080913F
:100CA00081008260809381008091810081608093C7
:100CB0008100809180008160809380008091B100EC
:100CC00084608093B1008091B00081608093B00017
:100CD00080917A00846080937A0080917A008260AB
:100CE00080937A0080917A00816080937A0080916D
:100CF0007A00806880937A001092C10061E08DE0F4
:100D00000E94D90061E089E00E94D90060E08AE099
:100D10000E94D90082E00E94F70284E591E00E94DF
:100D2000470481E00E94980388E691E00E9447040E
:100D300064E670E080E090E00E9444010E94EF02CF
:100D400010920F0310920E0310920D0310920C03D9
:100D500010920B0310920A038DE991E09093110316
:100D60008093100390910003963108F047C02DEB5B
:100D700030E030930B0320930A032BE931E03093EA
:100D80000D0320930C032CE231E030930F032093EA
:100D90000E032091680084E0983048F031E09E30E6
:100DA00008F430E081E001C0880F3A95EAF7822B21
:100DB000809368002DE630E0983050F02BE630E06C
:100DC0009E3030F02CE630E0963110F030E020E03C
:100DD0003093080320930703292F30E0983008F060
:100DE0001FC281E001C0880F9A95EAF7809309033A
:100DF00080911003909111030197F1F780910E03F8
:100E000090910F03892B49F1E091E402F091E50202
:100E100082E0E43FF80709F1309739F0A389B489FB
:100E20009C918589809589238C93809112038E7F74
:100E3000809312031092E3021092E20284EF92E098
:100E40009093E5028093E402E0910703F091080398
:100E5000808190910903892B80836AE070E080E0B3
:100E600090E00E9444018BE791E00E94140493E219
:100E7000292E312C60E08DE00E948D00109200013F
:100E80008FE00E940A01BC01990F880B990B0E9408
:100E9000110B20E030E040EA5BE30E94C60B24EA3D
:100EA00030E74DED50E40E94C60B24EA30E74DE3F5
:100EB0005EE30E946E0A6B017C0180E10E940A01E0
:100EC000BC01990F880B990B0E94110B20E030E8B0
:100ED0004BEB55E40E94C60B20E030EC4FE754E4A6
:100EE0000E946E0A2B013C018EE00E940A01BC01A7
:100EF000990F880B990B0E94110B20E030E040EA1B
:100F00005BE30E94C60B20E030E048EC52E40E9414
:100F1000C60B6D837E838F83988760E089E00E9493
:100F20008D0083E090E00197F1F761E089E00E9495
:100F30008D00C1010197F1F760E089E00E948D000A
:100F4000E4EAF0E06491E0E9F0E08491E82FF0E079
:100F5000EE0FFF1FE859FF4F8591949100E412E4D2
:100F60002FE030E0462F0E94EC05611571058105E8
:100F7000910529F06F5F7F4F8F4F9F4F9F700E94A9
:100F8000110B26E933E44BE05DE30E94C60B20E041
:100F900030E040E05FE30E94C60B69837A838B8375
:100FA0009C8320E030E049E353E4C701B6010E948E
:100FB0006E0A20E030E048EC52E40E94C60B4B0180
:100FC0005C0111E020E030E049E353E4C701B601E1
:100FD0000E94C10B18160CF010E01093EA0220E0FA
:100FE00030EA4CE855E4C301B2010E94690A881F47
:100FF0008827881F8093E90211E020E030E048EC68
:1010000052E46D817E818F8198850E94C10B1816F4
:101010000CF010E01093E80220E030E040E252E4EF
:1010200069817A818B819C810E94690A881F882747
:10103000881F8093E70211E020E030E04EEB52E49D
:10104000C501B4010E94C10B18160CF010E01093FA
:10105000E6020E94EF0280E00E9498038EE891E091
:101060000E94470442E0C701B6010E944C0488E98F
:1010700091E00E94470481E00E9498038BE991E08F
:101080000E94470442E0C301B2010E944C0485EA79
:1010900091E00E94470468EE73E080E090E00E94D7
:1010A00044010E94EF0280E00E94980388EA91E0E8
:1010B0000E94470442E06D817E818F8198850E9465
:1010C0004C048FEA91E00E94470481E00E9498035B
:1010D00082EB91E00E94470442E069817A818B8132
:1010E0009C810E944C048CEB91E00E94470468EEC6
:1010F00073E080E090E00E9444010E94EF0280E0F3
:101100000E94980380EC91E00E94470442E0C501F0
:10111000B4010E944C048CEC91E00E94470468EEFC
:1011200073E080E090E00E9444018091EA0288230D
:1011300081F00E94EF028FEC91E00E9447048CED59
:1011400091E00E94140468EE73E080E090E00E9459
:1011500044018091E902882381F00E94EF0288EF28
:1011600091E00E94470484E092E00E94140468EE3B
:1011700073E080E090E00E9444018091E8028823BF
:1011800081F00E94EF028FE192E00E94470480E329
:1011900092E00E94140468EE73E080E090E00E9408
:1011A00044018091E702882381F00E94EF0280E5EC
:1011B00092E00E9447048EE592E00E94140468EEDB
:1011C00073E080E090E00E9444018091E602882371
:1011D00081F00E94EF028BE792E00E94470487E8CB
:1011E00092E00E94140468EE73E080E090E00E94B8
:1011F00044011091EA028091000111111EC09091EA
:10120000E602911142C09091E90291113EC08823FB
:1012100019F160E08DE00E948D001092000118C06D
:101220009E3040F42850310981E001C0880F2A9592
:10123000EAF7DCCD2E503109F7CF811118C061E0FB
:101240008DE00E948D0081E08093000111110FC09C
:101250008091E60281110BC080910001811107C0CD
:1012600061E08DE00E948D0081E08093000164E6E2
:1012700070E080E090E00E94440180E090E0892BE3
:1012800009F4F8CD0E940000F5CD8111E1CFD7CF50
:101290001092F7021092F60288EE93E0A0E0B0E020
:1012A0008093F8029093F902A093FA02B093FB02A4
:1012B00081E191E09093F5028093F40210920B0388
:1012C00010920A0310920D0310920C0310920F0358
:1012D00010920E03109211031092100360911203EA
:1012E0006E7F6D7F609312036695617081E0682761
:1012F00080E00E948D0061E080E00E94D900EAE970
:10130000F0E0E491E0930403E6E8F0E0E491F0E03B
:10131000EE0FFF1FE458FF4F8591949190930603C1
:101320008093050360E081E00E94D9008091120360
:1013300081FD04C061E081E00E948D0081E0809326
:101340000003EBE9F0E0E491E0930103E7E8F0E06B
:10135000E491F0E0EE0FFF1FE859FF4F8591949163
:1013600090930303809302031092160310921503C7
:1013700085E091E0909314038093130387E08093BA
:1013800017038FEF8093180386E08093190385E09D
:1013900080931A0384E080931B0383E080931C03F3
:1013A00082E080931D0310921E0310921F0310927F
:1013B0002003109221031092220381E00C94F70283
:1013C00081E191E09093F5028093F4028091E40230
:1013D0009091E502845F924071F4E0910703F091EF
:1013E000080390818091090380958923808310925E
:1013F000E5021092E40208955058BB27AA270E94E4
:10140000140A0C94870B0E94790B38F00E94800B11
:1014100020F039F49F3F19F426F40C94760B0EF467
:10142000E095E7FB0C94700BE92F0E94980B58F3A2
:10143000BA17620773078407950720F079F4A6F5B9
:101440000C94BA0B0EF4E0950B2EBA2FA02D0B01C5
:10145000B90190010C01CA01A0011124FF27591BF9
:1014600099F0593F50F4503E68F11A16F040A22FFF
:10147000232F342F4427585FF3CF46953795279570
:10148000A795F0405395C9F77EF41F16BA0B620B6F
:10149000730B840BBAF09150A1F0FF0FBB1F661FB6
:1014A000771F881FC2F70EC0BA0F621F731F841FF9
:1014B00048F4879577956795B795F7959E3F08F01F
:1014C000B0CF9395880F08F09927EE0F97958795E1
:1014D00008950E944C0B08F481E008950E94820A4E
:1014E0000C94870B0E94800B58F00E94790B40F0FF
:1014F00029F45F3F29F00C94700B51110C94BB0B35
:101500000C94760B0E94980B68F39923B1F3552342
:1015100091F3951B550BBB27AA2762177307840706
:1015200038F09F5F5F4F220F331F441FAA1FA9F39C
:1015300035D00E2E3AF0E0E832D091505040E6958A
:10154000001CCAF72BD0FE2F29D0660F771F881FEB
:10155000BB1F261737074807AB07B0E809F0BB0BDE
:10156000802DBF01FF2793585F4F3AF09E3F5105F2
:1015700078F00C94700B0C94BB0B5F3FE4F3983E37
:10158000D4F3869577956795B795F7959F5FC9F7DB
:10159000880F911D9695879597F90895E1E0660F5C
:1015A000771F881FBB1F621773078407BA0720F0D5
:1015B000621B730B840BBA0BEE1F88F7E09508953E
:1015C0000E94A00B88F09F5798F0B92F9927B75128
:1015D000B0F0E1F0660F771F881F991F1AF0BA95D7
:1015E000C9F714C0B13091F00E94BA0BB1E0089570
:1015F0000C94BA0B672F782F8827B85F39F0B93F62
:10160000CCF3869577956795B395D9F73EF4909589
:101610008095709561957F4F8F4F9F4F0895E89407
:1016200009C097FB3EF490958095709561957F4F2A
:101630008F4F9F4F9923A9F0F92F96E9BB279395D8
:10164000F695879577956795B795F111F8CFFAF4E8
:10165000BB0F11F460FF1BC06F5F7F4F8F4F9F4F19
:1016600016C0882311F096E911C0772321F09EE877
:10167000872F762F05C0662371F096E8862F70E0DD
:1016800060E02AF09A95660F771F881FDAF7880FB7
:101690009695879597F90895990F0008550FAA0B0D
:1016A000E0E8FEEF16161706E807F907C0F0121675
:1016B0001306E407F50798F0621B730B840B950B78
:1016C00039F40A2661F0232B242B252B21F40895CD
:1016D0000A2609F4A140A6958FEF811D811D08956A
:1016E00097F99F6780E870E060E008959FEF80ECD5
:1016F000089500240A941616170618060906089578
:1017000000240A9412161306140605060895092EDD
:101710000394000C11F4882352F0BB0F40F4BF2B4C
:1017200011F460FF04C06F5F7F4F8F4F9F4F08958C
:1017300057FD9058440F551F59F05F3F71F0479582
:10174000880F97FB991F61F09F3F79F08795089567
:10175000121613061406551FF2CF4695F1DF08C086
:10176000161617061806991FF1CF869571056105A3
:1017700008940895E894BB2766277727CB0197F94B
:1017800008950E944C0B08F48FEF08950E94D90B26
:101790000C94870B0E94790B38F00E94800B20F08C
:1017A000952311F00C94700B0C94760B11240C946F
:1017B000BB0B0E94980B70F3959FC1F3950F50E0FF
:1017C000551F629FF001729FBB27F00DB11D639FF3
:1017D000AA27F00DB11DAA1F649F6627B00DA11D99
:1017E000661F829F2227B00DA11D621F739FB00D3F
:1017F000A11D621F839FA00D611D221F749F3327AF
:10180000A00D611D231F849F600D211D822F762F47
:101810006A2F11249F5750409AF0F1F088234AF024
:10182000EE0FFF1FBB1F661F771F881F9150504090
:10183000A9F79E3F510580F00C94700B0C94BB0BE4
:101840005F3FE4F3983ED4F3869577956795B79517
:10185000F795E7959F5FC1F7FE2B880F911D969531
:10186000879597F908950E944C0B880B990B089562
:10187000A1E21A2EAA1BBB1BFD010DC0AA1FBB1F94
:10188000EE1FFF1FA217B307E407F50720F0A21B06
:10189000B30BE40BF50B661F771F881F991F1A9473
:1018A00069F760957095809590959B01AC01BD019D
:1018B000CF010895EE0FFF1F0590F491E02D0994DC
:1018C00010E0C2E6D0E004C0FE010E945A0C21964E
:1018D000C336D107C9F7F894FFCF0100000000A676
:1018E00003760150024F0200000000BC0176015057
:1018F00002BB0118022E02A3010D0A0041542B4322
:101900004D47463D310041542B434D47533D2250F6
:101910004552534F4E454C20494E4348415247454E
:1019200022006E616E00696E66006F76660054720A
:10193000616E73666F726D6572204D6F6E69746F44
:101940007200616E6420436F6E74726F6C20537905
:101950007374656D0053797374656D20696E697475
:1019600069616C697A65640043757272656E743A78
:101970002000204100566F6C746167653A2000209A
:10198000560054656D703A20002043004F696C206A
:101990004C766C3A200020636D004C6F6164696E78
:1019A0006720253A20002025004F7665722D43756B
:1019B0007272656E74004F7665722D437572726532
:1019C0006E74206661756C742064657465637465FB
:1019D00064004C6F7720566F6C74616765004C6FC4
:1019E0007720566F6C74616765206661756C742032
:1019F000646574656374656400486967682054654C
:101A00006D7065726174757265004869676820540D
:101A1000656D7065726174757265206661756C7450
:101A2000206465746563746564004C6F77204F694A
:101A30006C204C6576656C004C6F77204F696C208C
:101A40004C6576656C206661756C742064657465A0
:101A500063746564004F7665726C6F6164696E676C
:101A6000004F7665726C6F6164696E6720666175A0
:0C1A70006C742064657465637465640028
:107E0000112484B714BE81FFF0D085E080938100F7
:107E100082E08093C00088E18093C10086E0809377
:107E2000C20080E18093C4008EE0C9D0259A86E02C
:107E300020E33CEF91E0309385002093840096BBD3
:107E4000B09BFECF1D9AA8958150A9F7CC24DD24C4
:107E500088248394B5E0AB2EA1E19A2EF3E0BF2EE7
:107E6000A2D0813461F49FD0082FAFD0023811F036
:107E7000013811F484E001C083E08DD089C08234E0
:107E800011F484E103C0853419F485E0A6D080C0E4
:107E9000853579F488D0E82EFF2485D0082F10E0AE
:107EA000102F00270E291F29000F111F8ED06801E7
:107EB0006FC0863521F484E090D080E0DECF843638
:107EC00009F040C070D06FD0082F6DD080E0C81688
:107ED00080E7D80618F4F601B7BEE895C0E0D1E017
:107EE00062D089930C17E1F7F0E0CF16F0E7DF06D8
:107EF00018F0F601B7BEE89568D007B600FCFDCFD4
:107F0000A601A0E0B1E02C9130E011968C91119780
:107F100090E0982F8827822B932B1296FA010C0160
:107F200087BEE89511244E5F5F4FF1E0A038BF0790
:107F300051F7F601A7BEE89507B600FCFDCF97BE46
:107F4000E89526C08437B1F42ED02DD0F82E2BD052
:107F50003CD0F601EF2C8F010F5F1F4F84911BD097
:107F6000EA94F801C1F70894C11CD11CFA94CF0C13
:107F7000D11C0EC0853739F428D08EE10CD085E9AC
:107F80000AD08FE07ACF813511F488E018D01DD067
:107F900080E101D065CF982F8091C00085FFFCCF94
:107FA0009093C60008958091C00087FFFCCF809118
:107FB000C00084FD01C0A8958091C6000895E0E648
:107FC000F0E098E1908380830895EDDF803219F02E
:107FD00088E0F5DFFFCF84E1DECF1F93182FE3DFCA
:107FE0001150E9F7F2DF1F91089580E0E8DFEE27F6
:047FF000FF270994CA
:027FFE00040479
:00000001FF
