:100000000C945D000C9485000C9485000C94850084
:100010000C9485000C9485000C9485000C9485004C
:100020000C9485000C9485000C9485000C9485003C
:100030000C9485000C9485000C9485000C9485002C
:100040000C94F2040C9485000C9462050C943C050D
:100050000C9485000C9485000C9485000C9485000C
:100060000C9485000C9485000000000024002700FB
:100070002A0000000000250028002B0004040404CE
:100080000404040402020202020203030303030342
:10009000010204081020408001020408102001021F
:1000A00004081020000000080002010000030407FB
:1000B0000000000000000000940511241FBECFEFD7
:1000C000D8E0DEBFCDBF11E0A0E0B1E0ECE5F3E1A8
:1000D00002C005900D92A635B107D9F722E0A6E53A
:1000E000B1E001C01D92A431B207E1F710E0CDE507
:1000F000D0E004C02197FE010E94A609CC35D107AB
:10010000C9F70E94DE050C94AC090C94000090E045
:10011000FC01EC55FF4F2491FC01E057FF4F349157
:10012000FC01E458FF4FE491EE23C9F0222339F09B
:10013000233001F1A8F4213019F1223029F1F0E047
:10014000EE0FFF1FEE58FF4FA591B4918FB7F894B3
:10015000EC91611126C030953E233C938FBF0895EA
:100160002730A9F02830C9F0243049F78091800069
:100170008F7D03C0809180008F7780938000DFCFD8
:1001800084B58F7784BDDBCF84B58F7DFBCF809125
:10019000B0008F778093B000D2CF8091B0008F7D78
:1001A000F9CF3E2BDACFCF93DF9390E0FC01E057FD
:1001B000FF4F249184589F4FFC0184918823D1F0F4
:1001C00090E0880F991FFC01E859FF4FA591B49169
:1001D000FC01EE58FF4FC591D49161110EC09FB73D
:1001E000F8948C91E22FE0958E238C932881E22362
:1001F000E8839FBFDF91CF9108958FB7F894EC917A
:10020000E22BEC938FBFF6CF3FB7F89480915B0160
:1002100090915C01A0915D01B0915E0126B5A89B13
:1002200005C02F3F19F00196A11DB11D3FBFBA2F88
:10023000A92F982F8827BC01CD01620F711D811D48
:10024000911D42E0660F771F881F991F4A95D1F7CD
:100250000895AF92BF92CF92DF92EF92FF920F93E9
:100260001F93CF93DF936C017B018B01040F151F4C
:10027000EB015E01AE18BF08C017D10759F06991B4
:10028000D601ED91FC910190F081E02DC601099518
:10029000892B79F7C501DF91CF911F910F91FF90C5
:1002A000EF90DF90CF90BF90AF900895FC01538DF9
:1002B000448D252F30E0842F90E0821B930B541740
:1002C00010F0CF96089501970895FC01918D828DCD
:1002D000981761F0A28DAE0FBF2FB11D5D968C9166
:1002E000928D9F5F9F73928F90E008958FEF9FEFA5
:1002F0000895FC01918D828D981731F0828DE80F61
:10030000F11D858D90E008958FEF9FEF0895FC011A
:10031000918D228D892F90E0805C9F4F821B9109E7
:100320008F73992708958FE591E00E94870121E05E
:10033000892B09F420E0822F089580E090E0892B3A
:1003400029F00E94930181110C9400000895FC0192
:10035000A48DA80FB92FB11DA35ABF4F2C91848D26
:1003600090E001968F739927848FA689B7892C9383
:10037000A089B1898C91837080648C93938D848DD6
:10038000981306C00288F389E02D80818F7D8083D9
:100390000895EF92FF920F931F93CF93DF93EC0199
:1003A00081E0888F9B8D8C8D98131AC0E889F9891C
:1003B000808185FF15C09FB7F894EE89FF8960831F
:1003C000E889F98980818370806480839FBF81E0A0
:1003D00090E0DF91CF911F910F91FF90EF900895E2
:1003E000F62E0B8D10E00F5F1F4F0F731127E02EBD
:1003F0008C8D8E110CC00FB607FCFACFE889F989F5
:10040000808185FFF5CFCE010E94A701F1CFEB8D52
:10041000EC0FFD2FF11DE35AFF4FF0829FB7F894C8
:100420000B8FEA89FB8980818062CFCFCF93DF93E6
:10043000EC01888D8823B9F0AA89BB89E889F989FC
:100440008C9185FD03C0808186FD0DC00FB607FC31
:10045000F7CF8C9185FFF2CF808185FFEDCFCE0164
:100460000E94A701E9CFDF91CF910895089590E010
:1004700080E00895CF92DF92EF92FF928E508064D9
:1004800080937C0080917A00806480937A008091D0
:100490007A0086FDFCCF6091780070917900072E7C
:1004A000000C880B990B0E945D082AE038E240EAB4
:1004B0005BE30E94120920E030E040EF52E40E942A
:1004C000480720E030E049E353E40E94BA076B019B
:1004D0007C0120E030E0A9010E940D09181624F0EB
:1004E000F7FAF094F7F8F094C701B601FF90EF9097
:1004F000DF90CF900895FC0101900020E9F731973B
:10050000AF01481B590BBC018CEF91E00C94290101
:100510008F929F92AF92BF920F931F93CF93DF93CF
:10052000CDB7DEB7A1970FB6F894DEBF0FBECDBF33
:1005300019A2423008F44AE08E010F5D1F4F842E4D
:10054000912CB12CA12CA50194010E948409E62FC5
:10055000B901CA01EA30F4F4E05DD801EE938D01EF
:10056000232B242B252B79F790E080E0109719F0AE
:10057000CD010E947B02A1960FB6F894DEBF0FBE9C
:10058000CDBFDF91CF911F910F91BF90AF909F9002
:100590008F900895E95CE1CFCF93DF93EC0160E0A9
:1005A0008E810E94870061E08E810E94870060E05A
:1005B0008E810E9487008BE891E00197F1F7DF912F
:1005C000CF910895CF92DF92EF92FF920F931F93F6
:1005D000CF93DF936C017C0187E0E80EF11CD0E043
:1005E000C0E0062F10E0B8010C2E02C0759567958B
:1005F0000A94E2F76170F70181917F010E94870000
:100600002196C430D10579F7C601DF91CF911F91B2
:100610000F91FF90EF90DF90CF900C94CC02CF928F
:10062000DF92EF92FF920F931F93CF93DF93EC0132
:10063000F62E642F8C810E9487008D818F3F19F0E8
:1006400060E00E9487000F2D10E08F8584FF25C099
:100650006E0187E0C80ED11CF12CE12CB8010E2CE4
:1006600002C0759567950A94E2F76170F601819171
:100670006F010E948700FFEFEF1AFF0A88E0E8167B
:10068000F10461F7CE01DF91CF911F910F91FF909F
:10069000EF90DF90CF900C94CC02B80184E0759578
:1006A00067958A95E1F7CE010E94E2026F2DCE0197
:1006B000DF91CF911F910F91FF90EF90DF90CF903E
:1006C0000C94E20240E0682F8CEF91E00C940F0351
:1006D000CF93DF93823029F490910B02986090932E
:1006E0000B0280930F021092100280E4809311029B
:1006F00080E18093120280E58093130261E0809193
:1007000000020E94D300809101028F3F19F061E046
:100710000E94D30061E0809102020E94D300CCEFDE
:10072000D1E09E012C5F314080910B0284FD0BC013
:1007300084E090E021962817390744F461E08E8127
:100740000E94D300EECF88E090E0F4CF8BE39DE0F1
:100750000197F1F760E0809100020E94870060E05D
:10076000809102020E948700809101028F3F19F060
:1007700060E00E94870080910B0284FD39C063E035
:100780008CEF91E00E94E202CBE4D6E4CE01019727
:10079000F1F763E08CEF91E00E94E2022197F1F71C
:1007A00063E08CEF91E00E94E20283E592E0019722
:1007B000F1F762E08CEF91E00E94E20280910B027F
:1007C00080620E94620384E080930C028CE00E94AD
:1007D000620381E00E9462038BE39FE10197F1F7DE
:1007E00082E080930D0286E0DF91CF910C9462034A
:1007F00080620E9462038BE496E40197F1F7809196
:100800000B0280620E94620383E592E00197F1F798
:1008100080910B0280620E946203D0CF41E00E946F
:100820000F0381E090E008954F925F926F927F9264
:100830008F929F92AF92BF92CF92DF92EF92FF92F0
:100840000F931F93CF936B017C01742EAC019B011E
:100850000E947F09882399F08EE191E0CF911F914A
:100860000F91FF90EF90DF90CF90BF90AF909F904F
:100870008F907F906F905F904F900C947B02460119
:100880005701E894B7F82FEF3FEF4FE75FE7C50157
:10089000B4010E947F0981110DC02FEF3FEF4FE798
:1008A0005FE7C501B4010E94B50718161CF482E287
:1008B00091E0D4CF2FEF3FEF4FE75FE4C701B601E0
:1008C0000E940D0918161CF486E291E0C7CF2FEFA5
:1008D0003FEF4FE75FECC701B6010E94B50787FD08
:1008E000F3CF20E030E0A901C701B6010E94B507AF
:1008F00010E000E087FF0CC041E06DE28CEF91E07A
:100900000E940F03F7FAF094F7F8F09401E010E07A
:10091000C0E060E070E080E09FE37C1641F020E002
:1009200030E040E251E40E94BA07CF5FF6CFA70162
:1009300096010E9449074B015C010E942C082B0183
:100940003C014AE00E948802080F191FCC23C9F11C
:10095000C301B2010E945B089B01AC01C501B40157
:100960000E9448074B015C0141E06EE28CEF91E090
:100970000E940F030F5F1F4FC15018F120E030E0BD
:1009800040E251E4C501B4010E9412092B013C016F
:100990000E942C084B01B12CA12C4AE0C501B401E6
:1009A0000E948802080F191FC501B4010E945B084C
:1009B0009B01AC01C301B2010E9448074B015C01DD
:1009C000DBCFC801CF911F910F91FF90EF90DF9087
:1009D000CF90BF90AF909F908F907F906F905F90DF
:1009E0004F9008951F920F920FB60F9211242F93DC
:1009F0003F938F939F93AF93BF93809157019091B3
:100A00005801A0915901B0915A013091560123E04B
:100A1000230F2D3758F50196A11DB11D20935601C6
:100A20008093570190935801A0935901B0935A01B4
:100A300080915B0190915C01A0915D01B0915E019C
:100A40000196A11DB11D80935B0190935C01A09361
:100A50005D01B0935E01BF91AF919F918F913F91E6
:100A60002F910F900FBE0F901F90189526E8230F1F
:100A70000296A11DB11DD2CF1F920F920FB60F92F9
:100A800011242F933F934F935F936F937F938F9393
:100A90009F93AF93BF93EF93FF938FE591E00E94F5
:100AA000A701FF91EF91BF91AF919F918F917F919E
:100AB0006F915F914F913F912F910F900FBE0F90CB
:100AC0001F9018951F920F920FB60F9211242F931B
:100AD0008F939F93EF93FF93E0916F01F0917001DB
:100AE0008081E0917501F091760182FD1BC09081BB
:100AF000809178018F5F8F7320917901821741F087
:100B0000E0917801F0E0E15AFE4F958F80937801F3
:100B1000FF91EF919F918F912F910F900FBE0F90AA
:100B20001F9018958081F4CFEFE5F1E013821282D7
:100B300088EE93E0A0E0B0E084839583A683B7833A
:100B400084E091E09183808385EC90E095878487B1
:100B500084EC90E09787868780EC90E0918B808B87
:100B600081EC90E0938B828B82EC90E0958B848B70
:100B700086EC90E0978B868B118E128E138E148EDE
:100B8000ECEFF1E01382128286E191E091838083A1
:100B90008CE084838FEF85838BE0868385E0878379
:100BA00084E0808783E0818782E0828713861486D1
:100BB00015861686178681E00C946803789484B5B0
:100BC000826084BD84B5816084BD85B5826085BD49
:100BD00085B5816085BD80916E00816080936E00D7
:100BE00010928100809181008260809381008091C9
:100BF000810081608093810080918000816080937A
:100C000080008091B10084608093B1008091B00039
:100C100081608093B00080917A00846080937A0034
:100C200080917A00826080937A0080917A0081605E
:100C300080937A0080917A00806880937A00109285
:100C4000C100E0916F01F091700182E08083E0913A
:100C50006B01F0916C011082E0916D01F0916E01D9
:100C60008FEC808310927701E0917301F091740111
:100C700086E08083E0917101F09172018081806152
:100C80008083E0917101F09172018081886080839E
:100C9000E0917101F0917201808180688083E09120
:100CA0007101F091720180818F7D808382E00E94CA
:100CB000680361E088E00E94D30061E089E00E945F
:100CC000D30060E08EE00E94D30060E080E10E94EB
:100CD000D30060E08FE00E94D3000BE31FE1C0E08F
:100CE000D0E08EE090E00E943A022B013C0180E1CE
:100CF00090E00E943A024B015C018FE090E00E947C
:100D00003A026B017C0181E00E946203C8010197F5
:100D1000F1F78AE291E00E947B0220E030E040E7B8
:100D200053E4C301B2010E94120920E030E04AE717
:100D300054E40E94BA0742E00E94140487E391E061
:100D40000E947B02E0910F02E23008F09DC0E1506A
:100D5000F0E0E450FE4F848980680E9462038CE3D7
:100D600091E00E947B0220E030E040E753E4C501BF
:100D7000B4010E94120920E030E04AE754E40E94E6
:100D8000BA0742E00E94140487E391E00E947B02CC
:100D900086E491E00E947B02E0910F02E33008F0CC
:100DA00075C0E150F0E0E450FE4F848980680E94F5
:100DB00062038BE491E00E947B0220E030E040E798
:100DC00053E4C701B6010E94120920E030E04AE76F
:100DD00054E40E94BA0742E00E94140487E391E0C1
:100DE0000E947B0286E491E00E947B0220E030E0DA
:100DF00040E85FE3C501B4010E940D0961E01816E7
:100E00000CF060E088E00E94870020E030E040E8DD
:100E10005FE3C701B6010E940D0961E018160CF0EE
:100E200060E089E00E9487000E9404014B015C01A0
:100E300088EEC82E83E0D82EE12CF12C0E9404010C
:100E4000681979098A099B09683E734081059105F3
:100E5000A8F321E0C21AD108E108F10888EE880E53
:100E600083E0981EA11CB11CC114D104E104F1045B
:100E700029F7209709F435CF0E949301882309F4BC
:100E800030CF0E9400002DCFE1E062CFE2E08ACFB8
:100E90005058BB27AA270E9460070C94D3080E94D1
:100EA000C50838F00E94CC0820F039F49F3F19F4AF
:100EB00026F40C94C2080EF4E095E7FB0C94BC08F1
:100EC000E92F0E94E40858F3BA17620773078407F2
:100ED000950720F079F4A6F50C9406090EF4E09538
:100EE0000B2EBA2FA02D0B01B90190010C01CA01E4
:100EF000A0011124FF27591B99F0593F50F4503E8F
:100F000068F11A16F040A22F232F342F4427585F80
:100F1000F3CF469537952795A795F0405395C9F798
:100F20007EF41F16BA0B620B730B840BBAF0915050
:100F3000A1F0FF0FBB1F661F771F881FC2F70EC0EF
:100F4000BA0F621F731F841F48F4879577956795C2
:100F5000B795F7959E3F08F0B0CF9395880F08F0AE
:100F60009927EE0F9795879508950E94980808F4A1
:100F700081E008950E94CE070C94D3080E94CC080B
:100F800058F00E94C50840F029F45F3F29F00C9406
:100F9000BC0851110C9407090C94C2080E94E40883
:100FA00068F39923B1F3552391F3951B550BBB2798
:100FB000AA2762177307840738F09F5F5F4F220FDD
:100FC000331F441FAA1FA9F335D00E2E3AF0E0E8D4
:100FD00032D091505040E695001CCAF72BD0FE2F1E
:100FE00029D0660F771F881FBB1F261737074807B2
:100FF000AB07B0E809F0BB0B802DBF01FF2793586A
:101000005F4F3AF09E3F510578F00C94BC080C9469
:1010100007095F3FE4F3983ED4F38695779567958B
:10102000B795F7959F5FC9F7880F911D969587959E
:1010300097F90895E1E0660F771F881FBB1F6217BD
:1010400073078407BA0720F0621B730B840BBA0B7B
:10105000EE1F88F7E09508950E94EC0888F09F57EE
:1010600098F0B92F9927B751B0F0E1F0660F771FCC
:10107000881F991F1AF0BA95C9F714C0B13091F0C2
:101080000E940609B1E008950C940609672F782F95
:101090008827B85F39F0B93FCCF386957795679587
:1010A000B395D9F73EF490958095709561957F4FF3
:1010B0008F4F9F4F0895E89409C097FB3EF4909599
:1010C0008095709561957F4F8F4F9F4F9923A9F021
:1010D000F92F96E9BB279395F695879577956795B0
:1010E000B795F111F8CFFAF4BB0F11F460FF1BC0F4
:1010F0006F5F7F4F8F4F9F4F16C0882311F096E987
:1011000011C0772321F09EE8872F762F05C0662334
:1011100071F096E8862F70E060E02AF09A95660FED
:10112000771F881FDAF7880F9695879597F90895A6
:10113000990F0008550FAA0BE0E8FEEF16161706E8
:10114000E807F907C0F012161306E407F50798F050
:10115000621B730B840B950B39F40A2661F0232B69
:10116000242B252B21F408950A2609F4A140A695E5
:101170008FEF811D811D089597F99F6780E870E0CA
:1011800060E008959FEF80EC089500240A941616FD
:10119000170618060906089500240A941216130665
:1011A000140605060895092E0394000C11F48823F3
:1011B00052F0BB0F40F4BF2B11F460FF04C06F5F0F
:1011C0007F4F8F4F9F4F089557FD9058440F551FE5
:1011D00059F05F3F71F04795880F97FB991F61F0B9
:1011E0009F3F79F087950895121613061406551F30
:1011F000F2CF4695F1DF08C0161617061806991F9C
:10120000F1CF86957105610508940895E894BB2790
:1012100066277727CB0197F908950E94980808F46C
:101220008FEF08950E9425090C94D3080E94C508E9
:1012300038F00E94CC0820F0952311F00C94BC08E3
:101240000C94C20811240C9407090E94E40870F35E
:10125000959FC1F3950F50E0551F629FF001729F5B
:10126000BB27F00DB11D639FAA27F00DB11DAA1F6A
:10127000649F6627B00DA11D661F829F2227B00DB7
:10128000A11D621F739FB00DA11D621F839FA00D42
:10129000611D221F749F3327A00D611D231F849F92
:1012A000600D211D822F762F6A2F11249F575040E9
:1012B0009AF0F1F088234AF0EE0FFF1FBB1F661F64
:1012C000771F881F91505040A9F79E3F510580F02D
:1012D0000C94BC080C9407095F3FE4F3983ED4F3E8
:1012E000869577956795B795F795E7959F5FC1F7D1
:1012F000FE2B880F911D9695879597F908950E946A
:101300009808880B990B0895A1E21A2EAA1BBB1B03
:10131000FD010DC0AA1FBB1FEE1FFF1FA217B307C1
:10132000E407F50720F0A21BB30BE40BF50B661FD7
:10133000771F881F991F1A9469F76095709580959B
:1013400090959B01AC01BD01CF010895EE0FFF1FE9
:0C1350000590F491E02D0994F894FFCF73
:10135C0000000000C9012901560116028701650130
:10136C007901000000000E042901370236026E617B
:10137C006E00696E66006F7666004D61696E204D79
:10138C00657465723A2000204B564100486F7573A6
:10139C006520413A20002020202000486F7573659D
:0613AC0020423A2000007F
:00000001FF
