:020000040000FA
:100000000C9462000C948A000C948A000C948A0070
:100010000C948A000C948A000C948A000C948A0038
:100020000C948A000C948A000C948A000C948A0028
:100030000C948A000C948A000C948A000C948A0018
:100040000C94F7050C948A000C9467060C944106F6
:100050000C948A000C948A000C948A000C948A00F8
:100060000C948A000C948A000000000024002700F1
:100070002A0000000000250028002B0000000000DE
:1000800023002600290004040404040404040202DA
:100090000202020203030303030301020408102007
:1000A0004080010204081020010204081020000012
:1000B0000008000201000003040700000000000027
:1000C0000000990611241FBECFEFD8E0DEBFCDBFE0
:1000D00011E0A0E0B1E0E0E6F7E102C005900D928A
:1000E000A038B107D9F722E0A0E8B1E001C01D9225
:1000F000AE33B207E1F710E0C2E6D0E004C02197CA
:10010000FE010E94A80BC136D107C9F70E94E30681
:100110000C94AE0B0C940000833081F028F48130F5
:1001200099F08230A9F008958730A9F08830C9F09D
:100130008430B1F4809180008F7D03C08091800075
:100140008F7780938000089584B58F7784BD08955C
:1001500084B58F7DFBCF8091B0008F778093B00006
:1001600008958091B0008F7DF9CFCF93DF93282F32
:1001700030E0F901E255FF4F8491F901E656FF4F57
:10018000D491F901EA57FF4FC491CC23A1F081111A
:100190000E948C00EC2FF0E0EE0FFF1FE458FF4FA1
:1001A000A591B491EC91ED2381E090E009F480E019
:1001B000DF91CF91089580E090E0FACF1F93CF9325
:1001C000DF93282F30E0F901E255FF4F8491F901C8
:1001D000E656FF4FD491F901EA57FF4FC491CC2363
:1001E000A9F0162F81110E948C00EC2FF0E0EE0F89
:1001F000FF1FEE58FF4FA591B4918FB7F894EC9183
:10020000111108C0D095DE23DC938FBFDF91CF9111
:100210001F910895DE2BF8CFCF93DF9390E0FC0180
:10022000E656FF4F24918A579F4FFC018491882303
:10023000D1F090E0880F991FFC01E859FF4FA5917C
:10024000B491FC01EE58FF4FC591D49161110EC0DD
:100250009FB7F8948C91E22FE0958E238C932881A0
:10026000E223E8839FBFDF91CF9108958FB7F89481
:10027000EC91E22BEC938FBFF6CF1F93CF93DF93DC
:10028000182FEB0161E00E940C01209739F460E027
:10029000812FDF91CF911F910C94DE00CF3FD105CC
:1002A00011F461E0F5CFE12FF0E0E255FF4FE4916A
:1002B000E33031F140F4E130B1F0E230E1F0C03848
:1002C000D1057CF7E4CFE73029F1E83059F1E4308B
:1002D000B1F780918000806280938000D0938B0082
:1002E000C0938A0004C084B5806884BDC7BDDF9117
:1002F000CF911F91089584B5806284BDC8BDF7CFAA
:1003000080918000806880938000D0938900C093A2
:100310008800EDCF8091B00080688093B000C093DA
:10032000B300E5CF8091B00080628093B000C093AD
:10033000B400DDCF3FB7F89480918501909186019C
:10034000A0918701B091880126B5A89B05C02F3FD9
:1003500019F00196A11DB11D3FBFBA2FA92F982FEB
:100360008827BC01CD01620F711D811D911D42E0E6
:10037000660F771F881F991F4A95D1F708958F92AE
:100380009F92AF92BF92CF92DF92EF92FF920E9424
:100390009A014B015C0180EDC82E87E0D82EE12C3C
:1003A000F12C0E949A01681979098A099B09683E13
:1003B000734081059105A8F321E0C21AD108E10834
:1003C000F10888EE880E83E0981EA11CB11CC114B0
:1003D000D104E104F10429F7FF90EF90DF90CF9072
:1003E000BF90AF909F908F900895AF92BF92CF92A1
:1003F000DF92EF92FF920F931F93CF93DF936C01E5
:100400007B018B01040F151FEB015E01AE18BF08C5
:10041000C017D10759F06991D601ED91FC91019077
:10042000F081E02DC6010995892B79F7C501DF918F
:10043000CF911F910F91FF90EF90DF90CF90BF90E1
:10044000AF900895FC01538D448D252F30E0842F0B
:1004500090E0821B930B541710F0CF9608950197EC
:100460000895FC01918D828D981761F0A28DAE0FD9
:10047000BF2FB11D5D968C91928D9F5F9F73928F60
:1004800090E008958FEF9FEF0895FC01918D828D8C
:10049000981731F0828DE80FF11D858D90E0089559
:1004A0008FEF9FEF0895FC01918D228D892F90E0B1
:1004B000805C9F4F821B91098F739927089589E86B
:1004C00091E00E94530221E0892B09F420E0822F61
:1004D000089580E090E0892B29F00E945F0281114D
:1004E0000C9400000895FC01A48DA80FB92FB11D34
:1004F000A35ABF4F2C91848D90E001968F7399275A
:10050000848FA689B7892C93A089B1898C91837037
:1005100080648C93938D848D981306C00288F38930
:10052000E02D80818F7D80830895EF92FF920F935D
:100530001F93CF93DF93EC0181E0888F9B8D8C8D8F
:1005400098131AC0E889F989808185FF15C09FB783
:10055000F894EE89FF896083E889F9898081837046
:10056000806480839FBF81E090E0DF91CF911F91F5
:100570000F91FF90EF900895F62E0B8D10E00F5F16
:100580001F4F0F731127E02E8C8D8E110CC00FB6EC
:1005900007FCFACFE889F989808185FFF5CFCE0184
:1005A0000E947302F1CFEB8DEC0FFD2FF11DE35A8A
:1005B000FF4FF0829FB7F8940B8FEA89FB89808107
:1005C0008062CFCFCF93DF93EC01888D8823B9F081
:1005D000AA89BB89E889F9898C9185FD03C080814E
:1005E00086FD0DC00FB607FCF7CF8C9185FFF2CFCB
:1005F000808185FFEDCFCE010E947302E9CFDF91AC
:10060000CF910895089590E080E00895CF92DF9211
:10061000EF92FF928E50806480937C0080917A00EC
:10062000806480937A0080917A0086FDFCCF60918F
:10063000780070917900072E000C880B990B0E94AE
:10064000810A2AE038E240EA5BE30E94360B20E0B0
:1006500030E040EF52E40E946C0920E030E049E3D2
:1006600053E40E94DE096B017C0120E030E0A90127
:100670000E94310B181624F0F7FAF094F7F8F09472
:10068000C701B601FF90EF90DF90CF900895CF9310
:10069000DF93EC0160E08E810E94DE0061E08E81DC
:1006A0000E94DE0060E08E810E94DE008BE891E017
:1006B0000197F1F7DF91CF910895CF92DF92EF92FA
:1006C000FF920F931F93CF93DF936C017C0187E020
:1006D000E80EF11CD0E0C0E0062F10E0B8010C2EAF
:1006E00002C0759567950A94E2F76170F7018191F0
:1006F0007F010E94DE002196C430D10579F7C60142
:10070000DF91CF911F910F91FF90EF90DF90CF90ED
:100710000C944703CF92DF92EF92FF920F931F93B7
:10072000CF93DF93EC01F62E642F8C810E94DE00C4
:100730008D818F3F19F060E00E94DE000F2D10E0E8
:100740008F8584FF25C06E0187E0C80ED11CF12C77
:10075000E12CB8010E2C02C0759567950A94E2F75A
:100760006170F60181916F010E94DE00FFEFEF1AC8
:10077000FF0A88E0E816F10461F7CE01DF91CF911E
:100780001F910F91FF90EF90DF90CF900C94470353
:10079000B80184E0759567958A95E1F7CE010E94CE
:1007A0005D036F2DCE01DF91CF911F910F91FF90CF
:1007B000EF90DF90CF900C945D0340E0682F86E2CD
:1007C00092E00C948A0381E00E94DD038BE39FE1B9
:1007D0000197F1F70895CF93DF93823029F4909138
:1007E00035029860909335028093390210923A0254
:1007F00080E480933B0280E180933C0280E580931B
:100800003D0261E080912A020E940C0180912B023E
:100810008F3F19F061E00E940C0161E080912C0291
:100820000E940C01C6E2D2E09E0126523240809125
:10083000350284FD0BC084E090E02196281739072B
:1008400044F461E08E810E940C01EECF88E090E0DC
:10085000F4CF8BE39DE00197F1F760E080912A02ED
:100860000E94DE0060E080912C020E94DE008091F8
:100870002B028F3F19F060E00E94DE00809135026C
:1008800084FD34C063E086E292E00E945D03CBE425
:10089000D6E4CE010197F1F763E086E292E00E9490
:1008A0005D032197F1F763E086E292E00E945D0329
:1008B00083E592E00197F1F762E086E292E00E9420
:1008C0005D038091350280620E94DD0384E08093A5
:1008D00036028CE00E94DD030E94E30382E08093F5
:1008E000370286E0DF91CF910C94DD0380620E9495
:1008F000DD038BE496E40197F1F780913502806285
:100900000E94DD0383E592E00197F1F780913502C3
:1009100080620E94DD03D5CF41E00E948A0381E01E
:1009200090E00895FB0101900020E9F73197AF01B5
:10093000461B570BDC01ED91FC910280F381E02D09
:1009400009948F929F92AF92BF920F931F93CF9370
:10095000DF93CDB7DEB7A1970FB6F894DEBF0FBE19
:10096000CDBF19A2423008F44AE08E010F5D1F4F3F
:10097000842E912CB12CA12CA50194010E943B093D
:10098000E62FB901CA01EA3004F5E05DD801EE9323
:100990008D01232B242B252B79F790E080E01097F5
:1009A00029F0BD0186E292E00E949204A1960FB662
:1009B000F894DEBF0FBECDBFDF91CF911F910F9195
:1009C000BF90AF909F908F900895E95CDFCF4F92DA
:1009D0005F926F927F928F929F92AF92BF92CF92CF
:1009E000DF92EF92FF920F931F93CF936B017C01E5
:1009F000742EAC019B010E94A30B62E271E0811195
:100A000026C046015701E894B7F82FEF3FEF4FE7B4
:100A10005FE7C501B4010E94A30B81110CC02FEF49
:100A20003FEF4FE75FE7C501B4010E94D90966E2D5
:100A300071E0181664F02FEF3FEF4FE75FE4C70156
:100A4000B6010E94310B1816ACF46AE271E086E23E
:100A500092E0CF911F910F91FF90EF90DF90CF9098
:100A6000BF90AF909F908F907F906F905F904F90CE
:100A70000C9492042FEF3FEF4FE75FECC701B601F4
:100A80000E94D90987FDE1CF20E030E0A901C7012C
:100A9000B6010E94D90910E000E087FF0CC041E0D8
:100AA0006DE286E292E00E948A03F7FAF094F7F88A
:100AB000F09401E010E0C0E060E070E080E09FE3CF
:100AC0007C1641F020E030E040E251E40E94DE0973
:100AD000CF5FF6CFA70196010E946D094B015C0123
:100AE0000E94500A2B013C014AE00E94A104080F19
:100AF000191FCC23C9F1C301B2010E947F0A9B01D7
:100B0000AC01C501B4010E946C094B015C0141E0DC
:100B10006EE286E292E00E948A030F5F1F4FC1508F
:100B200018F120E030E040E251E4C501B4010E9438
:100B3000360B2B013C010E94500A4B01B12CA12C19
:100B40004AE0C501B4010E94A104080F191FC501A4
:100B5000B4010E947F0A9B01AC01C301B2010E9453
:100B60006C094B015C01DBCFC801CF911F910F9144
:100B7000FF90EF90DF90CF90BF90AF909F908F90BD
:100B80007F906F905F904F900895CF93C82F0E94F1
:100B9000B500019789F460E08C2F0E94DE006EE2C0
:100BA00071E089E891E00E9492046EE371E089E8C7
:100BB00091E0CF910C949204CF910895CF93C82FD8
:100BC0000E94B500892B89F461E08C2F0E94DE0021
:100BD00061E471E089E891E00E9492046EE371E0C3
:100BE00089E891E0CF910C949204CF9108951F92DF
:100BF0000F920FB60F9211242F933F938F939F93D1
:100C0000AF93BF938091810190918201A091830164
:100C1000B09184013091800123E0230F2D3758F5E6
:100C20000196A11DB11D20938001809381019093B5
:100C30008201A0938301B0938401809185019091FA
:100C40008601A0918701B09188010196A11DB11D77
:100C50008093850190938601A0938701B0938801CA
:100C6000BF91AF919F918F913F912F910F900FBEA8
:100C70000F901F90189526E8230F0296A11DB11D15
:100C8000D2CF1F920F920FB60F9211242F933F9342
:100C90004F935F936F937F938F939F93AF93BF9384
:100CA000EF93FF9389E891E00E947302FF91EF9127
:100CB000BF91AF919F918F917F916F915F914F9174
:100CC0003F912F910F900FBE0F901F9018951F927C
:100CD0000F920FB60F9211242F938F939F93EF9340
:100CE000FF93E0919901F0919A018081E0919F0139
:100CF000F091A00182FD1BC090818091A2018F5FC5
:100D00008F732091A301821741F0E091A201F0E0DE
:100D1000E757FE4F958F8093A201FF91EF919F912E
:100D20008F912F910F900FBE0F901F90189580817B
:100D3000F4CFE9E8F1E01382128288EE93E0A0E0BC
:100D4000B0E084839583A683B78388E091E09183A4
:100D5000808385EC90E09587848784EC90E097878A
:100D6000868780EC90E0918B808B81EC90E0938B78
:100D7000828B82EC90E0958B848B86EC90E0978B55
:100D8000868B118E128E138E148EE6E2F2E01382A1
:100D900012828AE191E0918380838CE084838FEFDB
:100DA00085838BE0868385E0878384E0808783E08A
:100DB000818782E0828713861486158616861786B9
:100DC00081E00C94EB03789484B5826084BD84B593
:100DD000816084BD85B5826085BD85B5816085BD36
:100DE00080916E00816080936E00109281008091EE
:100DF0008100826080938100809181008160809376
:100E00008100809180008160809380008091B1009A
:100E100084608093B1008091B00081608093B000C5
:100E200080917A00846080937A0080917A00826059
:100E300080937A0080917A00816080937A0080911B
:100E40007A00806880937A001092C100E091990145
:100E5000F0919A0182E08083E0919501F0919601F2
:100E60001082E0919701F09198018FEC80831092AD
:100E7000A101E0919D01F0919E0186E08083E091C7
:100E80009B01F0919C01808180618083E0919B01B6
:100E9000F0919C01808188608083E0919B01F091BA
:100EA0009C01808180688083E0919B01F0919C018E
:100EB00080818F7D808382E00E94EB0361E088E087
:100EC0000E940C0161E089E00E940C0160E080E179
:100ED0000E940C0160E08FE00E940C0161E086E05E
:100EE0000E940C0161E085E00E940C01812C912C94
:100EF00054019394C0E0D0E00E94B108A501940190
:100F00000E94090986E00E943D010E94B108A501E6
:100F100094010E94090985E00E943D010E94E303BB
:100F200063E571E086E292E00E94920480E190E045
:100F30000E94060320E030E040E753E40E94360BB5
:100F400020E030E04AE754E40E94DE0942E00E94DB
:100F5000E7046DE571E086E292E00E949204E09180
:100F60003902E23008F0A3C0E150F0E0EA5DFD4F45
:100F7000848980680E94DD0362E671E086E292E087
:100F80000E9492048FE090E00E94060320E030E08F
:100F900040E753E40E94360B20E030E04AE754E497
:100FA0000E94DE0942E00E94E7046DE571E086E2FE
:100FB00092E00E9492040E94BF010E94E3036CE64B
:100FC00071E086E292E00E94920480E190E00E944B
:100FD00006036B017C018FE090E00E9406039B01F9
:100FE000AC01C701B6010E946D0920E030E040E786
:100FF00053E40E94360B20E030E04AE754E40E94BC
:10100000DE096B017C0142E00E94E7046DE571E0BE
:1010100086E292E00E949204E0913902E23008F008
:1010200048C0E150F0E0EA5DFD4F848980680E948D
:10103000DD0369E771E086E292E00E94920442E0FB
:10104000C701B6010E94E7046DE571E086E292E017
:101050000E94920480E190E00E9406032DEC3CEC9B
:101060004CEC5DE30E94310B18162CF588E090E003
:101070000E94C5058FE090E00E9406032DEC3CEC39
:101080004CE45EE30E94310B1816D4F489E090E042
:101090000E94C5050E94BF01209709F42DCF0E9430
:1010A0005F02882309F428CF0E94000025CFE1E0E9
:1010B0005CCFE1E0B7CF88E090E00E94DE05DACFB8
:1010C00089E090E00E94DE05E5CF8F929F92AF927B
:1010D000BF92CF92DF92EF92FF92CF93DF93EC011A
:1010E000688179818A819B816115710581059105EE
:1010F00021F464E279ED8BE597E02DE133EF41E0F7
:1011000050E00E94090949015A019B01AC01A7EA7C
:10111000B1E40E9428096B017C01ACEEB4EFA5019B
:1011200094010E943609C60ED71EE81EF91EF7FE6E
:1011300006C081E0C81AD108E10880E8F80AC88230
:10114000D982EA82FB82C701B6019F77DF91CF91F6
:10115000FF90EF90DF90CF90BF90AF909F908F90D7
:1011600008958F929F92AF92BF92CF92DF92EF92AB
:10117000FF926091000170910101809102019091B4
:101180000301611571058105910521F464E279ED92
:101190008BE597E02DE133EF41E050E00E94090933
:1011A00049015A019B01AC01A7EAB1E40E94280958
:1011B0006B017C01ACEEB4EFA50194010E943609ED
:1011C000C60ED71EE81EF91EF7FE06C081E0C81A3B
:1011D000D108E10880E8F80AC0920001D09201012C
:1011E000E0920201F0920301C701B6019F77FF90E0
:1011F000EF90DF90CF90BF90AF909F908F90089529
:1012000060930001709301018093020190930301A8
:101210000895052E97FB1EF400940E94200957FDA7
:1012200007D00E943B0907FC03D04EF40C94200920
:1012300050954095309521953F4F4F4F5F4F089502
:1012400090958095709561957F4F8F4F9F4F089532
:101250000E945D09A59F900DB49F900DA49F800DE5
:10126000911D11240895B7FF0C9428090E942809A4
:10127000821B930B0895A1E21A2EAA1BBB1BFD0132
:101280000DC0AA1FBB1FEE1FFF1FA217B307E40765
:10129000F50720F0A21BB30BE40BF50B661F771FBD
:1012A000881F991F1A9469F760957095809590959D
:1012B0009B01AC01BD01CF010895A29FB001B39F76
:1012C000C001A39F700D811D1124911DB29F700D4F
:1012D000811D1124911D08955058BB27AA270E94F3
:1012E00084090C94F70A0E94E90A38F00E94F00A77
:1012F00020F039F49F3F19F426F40C94E60A0EF41A
:10130000E095E7FB0C94E00AE92F0E94080B58F3E4
:10131000BA17620773078407950720F079F4A6F5DA
:101320000C942A0B0EF4E0950B2EBA2FA02D0B0176
:10133000B90190010C01CA01A0011124FF27591B1A
:1013400099F0593F50F4503E68F11A16F040A22F20
:10135000232F342F4427585FF3CF46953795279591
:10136000A795F0405395C9F77EF41F16BA0B620B90
:10137000730B840BBAF09150A1F0FF0FBB1F661FD7
:10138000771F881FC2F70EC0BA0F621F731F841F1A
:1013900048F4879577956795B795F7959E3F08F040
:1013A000B0CF9395880F08F09927EE0F9795879502
:1013B00008950E94BC0A08F481E008950E94F20991
:1013C0000C94F70A0E94F00A58F00E94E90A40F0D3
:1013D00029F45F3F29F00C94E00A51110C942B0B77
:1013E0000C94E60A0E94080B68F39923B1F3552385
:1013F00091F3951B550BBB27AA2762177307840728
:1014000038F09F5F5F4F220F331F441FAA1FA9F3BD
:1014100035D00E2E3AF0E0E832D091505040E695AB
:10142000001CCAF72BD0FE2F29D0660F771F881F0C
:10143000BB1F261737074807AB07B0E809F0BB0BFF
:10144000802DBF01FF2793585F4F3AF09E3F510513
:1014500078F00C94E00A0C942B0B5F3FE4F3983E79
:10146000D4F3869577956795B795F7959F5FC9F7FC
:10147000880F911D9695879597F90895E1E0660F7D
:10148000771F881FBB1F621773078407BA0720F0F6
:10149000621B730B840BBA0BEE1F88F7E09508955F
:1014A0000E94100B88F09F5798F0B92F9927B751D9
:1014B000B0F0E1F0660F771F881F991F1AF0BA95F8
:1014C000C9F714C0B13091F00E942A0BB1E0089521
:1014D0000C942A0B672F782F8827B85F39F0B93F13
:1014E000CCF3869577956795B395D9F73EF49095AB
:1014F0008095709561957F4F8F4F9F4F0895E89429
:1015000009C097FB3EF490958095709561957F4F4B
:101510008F4F9F4F9923A9F0F92F96E9BB279395F9
:10152000F695879577956795B795F111F8CFFAF409
:10153000BB0F11F460FF1BC06F5F7F4F8F4F9F4F3A
:1015400016C0882311F096E911C0772321F09EE898
:10155000872F762F05C0662371F096E8862F70E0FE
:1015600060E02AF09A95660F771F881FDAF7880FD8
:101570009695879597F90895990F0008550FAA0B2E
:10158000E0E8FEEF16161706E807F907C0F0121696
:101590001306E407F50798F0621B730B840B950B99
:1015A00039F40A2661F0232B242B252B21F40895EE
:1015B0000A2609F4A140A6958FEF811D811D08958B
:1015C00097F99F6780E870E060E008959FEF80ECF6
:1015D000089500240A941616170618060906089599
:1015E00000240A9412161306140605060895092EFF
:1015F0000394000C11F4882352F0BB0F40F4BF2B6E
:1016000011F460FF04C06F5F7F4F8F4F9F4F0895AD
:1016100057FD9058440F551F59F05F3F71F04795A3
:10162000880F97FB991F61F09F3F79F08795089588
:10163000121613061406551FF2CF4695F1DF08C0A7
:10164000161617061806991FF1CF869571056105C4
:1016500008940895E894BB2766277727CB0197F96C
:1016600008950E94BC0A08F48FEF08950E94490B68
:101670000C94F70A0E94E90A38F00E94F00A20F060
:10168000952311F00C94E00A0C94E60A11240C94B2
:101690002B0B0E94080B70F3959FC1F3950F50E040
:1016A000551F629FF001729FBB27F00DB11D639F14
:1016B000AA27F00DB11DAA1F649F6627B00DA11DBA
:1016C000661F829F2227B00DA11D621F739FB00D60
:1016D000A11D621F839FA00D611D221F749F3327D0
:1016E000A00D611D231F849F600D211D822F762F69
:1016F0006A2F11249F5750409AF0F1F088234AF046
:10170000EE0FFF1FBB1F661F771F881F91505040B1
:10171000A9F79E3F510580F00C94E00A0C942B0B26
:101720005F3FE4F3983ED4F3869577956795B79538
:10173000F795E7959F5FC1F7FE2B880F911D969552
:10174000879597F908950E94BC0A880B990B089514
:10175000EE0FFF1F0590F491E02D0994F894FFCF50
:1017600001000000000000009502F5012202E202E3
:10177000530231024502000000008C04F50103030E
:1017800002036E616E00696E66006F7666005265D8
:101790006C617920416374697661746564000D0A37
:1017A0000052656C61792044656163746976617487
:1017B000656400486F75736520413A2000204B56E0
:1017C0004100486F75736520423A20004D61696E93
:1017D000204D657465723A200053756D3A20000003
:107E0000112484B714BE81FFF0D085E080938100F7
:107E100082E08093C00088E18093C10086E0809377
:107E2000C20080E18093C4008EE0C9D0259A86E02C
:107E300020E33CEF91E0309385002093840096BBD3
:107E4000B09BFECF1D9AA8958150A9F7CC24DD24C4
:107E500088248394B5E0AB2EA1E19A2EF3E0BF2EE7
:107E6000A2D0813461F49FD0082FAFD0023811F036
:107E7000013811F484E001C083E08DD089C08234E0
:107E800011F484E103C0853419F485E0A6D080C0E4
:107E9000853579F488D0E82EFF2485D0082F10E0AE
:107EA000102F00270E291F29000F111F8ED06801E7
:107EB0006FC0863521F484E090D080E0DECF843638
:107EC00009F040C070D06FD0082F6DD080E0C81688
:107ED00080E7D80618F4F601B7BEE895C0E0D1E017
:107EE00062D089930C17E1F7F0E0CF16F0E7DF06D8
:107EF00018F0F601B7BEE89568D007B600FCFDCFD4
:107F0000A601A0E0B1E02C9130E011968C91119780
:107F100090E0982F8827822B932B1296FA010C0160
:107F200087BEE89511244E5F5F4FF1E0A038BF0790
:107F300051F7F601A7BEE89507B600FCFDCF97BE46
:107F4000E89526C08437B1F42ED02DD0F82E2BD052
:107F50003CD0F601EF2C8F010F5F1F4F84911BD097
:107F6000EA94F801C1F70894C11CD11CFA94CF0C13
:107F7000D11C0EC0853739F428D08EE10CD085E9AC
:107F80000AD08FE07ACF813511F488E018D01DD067
:107F900080E101D065CF982F8091C00085FFFCCF94
:107FA0009093C60008958091C00087FFFCCF809118
:107FB000C00084FD01C0A8958091C6000895E0E648
:107FC000F0E098E1908380830895EDDF803219F02E
:107FD00088E0F5DFFFCF84E1DECF1F93182FE3DFCA
:107FE0001150E9F7F2DF1F91089580E0E8DFEE27F6
:047FF000FF270994CA
:027FFE00040479
:00000001FF
